:1000000000000120FD140000251500002715000048
:10001000291500002B1500002D1500000000000020
:100020000000000000000000000000006904000063
:1000300031150000000000008904000035150000A3
:10004000AD1600003715000037150000191200002A
:10005000371500003715000039370000371500004C
:100060003715000037150000371500003715000060
:100070003715000037150000371500003715000050
:1000800037150000E904000037150000371500009F
:100090003715000037150000371500003715000030
:1000A0003715000037150000371500003715000020
:1000B00037150000371500000000000000000000A8
:1000C0003715000037150000371500003715000000
:1000D000371500003715000037150000000000003C
:1000E0000000000000000000000000000000000010
:1000F0000000000000000000000000000000000000
:1001000000000000000000000000000000000000EF
:1001100000000000000000000000000000000000DF
:1001200000000000000000000000000000000000CF
:1001300000000000000000000000000000000000BF
:1001400000000000000000000000000000000000AF
:10015000000000000000000000000000000000009F
:10016000000000000000000000000000000000008F
:10017000000000000000000000000000000000007F
:10018000000000000000000000000000000000006F
:10019000000000000000000000000000000000005F
:1001A000000000000000000000000000000000004F
:1001B000000000000000000000000000000000003F
:1001C000000000000000000000000000000000002F
:1001D000000000000000000000000000000000001F
:1001E000000000000000000000000000000000000F
:1001F00000000000000000000000000000000000FF
:1002000010B5054C237833B9044B13B10448AFF350
:1002100000800123237010BD780000200000000042
:10022000F4F2020008B5034B1BB103490348AFF3D6
:10023000008008BD000000007C000020F4F20200F5
:10024000A3F5803A704700BF174B002B08BF134B34
:100250009D46FFF7F5FF00218B460F461348144AD1
:10026000121A03F06DFD0E4B002B00D098470D4B7A
:10027000002B00D098470020002104000D000D48FD
:10028000002802D00C48AFF3008003F027FD2000C7
:10029000290001F0DDF803F00DFD00BF00000800AB
:1002A0000000000000000000000001207800002095
:1002B000BCA40020000000000000000010B50F4B9F
:1002C0001A461B688342FBD354681119884201BF48
:1002D000416810460919516041684418A34208D189
:1002E000074C2468A34204D05B680B444360136846
:1002F0001B680360904218BF106010BDA4A00020CE
:10030000940000202DE9F041044602F029F9364915
:10031000364D0B680BBB364A364E50071FBFD01DFB
:1003200020F0070002F520431B1A14BF02464FF4C9
:1003300020431344083B23F0070300207060326021
:10034000C3E90000981AC2E900300B602A4B18601C
:100350002A4B18604FF000432B602F68274207D0CC
:1003600002F0AEF901F064F800263046BDE8F081F5
:10037000002CF5D004F1080362071CBF23F007032B
:100380000833002BECD0DFF87480D8F800509D4281
:10039000E6D3184A14686068984201D2206800BB0E
:1003A0000968A142DCD02168166811606268D21A1F
:1003B000102A06F1080604D9E01842606360FFF7CE
:1003C0007DFF0D4962680868AD1A17430023854216
:1003D00067602360C8F8005038BF0D6002F070F904
:1003E000C3E722460446D6E79400002098A00020E8
:1003F00098000020A4A00020A0A000209CA0002025
:1004000010B50446E0B10F4A50F8043C126813429C
:1004100016D050F8081C99B923EA020340F8043CAE
:1004200002F09EF8084A54F8043C1168A4F1080050
:100430000B441360FFF742FFBDE8104002F040B9E3
:1004400010BD00BF98A000209CA0002005480068B7
:1004500080F3088862B661B6BFF34F8FBFF36F8F2A
:1004600000DF00BF00000000064B19680868B0E814
:10047000F04F80F30988BFF36F8F4FF0000080F3D7
:100480001188704738A30020EFF30980BFF36F8F06
:10049000144B1A681EF0100F08BF20ED108A20E9D7
:1004A000F04F10604DF8043D4FF0400080F311888C
:1004B000BFF34F8FBFF36F8F02F066FA4FF000006B
:1004C00080F3118808BC19680868B0E8F04F1EF086
:1004D000100F08BFB0EC108A80F30988BFF36F8F4C
:1004E000704700BF38A30020F7B5194D0027C5F8A5
:1004F0004071D5F840310193019B00F0F5F8D5F833
:100500000445C5F80071D5F800310093009B0646FC
:1005100002F02EF8231A23F07F4424F0010323B1C4
:1005200002F0B8FB022818BF01240025013C0BD2C1
:1005300025B1084B4FF080525A6040BF304603B09F
:10054000BDE8F04000F0D4B802F020F80543EDE734
:100550000010014000ED00E008B5002001F02AF88D
:10056000094B1F22C3F808250122C3F804239A600F
:100570001A600222C3F84423044BE02283F81123BB
:100580004FF400321A6008BD0010014000E100E0A5
:100590007FB5054672B62C4CD4F8046502F05EFBBC
:1005A00000284DD0294A954294BF7319B31823F0FF
:1005B0007F430122C4F80823C4F840350023C4F85F
:1005C0004031D4F840310193019B4FF48033C4F89B
:1005D0000433BFF34F8F95B1F1EE103A23F09F0330
:1005E000E1EE103AF1EE103A194B4022C3F88421A3
:1005F00020BFD3F80011D3F804210A43F8D04FF4F8
:100600008033C4F808330023C4F84031D4F84021C3
:100610000392039AC4F80031D4F800310293029B8C
:100620000123C4F80433D4F80405094B801B4FF4AC
:10063000003230F07F40C3F8802101D001F09EFFEE
:1006400062B604B070BD00BF00100140FDFFFF00A6
:1006500000E100E072B6FEE74FF0807340E902135C
:10066000054B40F80C3C6FF0020340F8202C40F89A
:10067000243C4438704700BF550600000E4C08B5B6
:10068000E02384F82230FFF767FF0C4B00221A604A
:10069000D4F888300A4A43F47003C4F88830536BA6
:1006A00043F040435363236943F010032361FFF792
:1006B000CDFE72B6FEE700BF00ED00E0ACA000206A
:1006C00000EF00E072B6024A13680133136070470E
:1006D000ACA00020034A1368013B136003B962B663
:1006E000704700BFACA00020EFF3108072B67047D7
:1006F00080F310887047002201600271427182719C
:10070000704710B586B09F238DF80F3003230093F8
:10071000002404AB01220DF10F0100688DF8104098
:100720008DF811408DF8124000F03EFB049B2046EE
:10073000DAB262F30700C3F3072262F30F20C3F3B8
:10074000074363F3174006B010BD10B50446FFF72A
:10075000D8FFC0F307236371C0F307432071A3716F
:1007600010BD00001FB50D4B039300238DF80B3017
:100770000123009304460DF10B03042203A9006832
:1007800000F012FB2046FFF7BCFFC0F307232071E7
:10079000C0F307406371A07104B010BDAB01020348
:1007A0001FB50122009205238DF80E300DF10E01C8
:1007B0000DF10F03006800F0F7FA9DF80F0005B087
:1007C0005DF804FB08B5FFF7EBFF00F0010008BD82
:1007D00008B5FFF7E5FFC0F3400008BD1FB50623CD
:1007E0008DF80F300023009301220DF10F010068F6
:1007F00000F0DAFA05B05DF804FB1FB520238DF890
:100800000C300B0C8DF80D300B0A04468DF80E30B1
:100810008DF80F10FFF7E2FF2046FFF7D9FF18B958
:10082000012001F0E3FFF7E7002320680093042292
:1008300003A900F0B9FA2046FFF7C4FF18B1012060
:1008400001F0D4FFF7E704B010BD2DE9F0430746EF
:1008500085B00D4690461E464FF0020986B325F03E
:10086000FF04641B04F580742B0CB4428DF80D302A
:1008700038464FEA152328BF34468DF80C908DF882
:100880000E308DF80F50FFF7A9FF3846FFF7A0FF95
:1008900018B9012001F0AAFFF7E738680094434631
:1008A000042203A900F08CFA3846FFF78BFF18B139
:1008B000012001F09BFFF7E72544A044361BCDE75C
:1008C00005B0BDE8F0834171116892884281002231
:1008D000C260C0F8061002614261704710B54169FC
:1008E000044621B90322012000F018FF6061617AFB
:1008F0004FF0A043012202FA01F1C3F80815617A12
:1009000001F5E071032043F82100A17A8A40C3F881
:100910000C25A27A02F5E072002143F82200E27A67
:1009200002F5E07243F8221063791BB1012B23D04A
:1009300000204FE02B4B23602368627AC3F8082520
:100940002368A27AC3F80C252368E27AC3F810253D
:10095000237A002BECD123684FF00042C3F8242502
:10096000A3790BB1012BE3D1E1791A460329DFD832
:10097000DFE801F0070531344FF04023DBE743F0B7
:1009800002022368C3F8542522680023C2F81031FC
:100990002268C2F820312268C2F81831226840214A
:1009A000C2F8041322680220C2F8040322684FF43C
:1009B0000020C2F8040322680720C2F800050A4A92
:1009C00082F803130821116060691A46194600F085
:1009D000E3FE012010BD43F00402D2E743F006021B
:1009E000CFE700BF0030004000E100E070B5D1F873
:1009F0000855164C03F5A27644EA0524144D45F833
:100A00002640D4009B0004F1804404F5F83403F13F
:100A1000804303F5C243C4F8103501F11403C4F850
:100A20001435012303FA02F20A4BC3F804250368C4
:100A30000022C3F818214023C1F808330223C1F86B
:100A400008334FF40023C1F8083370BD01000300E0
:100A50000060004000F0014030B503F5A2730F4D77
:100A6000002445F82340D30003F1804303F5F83315
:100A7000C3F81045C3F81445094BC3F804250368AF
:100A8000C3F818414023C1F804330223C1F80433EA
:100A90004FF40023C1F8043330BD00BF00600040B4
:100AA00000F0014070470368C3F844150368C3F8B9
:100AB000482502680023C2F850350268C2F8343570
:100AC0000268C2F838350268C2F840350268C2F8D8
:100AD0001831704737B5C3688BB105698DB1FF2DEB
:100AE00028BFFF252A46C168FFF7DDFFC3682B44F6
:100AF000C36003695B1B0361036801221A6103B0D1
:100B000030BD0279012393404FF0A04201A9C2F801
:100B10000835C5604069019500F0E6FF019B002B98
:100B2000EDD0054B4FF080525A6040BFBFF34F8F5E
:100B3000BFF36F8FE3E700BF00ED00E010B504687E
:100B40000023C4F844350468C4F848350468C4F880
:100B500050350468C4F834150168C1F838250268B6
:100B6000C2F840350268C2F8183110BD2DE9F041D5
:100B7000069D044688461F461646002A4ED04FF072
:100B8000FF31406901F032F90023012F216884F818
:100B900004801A4620463ED1FFF728FFAB6813B108
:100BA000EB6828469847237901254FF0A04205FAC3
:100BB00003F3C2F80C35E66027612669E168FF2E71
:100BC00028BFFF2632462046FFF76DFF23699B1B97
:100BD0002361E3683344E3602368AF421D6118D1A9
:100BE0002268D2F81831002BFBD023794FF0A042B5
:100BF000012505FA03F3C2F8083500222168E260F6
:100C000013462046FFF728FF60691346114600F09F
:100C1000C3FD284603E0FFF71FFFBFE71046BDE80E
:100C2000F0812DE9F04104460D4640694FF0FF3157
:100C300016461F4601F0DAF800231A46216825718E
:100C40002046FFF709FF23684021C3F808132368F3
:100C50000221C3F8081323684FF40021C3F80813D6
:100C600023794FF001084FF0A04108FA03F3C1F8CF
:100C70000C35E260314622613A46FFF714FF2368E3
:100C8000C3F810802268D2F81831002BFBD0DDE9C0
:100C900006122046FFF752FF236801221A612268DC
:100CA000D2F81831002BFBD0237901254FF0A04258
:100CB00005FA03F3C2F80835002360691A4619469D
:100CC00000F06AFD2846BDE8F0812DE9F0410446B8
:100CD0000D4640694FF0FF3116461F4601F086F879
:100CE00000231A46216825712046FFF7B5FE2368C8
:100CF0004021C3F8081323680221C3F808132368AE
:100D00004FF40021C3F8081323794FF001084FF086
:100D1000A04108FA03F3C1F80C35E26031462261C4
:100D20003A46FFF7C0FE2368C3F810802268D2F865
:100D30001831002BFBD0DDE906122046FFF7B3FE89
:100D4000236801221A612268D2F81831002BFBD0E7
:100D5000237901254FF0A04205FA03F3C2F80835C4
:100D6000002360691A46194600F016FD2846BDE8C2
:100D7000F08110B5016002F5E0734FF0A04103244B
:100D8000027141F82340012303FA02F2C1F8082559
:100D900010BD07B5009313460A4601790068FFF7B6
:100DA000E5FE03B05DF804FB13B5049CCDE9003407
:100DB00013460A4601790068FFF733FF02B010BD01
:100DC00013B5049CCDE9003413460A460179006846
:100DD000FFF77BFF02B010BDC0E9001203490022FB
:100DE000C0E90222C0E90412826170470000FFFFDF
:100DF00030B5D0E901349C421DD2036885691B5D82
:100E00005B1BDBB2C48ABBB1058A240A4C55048A39
:100E1000C58A0C44013B6570048A85690234A4B21A
:100E2000013594420482DBB28561EBD30023038257
:100E3000C3680133C36030BD8361838AA34208BFA6
:100E4000438AC382836801338360D2E7012A02D1D7
:100E5000016000207047022A04BF0B780370F8E796
:100E6000012A02D1016000207047022A04BF0B78DA
:100E70000370F8E70278012393404FF0A042C2F8D4
:100E80000C3570470278012393404FF0A042C2F81E
:100E90000835704710B58368044613B10322014634
:100EA0009847204610BD10B54371002301600271C0
:100EB000837110BD0068FFF76CBF00001FB5037998
:100EC0008DF80030064B0393064B02936B46FFF7F9
:100ED000F1FF6846FFF7DEFF05B05DF804FB00BFD9
:100EE000850E0000610E000007B501228DF8071085
:100EF0000DF10701FFF7E2FF03B05DF804FB00000E
:100F00001FB503798DF80030064B0393064B02930F
:100F10006B46FFF7CFFF6846FFF7BCFF05B05DF8F3
:100F200004FB00BF750E00004D0E000007B5012246
:100F30008DF807100DF10701FFF7E2FF03B05DF830
:100F400004FB10B5C379044653B11121FFF7EEFF3E
:100F5000062001F04BFC01F00BFB0023A060E371C5
:100F600010BD10B5044601F003FBA368C21A7F2A26
:100F700005D88033BDE81040181A01F037BC10BD09
:100F800010B50446FFF7EDFF20460121FFF7CEFF25
:100F90000123E37101F0ECFAA060BDE8104080206D
:100FA00001F024BC10B53A210446FFF7BFFF2046EC
:100FB0005521BDE81040FFF797BF10B53621044614
:100FC000FFF7B4FF20460021BDE81040FFF78CBFBB
:100FD00010B52A210446FFF7A9FF20460021FFF79C
:100FE00083FF20460021FFF77FFF20460021FFF707
:100FF0007BFF2046F021BDE81040FFF775BF10B51C
:101000002B210446FFF792FF20460021FFF76CFFDB
:1010100020460021FFF768FF20460121FFF764FF0B
:1010200020464021BDE81040FFF75EBF2121FFF7B9
:101030007DBF1321FFF77ABF2921FFF777BF2DE985
:10104000F04104460F462A2115461E46BDF8188079
:10105000FFF76CFF390A2046FFF746FFF9B220463A
:10106000FFF742FF310A2046FFF73EFFF1B220466C
:10107000FFF73AFF20462B21FFF758FF290A2046A9
:10108000FFF732FFE9B22046FFF72EFF4FEA1821A3
:101090002046FFF729FF5FFA88F12046BDE8F041BE
:1010A000FFF722BF37B50D462C2104460192FFF70A
:1010B0003DFF019A2946204603B0BDE83040FFF7C6
:1010C000FDBE10B5C4210446FFF730FF20461021B5
:1010D000BDE81040FFF708BFF7B5BDF82040013C60
:1010E0001444013B0B44A4B2DDE9096700949BB2B0
:1010F0000546FFF7A4FF3A463146284603B0BDE84F
:10110000F040FFF7CFBF70B5437901254FF0A046FF
:10111000044605FA03F3C6F80C35284601F066FBD1
:10112000637905FA03F3C6F80835E57101F020FA92
:10113000A060BDE87040802001F058BB10B5027976
:101140004FF0A04302F5E072032143F822104279E8
:1011500002F5E072044643F82210417901228A40E8
:10116000C3F80825FFF7CFFF2046FFF709FF204609
:10117000FFF7E7FE2046FFF715FF2046FFF71DFFAC
:101180002046FFF725FF2046FFF739FF2046FFF7EF
:101190004DFF2046FFF74DFF2046FFF792FF204608
:1011A000BDE81040FFF748BF012901604FF0A043A0
:1011B0004FF4804218D002290BD04FF48000D1B1F7
:1011C000C3F80C254FF40002C3F80C05C3F80C2536
:1011D0007047C3F80C254FF48002C3F80C254FF478
:1011E0000002C3F808257047C3F80C254FF48002AD
:1011F000C3F80825F3E7C3F80825C3F80805EEE7A8
:101200004FF0A0430322C3F83827C3F85827C3F888
:101210005C270168FFF7C8BF10B5154CD4F804333C
:10122000580609D5D4F81831012B05D100231148EF
:10123000C4F81831FFF74EFCD4F80433190309D56C
:10124000D4F84C31012B05D100230A48C4F84C31A5
:10125000FFF728FC064BD3F80423920706D5D3F8F2
:101260000421012A04BF0022C3F8042110BD00BFDD
:1012700000300040E0A20020F0B58DB00F49104EC4
:10128000104D40F2A55205A8FFF7A6FD00244FF42B
:10129000F0770B494FF4F07205A8FFF7A9FD012381
:1012A0000093A2B2CDE90167F02300212846013462
:1012B000FFF712FFF02CECD10DB0F0BD773D000030
:1012C000E0A00020C8A200202DE9F0431A4A07EE52
:1012D000900A85B04FF4F0731746013B02F8011BEA
:1012E000FBD1F8EE677A9FED157A154E27EE877AD7
:1012F000DFED147AB4EEE77AF1EE10FAD8BFF0EE33
:10130000477AFCEEE77ADC2517EE903A9CB24FEA7A
:1013100044094FF001082A460135CDE90179CDF89D
:101320000080234600213046ADB2FFF7D5FEF02DF8
:10133000F1D105B0BDE8F083E0A000209A991940F2
:10134000C8A2002000007043F0B52E4B2E4D2F494F
:10135000C3F80056B5B0022001F07CFF08B101F0DF
:101360003FFF2B482B4F274EFFF7B8FA2948FFF7CE
:10137000ECF92848FFF7F6F92748FFF741FF27481F
:10138000FFF7DCFEFFF778FF00242146384604F51E
:101390008054FFF732FAB4F52C3FC6F80056F4D16A
:1013A0001F4F1C4E00243919C82202A802F0BAFCB3
:1013B000C823214602AA3046FFF747FA07EE904AB3
:1013C0009FED187AF8EEE76A4FF6FF71C6EE877A5E
:1013D000C8349FED157A67EE877AFCEEE77ACDED9B
:1013E000017A9DF80400FFF76FFF064BC3F8005623
:1013F0000E4B9C42D7D14EF207016420FFF764FFE9
:1014000000BFFDE7000001403546526EB0A000204D
:10141000E0A20020FCA2002000000020C8A20020C2
:101420001C43000000F12B480000C84248B00200F5
:10143000024A136801331360704700BFDCA200202A
:10144000024A136801331360704700BF04A30020F1
:101450001FB50D4B0D4AC3F8002600F08FF803AB03
:10146000019300230A490B4800934FF4007200F0E7
:10147000ABFE012802D0042001F0B2FE00F090FF84
:101480000F2001F0ADFEFBE7000001403546526E33
:101490006C3D00004913000037B5124B124C186820
:1014A000124D9B8800906A4600212046ADF804301A
:1014B000FFF709FA052221462846FFF75AFC29467C
:1014C0000B4D0C48FFF717F9214619222846FFF764
:1014D00050FC09481A231222294603B0BDE83040C7
:1014E000FFF7E1BC713D0000E0A20020C0A2002097
:1014F000D4A20020FCA20020C8A200200649074A6E
:10150000074B9B1A03DD043BC858D050FBDC01F0AD
:10151000CDFEFEF799FE000000F30200000000205F
:1015200078000020FEE7FEE7FEE7FEE7FEE7FEE7C5
:10153000FEE7FEE7FEE7FEE710B568B90E4CA368CC
:10154000012262703BB1D3E900230020A2609847DA
:10155000A368002BF7D110BD0128FCD1064C2369EC
:10156000A070002BF7D0D3E9002301202261984717
:101570002369002BF7D110BD08A3002010B50B4C38
:10158000237882B013B1852002B010BD0848636093
:10159000A3602361E36000F03BF8019000F044F8A1
:1015A00001980123237002B010BD00BF08A30020E2
:1015B0003915000038B5154DAB78044673B110B13C
:1015C000436801209847002001F032FEEB680133A8
:1015D000EB600020BDE8384001F032BE03F0FF00B0
:1015E00001F026FE64B12A6942B1944208D0134644
:1015F00001E09C4204D01B68002BFAD122602C61D0
:10160000EB68002BE2D100F021F8DFE708A300200F
:10161000044A137923B9012110609180184670475C
:10162000852070471CA30020074B1A68D20704D4FA
:10163000C021012283F800131A604FF08043012279
:10164000C3F81825704700BF00E100E010B44FF068
:1016500080430022C3F8042183B0D3F8042101920F
:10166000104901980222C3F80423D1F8FC000E4A65
:1016700040F08073C1F8FC30146844F0010313603B
:10168000516853685B1AB3F50A5FFAD305491460D1
:101690004FF080430122C1F8FC009A6003B05DF86E
:1016A000044B704700ED00E0001000E010B54FF073
:1016B000804382B0D3F8002162B10021164AC3F8FA
:1016C0000011D3F80011507900910121009CC3F85A
:1016D0000813A8B14FF08043D3F80421CAB1002207
:1016E000C3F80421D3F80421019202210A4A019887
:1016F000C3F808131368012002B0BDE81040184772
:101700001368517198474FF08043D3F80421002AA1
:10171000E5D102B010BD00BF1CA30020F8B50746FC
:1017200016460D4651B100FB01F05030FEF7EAFDC0
:10173000044668B300F15003036005E05020FEF753
:10174000E1FD044620B32460C4E90F75FEF7BAFF3B
:10175000D4E90F13226803FB01F1CB1A1144616035
:1017600000211344A163FF2184F84410C4E902233B
:1017700084F8451004F1100002F056FA04F1240038
:1017800002F052FAFEF7A6FF84F84C602046F8BD3E
:1017900000242046F8BD00BF2DE9F047044684B080
:1017A0001F460192884600F12406FEF78BFFA26BCC
:1017B000E36BDFF830939A424FF0000A7AD3022F9E
:1017C00000F0E480019D002D00F00D8102ADBAF122
:1017D000000F00F0D780FEF77DFF00F0C1FEFEF79E
:1017E00071FF94F84430FF2B04BF002384F8443089
:1017F00094F84530FF2B04BF002384F84530FEF7F2
:1018000069FF01A9284601F0EFF9002840F0F180B6
:10181000FEF758FFA26BE36B9A425FD0FEF75AFFC8
:10182000FEF750FF94F8452055B2002D04DC11E07E
:101830006A1ED3B255B26BB1636A304653B101F040
:1018400075F90028F4D001F003FA6A1ED3B255B23C
:10185000002BF1D1FF2384F84530FEF73BFFFEF764
:1018600031FF94F8442055B2002D14DD04F1100A24
:1018700003E06A1ED3B255B26BB12369504653B12F
:1018800001F054F90028F4D001F0E2F96A1ED3B255
:1018900055B2002BF1D1FF2384F84430FEF71AFF34
:1018A00000F00EFFFEF70EFFA26BE36B9A424FF0C3
:1018B000010A84D2226CA56B002A40F0E2802668DF
:1018C000002E00F0F4800135A563636A002B79D106
:1018D000FEF700FF012004B0BDE8F08704F1100A14
:1018E000FEF7F8FE0199504601F086F8FEF7EAFE91
:1018F00094F845305DB2002D04DC11E06B1EDAB2C5
:101900005DB26AB1636A304653B101F00FF9002845
:10191000F4D001F09DF96B1EDAB25DB2002AF1D16C
:10192000FF2384F84530FEF7D5FEFEF7CBFE94F892
:1019300044305DB2002D04DC11E06B1EDAB25DB202
:101940006AB12369504653B101F0F0F80028F4D091
:1019500001F07EF96B1EDAB25DB2002AF1D1FF23ED
:1019600084F84430FEF7B6FE00F0AAFE002899D1B4
:101970004FF08053C9F8043040BFBFF34F8FBFF31F
:101980006F8F8FE7284601F023F924E7226CA56BBF
:10199000002A94D04146E06802F0C4F9226CE36862
:1019A00051429B1A2268E360934204D263680B445D
:1019B000E360022F87D1002D86D10123A363636AE0
:1019C000002B85D004F1240001F0B0F800283FF48A
:1019D0007FAF444B4FF080525A6040BFBFF34F8FF0
:1019E000BFF36F8F74E7FEF775FE284604B0BDE8BD
:1019F000F087FEF767FE94F845305DB2002D14DDE8
:101A000004F1240603E06B1EDAB25DB26AB1636AC8
:101A1000304653B101F08AF80028F4D001F018F9EB
:101A20006B1EDAB25DB2002AF1D1FF2384F8453093
:101A3000FEF750FEFEF746FE94F844305DB2002DEE
:101A400014DD04F1100603E06B1EDAB25DB26AB178
:101A50002369304653B101F069F80028F4D001F051
:101A6000F7F86B1EDAB25DB2002AF1D1FF2384F8D9
:101A70004430FEF72FFE00F023FE002004B0BDE846
:101A8000F08707BB4146A06802F04CF9A368216CBF
:101A900062680B449342A360FFF415AF0135A56360
:101AA000636A2268A260002B3FF412AF8AE7606885
:101AB000013501F057F9A563636A6660002B81D197
:101AC000002886D104E74146E06802F02BF9226C39
:101AD000E36851429B1A2268E3609342BFF469AF06
:101AE00064E700BF00ED00E070B504460E46FEF767
:101AF000FBFDA36BE26B9A42054610D994F8452092
:101B00000133FF2AA36353B20FD001335BB284F8D1
:101B1000453028460124FEF7EBFD204670BD002429
:101B20002846FEF7E5FD204670BD636A002BF0D025
:101B300004F1240000F0FAFF0028EAD0002EE8D0DB
:101B400001243460ECE700BF2DE9F043044685B082
:101B50000F460192FEF7B6FDA56B002D40F01D81EA
:101B6000019B002B00F0CE8002A801F031F8DFF8D5
:101B7000788204F12406FEF7ADFD00F0F1FCFEF7DB
:101B8000A1FD94F84430FF2B04BF002384F84430B7
:101B900094F84530FF2B04BF002384F84530FEF74E
:101BA00099FD01A902A801F01FF8002859D1FEF7FC
:101BB00089FDA36B002B40F0AB80FEF78BFD0199F4
:101BC000304600F019FFFEF77DFD94F845305DB218
:101BD000002D04DC11E06B1EDAB25DB26AB1636AFB
:101BE000304653B100F0A2FF0028F4D001F030F8E5
:101BF0006B1EDAB25DB2002AF1D1FF2384F84530C2
:101C0000FEF768FDFEF75EFD94F844305DB2002DEE
:101C100014DD04F1100903E06B1EDAB25DB26AB1A3
:101C20002369484653B100F081FF0028F4D001F049
:101C30000FF86B1EDAB25DB2002AF1D1FF2384F8EF
:101C40004430FEF747FD00F03BFD002851D14FF036
:101C50008053C8F8043040BFBFF34F8FBFF36F8F7E
:101C600047E0FEF72FFD94F845305DB2002D04DC0F
:101C700011E06B1EDAB25DB26AB1636A304653B1ED
:101C800000F054FF0028F4D000F0E2FF6B1EDAB23F
:101C90005DB2002AF1D1FF2384F84530FEF71AFD2A
:101CA000FEF710FD94F844305DB2002D14DD04F110
:101CB000100903E06B1EDAB25DB26AB123694846CF
:101CC00053B100F033FF0028F4D000F0C1FF6B1EC9
:101CD000DAB25DB2002AF1D1FF2384F84430FEF776
:101CE000F9FC00F0EDFCFEF7EDFCA36B53B1FEF741
:101CF000F1FCFEF7E7FCA56B002D4ED1019B002BFC
:101D00007FF439AFFEF7E6FC002005B0BDE8F083B4
:101D1000FEF7E0FCFEF7D6FC94F845305DB2002DEE
:101D200004DC11E06B1EDAB25DB26AB1636A304660
:101D300053B100F0FBFE0028F4D000F089FF6B1EC9
:101D4000DAB25DB2002AF1D1FF2384F84530FEF704
:101D5000C1FCFEF7B7FC94F844305DB2002D14DDF1
:101D600004F1100903E06B1EDAB25DB26AB12369B7
:101D7000484653B100F0DAFE0028F4D000F068FFC6
:101D80006B1EDAB25DB2002AF1D1FF2384F8443031
:101D9000FEF7A0FC00F094FCABE7226C52B1E168C6
:101DA000636811449942E16024BF2168E1603846CC
:101DB00001F0B8FF013DA56323692BB9FEF78AFC4A
:101DC000012005B0BDE8F08304F1100000F0AEFE84
:101DD0000028F3D0044B4FF080525A6040BFBFF34D
:101DE0004F8FBFF36F8FE9E700ED00E02DE9F0437F
:101DF000044685B000F124060191FEF763FCA36B55
:101E0000DFF8D8820027B946002B40F0D380019D2F
:101E1000002D00F0378102ADB9F1000F00F0DA803B
:101E2000FEF758FC00F09CFBFEF74CFC94F84430A5
:101E3000FF2B04BF002384F8443094F84530FF2B77
:101E400004BF002384F84530FEF744FC01A928466E
:101E500000F0CAFE00285DD1FEF734FCA36B002B16
:101E600040F0C480FEF736FC2368002B00F0198197
:101E70000199304600F0C0FDFEF724FC94F845308F
:101E80005DB2002D04DC11E06B1EDAB25DB26AB106
:101E9000636A304653B100F049FE0028F4D000F0E8
:101EA000D7FE6B1EDAB25DB2002AF1D1FF2384F8AF
:101EB0004530FEF70FFCFEF705FC94F844305DB2A8
:101EC000002D14DD04F1100903E06B1EDAB25DB2DF
:101ED0006AB12369484653B100F028FE0028F4D0C7
:101EE00000F0B6FE6B1EDAB25DB2002AF1D1FF231C
:101EF00084F84430FEF7EEFB00F0E2FB002851D1FD
:101F00004FF08053C8F8043040BFBFF34F8FBFF38A
:101F10006F8F47E0FEF7D6FB94F845305DB2002D99
:101F200004DC11E06B1EDAB25DB26AB1636A30465E
:101F300053B100F0FBFD0028F4D000F089FE6B1EC9
:101F4000DAB25DB2002AF1D1FF2384F84530FEF702
:101F5000C1FBFEF7B7FB94F844305DB2002D14DDF1
:101F600004F1100903E06B1EDAB25DB26AB12369B5
:101F7000484653B100F0DAFD0028F4D000F068FEC6
:101F80006B1EDAB25DB2002AF1D1FF2384F844302F
:101F9000FEF7A0FB00F094FBFEF794FBA36BEBB104
:101FA000FEF798FBFEF78EFBA36B4FF00109002BA9
:101FB0003FF42DAF2268013BA363002A00F08A8022
:101FC0002369002B76D1FEF785FB0127384605B043
:101FD000BDE8F083284600F0FBFD21E7FEF77AFB21
:101FE000002F48D1384605B0BDE8F083FEF772FBFC
:101FF000FEF768FB94F845305DB2002D04DC11E07B
:102000006B1EDAB25DB26AB1636A304653B100F05A
:102010008DFD0028F4D000F01BFE6B1EDAB25DB21D
:10202000002AF1D1FF2384F84530FEF753FBFEF779
:1020300049FB94F844305DB2002D14DD04F1100921
:1020400003E06B1EDAB25DB26AB12369484653B150
:1020500000F06CFD0028F4D000F0FAFD6B1EDAB23F
:102060005DB2002AF1D1FF2384F84430FEF732FB41
:1020700000F026FB96E7FEF725FB616A49B9606828
:1020800000F0B2FEFEF726FB0027384605B0BDE89B
:10209000F083236B60681968C1F1030100F0A4FEAE
:1020A000F0E7FEF70FFB606800F004FE0746FEF75E
:1020B00011FBDDE604F1100000F038FD002882D0AD
:1020C000064B4FF080525A6040BFBFF34F8FBFF3B3
:1020D0006F8F78E700F0DAFE606071E700ED00E0F6
:1020E000064B1A681AB19A6802B17047012203EBD5
:1020F000C20C43F83210CCF80400F6E728A3002005
:1021000070B505460E461446FEF7DCFA95F84430E5
:10211000FF2B04BF002385F8443095F84530FF2B92
:1021200004BF002385F84530FEF7D4FAAB6B002BD3
:1021300043D0FEF7C7FA95F845305CB2002C14DDA9
:1021400005F1240603E0631EDAB25CB26AB16B6A81
:10215000304653B100F0EAFC0028F4D000F078FDDE
:10216000631EDAB25CB2002AF1D1FF2385F8453054
:10217000FEF7B0FAFEF7A6FA95F844305CB2002CF0
:1021800014DD05F1100603E0631EDAB25CB26AB139
:102190002B69304653B100F0C9FC0028F4D000F0A0
:1021A00057FD631EDAB25CB2002AF1D1FF2385F835
:1021B0004430BDE87040FEF78DBA2246314605F145
:1021C000240000F061FCB4E72DE9F047960080465A
:1021D00030460D469946FEF795F800287FD0074611
:1021E0004820FEF78FF80446002800F0838007633C
:1021F00032463846A52101F0A3FD2B7884F834300F
:102200002B78D4F830A063B16B7884F835306B78D4
:102210003BB1AB7884F83630AB7813B1EB7884F807
:102220003730089D022D28BF02250023271D84F882
:1022300037306364E56225643846043E01F000FDF2
:10224000564404F11800C5F1030501F0F9FCA5613D
:10225000246164624A46414626F00700FEF7FCF915
:10226000099B206003B11C60FEF72CFA3C4A3D4EEE
:102270001368013313603368002B44D0DFF81881F2
:10228000D8F800307BB3E36A374802683946374FE5
:102290000132D7F800C0026001253548A26305FA73
:1022A00003F203EB830342EA0C0200EB83003A6083
:1022B00001F0CAFCFEF70EFAD8F8003003B332681A
:1022C000E36AD26A9A421BD22A4B4FF080525A607C
:1022D00040BFBFF34F8FBFF36F8F284601E04FF031
:1022E000FF30BDE8F0873368DA6AE36A9A4298BF44
:1022F0003460C9E73846FEF783F84FF0FF30F0E767
:102300002846BDE8F08734601368012B03D0E36AE8
:10231000DFF88480B8E71648DFF88090164DDFF8C4
:10232000788001F081FC154801F07EFC144801F032
:102330007BFC484601F078FC284601F075FC11480A
:1023400001F072FC104801F06FFC104801F06CFCC9
:102350000F4BC3F800900F4B1D60E36A94E700BF7A
:1023600080A3002038A3002090A3002094A3002085
:1023700044A3002000ED00E0ACA3002058A30020FF
:102380006CA30020CCA30020F8A30020E4A300202D
:102390003CA3002040A30020E0A3002098A300203D
:1023A0002DE9F8434FF4F070FDF7ACFF002872D030
:1023B00005464820FDF7A6FF044600286DD04FF4DF
:1023C000F072A5210563284601F0BAFC00254F4BA9
:1023D0006363271DC4E91055266BE562384601F09A
:1023E0002FFC04F1180001F02BFC032306F5EE701E
:1023F0002A464749A3612461646220F00700FEF782
:102400002BF9444B20601C60FEF75CF9424A434DB7
:102410001368013313602B68002B4AD0404E336899
:10242000002B3FD0E36A3F48026839463E4F0132F5
:10243000D7F800C00260A2633C4801229A4003EB37
:10244000830342EA0C0200EB83003A6001F0FCFBDC
:10245000FEF740F933686BB12A68E36AD26A9A42A0
:1024600008D2334B4FF080525A6040BFBFF34F8FBA
:10247000BFF36F8F00F072FE01280CD172B62D4AA7
:102480002D4B4FF0FF311160002230601A60BDE823
:10249000F843FEF7F3B8BDE8F8832846BDE8F843F3
:1024A000FDF7AEBF2B68DA6AE36A9A4298BF2C60E8
:1024B000B9E72C601368012B02D0E36A184EB2E72B
:1024C0001A48DFF89490DFF89480154E01F0ACFBC9
:1024D0001A4801F0A9FB1A4801F0A6FB484601F092
:1024E000A3FB404601F0A0FB164801F09DFB1648F7
:1024F00001F09AFB154801F097FB154BC3F80090CB
:10250000144BC3F80080E36A8DE700BF49444C00D8
:1025100089280000C0A3002080A3002038A3002049
:10252000E0A3002090A3002094A3002044A3002057
:1025300000ED00E0C4A300200CA4002058A300205C
:102540006CA30020CCA30020F8A30020E4A300206B
:102550003CA3002040A3002098A30020ACA30020AF
:10256000024A136801331360704700BF8CA3002038
:10257000014B1868704700BF0CA40020024A136882
:1025800018441060704700BF0CA400202DE9F04FE4
:10259000404B1B6883B0002B47D13F4B1E68013670
:1025A0001E60002E4FD0DFF808B1DBF80030B342D8
:1025B00060D83A4F3B681D68002D66D0DFF8F48084
:1025C000DFF8F4A0DFF8F490002523E0019101F09A
:1025D0005FFBA36A019904F1180013B101F058FBE5
:1025E0000199E06AD8F800200123834000EB8000C5
:1025F00013430AEB8000C8F8003001F025FBD9F83E
:1026000000203B68E16AD26A1B68914228BF01251D
:10261000002B3AD03B68DB68DC686368211D9E4272
:102620000846D3D2CBF8003004E01D4A13680133CA
:10263000002513601B4B1B68002B0CBF2846012094
:1026400003B0BDE8F08F154B174A18681168196080
:10265000164910600A6801320A601A6812685AB98D
:10266000DFF84CB04FF0FF33CBF80030DBF8003030
:10267000B3429ED90025DDE71B68DFF834B0DB6884
:10268000DB685B68CBF800308FE74FF0FF33CBF8A7
:102690000030CFE78CA300200CA400203CA3002036
:1026A00088A3002010A4002040A30020C8A300207D
:1026B000C4A3002094A3002044A3002038A300203A
:1026C0002DE9F04F83B0FDF7FDFF3D4B1A68013A4D
:1026D0001A601B68002B59D13A4B1B68002B55D050
:1026E000DFF8FCA0DAF80030002B65D0364DDFF8BB
:1026F000F480364FDFF8F0900126DAF80C30DC6811
:1027000004F1040B04F1180001F0C2FA584601F07C
:10271000BFFAE06A2A6806FA00F300EB8000134370
:10272000594608EB80002B6001F08EFA3B68E26AA4
:10273000DB6A9A4232D3C9F80060DAF80030002B25
:10274000DBD1234B1A681268002A30D01A68214B5B
:10275000D268D26852681A601F4E346844B10125AD
:10276000FFF714FF08B1C9F80050013CF8D13460FC
:10277000D9F8003053B1194B4FF080525A6040BF26
:10278000BFF34F8FBFF36F8F012000E00020019057
:10279000FDF7A0FF019803B0BDE8F08FDAF8003034
:1027A000002BAAD10A4B1A681268002ACED1094B15
:1027B0004FF0FF321A60CFE7DFF82C90CCE700BF74
:1027C0008CA3002080A3002094A3002038A3002025
:1027D0003CA30020C4A3002088A3002000ED00E05B
:1027E000CCA3002044A3002010A4002070B548B959
:1027F0001D4B4FF080525A6040BFBFF34F8FBFF365
:102800006F8F70BD194A1A4913681A4D013313604E
:102810000E6804462868043001F03AFA40B92B6883
:102820001549D86A0B680122824023EA02030B6033
:102830002B68A4195C600FD2104B1868296804310A
:1028400001F00EFA0E4B1A68944238BF1C60FFF775
:1028500037FF0028CCD070BD0A4B186829680431B6
:1028600001F0FEF9F3E700BF00ED00E08CA30020CB
:102870000CA4002038A3002094A300203CA3002037
:10288000C4A3002040A300202DE9F84F344C354E5E
:10289000354DDFF8E880DFF8E890DFF8E8B04FF07A
:1028A000805A14E0FDF70EFFF368DF68381D01F071
:1028B000EFF92B68013B2B602368013B2360FDF798
:1028C00009FF386BFDF79CFD3846FDF799FD23683D
:1028D000002BE7D1254B1B68012B06D9CBF804A0B0
:1028E00040BFBFF34F8FBFF36F8FD8F80030012B7D
:1028F000D9F80030DB6A04D9002BE8D11B4B1B68E8
:10290000E5E7002BE3D1194B1B68012BDFD8184BEF
:10291000184A1B6812689B1A012BD8D9164A1368EB
:1029200001331360D8F80030012BD9F80030DB6A8E
:1029300005D90BB90D4B1B68FFF7C2FEC7E7002B8B
:10294000FAD10A4B1B68012BF6D8094B1868094BC2
:102950001B68C01A0128EFD9FDF71AFEECE700BF8B
:1029600084A30020F8A3002080A3002044A300201B
:10297000C4A300200CA400208CA3002094A300205A
:1029800038A3002000ED00E0164B1B681BB1164B6E
:1029900001221A60704710B5134A144C1360226864
:1029A000236812681B6B9A4216D9114B114A1B6897
:1029B000B3FA83F3C3F11F0303EB830302EB830139
:1029C0000A464B685B684B600832934204BF5B6801
:1029D0004B60DB68236010BD206821683431FEF74E
:1029E0002FFDE2E78CA3002010A4002038A30020D4
:1029F00094A3002044A3002070B51C4D2B680C4606
:102A000003F1180101F02CF9194B1E6828680430F5
:102A100001F03EF940B92B681649D86A0B680122CB
:102A2000824023EA02030B60631C17D02B68A419B1
:102A30005C6007D3104B18682968BDE8704004310A
:102A400001F00EB90D4B18682968043101F008F93E
:102A50000B4B1A68944238BF1C6070BD2968094846
:102A6000BDE87040043101F0EFB800BF38A300208A
:102A70000CA4002094A3002040A300203CA300202D
:102A8000C4A30020E4A30020F8B5214D2B680C4618
:102A900003F11801164601F0D7F81E4B1F6828688D
:102AA000043036BB01F0F4F858B92B681A49DA6AD9
:102AB000012303FA02F20B6823EA02030B60631C92
:102AC0001DD02B683C195C600BD2144B1868296828
:102AD000043101F0C5F8124B1A68944200D21C6010
:102AE000F8BD104B18682968BDE8F840043101F0C2
:102AF000B7B801F0CDF820B94FF0FF34D5E7002E7C
:102B0000DFD029680848BDE8F840043101F09CB8DE
:102B100038A300200CA4002094A300203CA3002094
:102B2000C4A3002040A30020E4A3002070B5C36824
:102B3000DC6804F1180582B0284601F0A9F81C4BA6
:102B40001B6843BB211D1B4D0191084601F0A0F8F5
:102B5000E36A2E681848019901229A4003EB830327
:102B6000324300EB83002A6001F06EF8134BE26AF7
:102B70001B68DB6A9A4282BF114B01201860114B1F
:102B80001A68126898BF002052B90F4B4FF0FF32FD
:102B90001A6002B070BD0D48294601F055F8E5E70E
:102BA0001A68094BD268D26852681A6002B070BDC8
:102BB0008CA3002094A3002044A3002038A300206D
:102BC00010A400203CA30020C4A30020CCA300201C
:102BD000034A044B12681B68C0E90023704700BF1A
:102BE000C8A300200CA40020F0B50D4683B0044615
:102BF000FDF768FD2B68144A591C10681DD0DFF8DA
:102C00004CC0D4E90061DCF80070BE4208D08142BB
:102C100006D801200190FDF75DFD019803B0F0BDDD
:102C2000471ABB420BD91B1A0B44DCF80010126880
:102C30002B600020C4E90012ECE70020EAE7002343
:102C40002B600120E6E700BF0CA40020C8A30020F1
:102C5000014B01221A60704710A40020094B18682C
:102C600018B9094B1B6813B1704700207047074A19
:102C7000074B10681B68013B984214BF01200220DB
:102C8000704700BFCCA3002010A40020E4A30020C4
:102C900080A30020054B1B6833B1054B1B68002B3C
:102CA0000CBF02200020704701207047E0A30020E5
:102CB0008CA3002070B5044682B0C8B1264DC36A0B
:102CC0002A68D26A934215D28269002A04DB2A68F4
:102CD000D26AC2F103028261204E626903EB830370
:102CE00006EB83039A420ED02B68DB6AE362012075
:102CF00002B070BD2B68006CDB6A98422CBF0020CC
:102D0000012002B070BD211D0846019100F0C0FFF6
:102D1000019970B9E06A124A00EB80039B00F358F6
:102D200043B9012303FA00F0136823EA0003136098
:102D300000E00B4A2B681568D86AE062012404FAA7
:102D400000F300EB80002B4306EB8000136000F0E3
:102D50007BFF2046CCE700BF38A3002044A300201F
:102D600094A3002068B1F0B5436CC16A026C013BCA
:102D7000914283B00446436400D023B1002003B0E5
:102D8000F0BD00207047011D0846019100F080FF52
:102D90000199A8B11248134E236C3768E3620125EC
:102DA000C3F10302A26105FA03F203EB83033A4382
:102DB00000EB8300326000F047FF284603B0F0BD0F
:102DC000E26A0748074E02EB82039B00C358002BC0
:102DD000E2D101239340326822EA03023260DBE74A
:102DE00044A3002094A3002070B170B5026CC36AA4
:102DF000914238BF11468B4282B0044602D0426CE9
:102E0000012A02D002B070BD704782691D4DC162B7
:102E1000002A03EB83034269A8BFC1F1030105EB5C
:102E20008303A8BF81619A42ECD1011D084601913C
:102E300000F02EFF019980B1E06A134E012303FADE
:102E400000F2840033682044134305EB80003360B4
:102E500002B0BDE8704000F0F7BEE06A00EB80030E
:102E60009B008400EB5823B10123074E03FA00F2C4
:102E7000E8E7054E012303FA00F2336823EA020370
:102E80003360DFE744A3002094A30020044B1A68BA
:102E90001AB119684A6C01324A641868704700BF59
:102EA00038A300202DE9F0431D4EDFF87C9085B05B
:102EB0004FF000080CE0DB68DC681F68251D284621
:102EC00000F0E6FE636A20469847E369012B0AD0CA
:102ED00033681A68002AEED1124A11683160136013
:102EE00005B0BDE8F083A3693B449F42294610D357
:102EF000D9F80030002BEBD0CDE900870294FFF722
:102F0000C9FE0023D9F800001A466946FEF744FCC2
:102F1000DEE730686360246100F0A2FED8E700BFFE
:102F200014A4002018A4002048A400202DE9F04F8C
:102F3000854E864D864CDFF820928BB03368D3F8EF
:102F400000A0BAF1000F00F09A80DB68D3F800A06F
:102F5000FFF706FBFFF70CFB2A688242804600F26F
:102F60009F808245286040F2AF8000222068AAEB53
:102F70000801FFF7C5F8FFF7A3FB40B94FF08053F6
:102F8000C9F8043040BFBFF34F8FBFF36F8F206885
:102F9000002202A9FEF7D8FD0028CFD0029B002B0B
:102FA00065DB049F7B6913B1381D00F071FEFFF7EC
:102FB000DFFA2B689842804679D3029BC5F80080DF
:102FC000092BE4D801A252F823F000BFF52F00002E
:102FD000F52F0000F52F00008F2F00004530000076
:102FE00067300000F52F0000F52F00008F2F000044
:102FF00045300000039BBA693F6199182CBF01203E
:1030000000204145796055D8A8EB03039A4223D8A4
:103010007B6A38469847FB692068012BB8D10028A5
:10302000B6D00023BA690693039B0897134407930D
:10303000FFF730FE002320681A4606A9FEF7ACFB16
:103040002068A5E7039BBB6103EB080242457A6059
:103050003F6133D8002B9AD03E4B391D186800F0E1
:10306000FFFD206894E73846FDF7CAF98FE7039B18
:10307000DDE904019847029B002B88DB91E7FFF70D
:103080006FFAFFF775FA2A688242804608D8314BFA
:10309000C5F800801A681268B2FA82F2520965E730
:1030A000FFF700FFC5F80080FFF70AFB6FE7FFF7A7
:1030B000F9FE82E7434501D90028A9D03068391DBF
:1030C00000F0CEFD206863E7FFF7FAFA3268D268B5
:1030D000D2F80CB00BF104010846019100F0D8FDC4
:1030E000DBF81C000199012804D0DBF82430584695
:1030F00098474CE7DBF81800CBF810B00AEB000358
:103100004345CBF8043003D9306800F0A9FDECE763
:10311000A8EB0A03984211D82368002BE5D00023BE
:103120000693CDF81CA0CDF820B0FFF7B3FD002327
:1031300020681A4606A9FEF72FFBD6E7054B18684C
:1031400000F08EFDD1E700BF14A4002044A40020AD
:1031500048A4002018A4002000ED00E0F0B5174CB2
:1031600083B0FDF7AFFA256885B1FDF7B3FA2068A3
:1031700050B1134A134914480123CDE9003200230A
:103180004FF49672FFF720F803B0F0BD0F4F104ECA
:10319000384600F049FD304600F046FD0D4B1F60FB
:1031A0000D4B2A46102120201E60FEF7B7FA206042
:1031B0000028DAD00949FEF793FFD6E748A400209B
:1031C0004CA40020E8F202002D2F00001CA40020D7
:1031D00030A4002014A4002018A40020E0F2020073
:1031E00000B585B00346002101AA44F20100CDE9F3
:1031F0000111039300F004F805B05DF804FB00BF73
:1032000072B6094BD3F8F030DB0700D500BEBFF330
:103210004F8F0549054BCA6802F4E0621343CB6047
:10322000BFF34F8F00BFFDE700ED00E00400FA059B
:1032300072B6024A136801331360704750A400202D
:10324000034A1368013B136003B962B6704700BFBD
:1032500050A4002070B5D1B111F0030417D10F4D67
:103260000F4E104B29603070042221460E481C700E
:1032700000F066FD3278286802EB42022146D20057
:1032800000F05EFD00F04EFA20B1204670BD07242C
:10329000204670BDBDE8704000F0FCB95CA4002081
:1032A00058A4002059A4002054A4002010B44FF0CA
:1032B000704393F8E02F062A23D04FF08053D3F8C1
:1032C0003021062A00F09880CD4AD2F8883043F4A5
:1032D0007003C2F88830BFF34F8FBFF36F8F4FF08A
:1032E0001023D3F80022002AC0F29C81D3F80432C4
:1032F000002BC0F29781C34BC34A1A605DF8044BA0
:103300007047D3F8E42F1207D7D1D3F8E83F03F082
:10331000F002302A00F0C18003F0E003402B00F0FF
:10332000BC804FF07042D2F8E83F03F0F003302B3E
:1033300000F0C9804FF07043D3F8E83F03F0F0028B
:10334000302A00F0938003F0E003402B00F08E80E1
:103350004FF07042D2F8E83F03F0F003302B00F05A
:103360003C814FF07043D3F8E83F03F0F002302A7D
:1033700066D003F0E003402B62D04FF07042D2F8E9
:10338000E83F03F0F003302B00F017814FF070425C
:10339000D2F8E83F03F0F003302B00F0F4804FF058
:1033A0007041D1F8E83F03F0F003502B00F0998012
:1033B0004FF07043D3F8E83F03F0F002302A28D0F2
:1033C00003F0E003402B24D04FF07043D3F8E83FE4
:1033D00003F0F002302A04D003F0E003402B7FF426
:1033E0006CAF4FF08043D3F80024D20744BF6FF096
:1033F0000102C3F8002460E7D3F83431062B7FF4D0
:1034000063AF824AD2F83C3743F48063C2F83C375A
:103410005AE74FF080534FF07042D3F8583292F889
:10342000E01F4FF0804003F04F030629C0F8E43E50
:103430007FF443AFD2F8E43F19077FF43EAFC3E710
:103440004FF070414FF0804391F8E00F00220628C2
:10345000C3F80C21C3F81021C3F838257FF42DAF31
:10346000D1F8E43F1A077FF428AF86E74FF0805386
:103470004FF07042D3F8443292F8E01F4FF0804092
:10348000C3F342330629C0F83C357FF416AFD2F8B7
:10349000E43F18077FF411AF5AE74FF080534FF025
:1034A0007042D3F8243392F8E01F5948C3F3042341
:1034B0000629C0F840357FF400AFD2F8E43F1B077F
:1034C0007FF4FBAE2DE792F8E03F5249524848673F
:1034D000062B7FF4F2AED2F8E43F1C077FF4EDAE8A
:1034E00028E74FF080524D4BD2F80404C3F8200572
:1034F000D2F80804C3F82405D2F80C04C3F8280550
:10350000D2F81004C3F82C05D2F81404C3F830051F
:10351000D2F81804C3F83405D2F81C04C3F84005E7
:10352000D2F82004C3F84405D2F82404C3F84805AF
:10353000D2F82804C3F84C05D2F82C04C3F850057F
:10354000D2F83004C3F85405D2F83404C3F8600547
:10355000D2F83804C3F86405D2F83C04C3F868050F
:10356000D2F84004C3F86C05D2F8440491F8E02F77
:10357000C3F87005062A7FF4A0AED1F8E43F18071F
:103580007FF49BAE14E792F8E01F254B0524012041
:10359000C3F810460629C3F888064FF000044FF020
:1035A0003F00C3F81846C3F814067FF486AED2F87D
:1035B000E43F1C077FF481AEF1E692F8E03F4FF064
:1035C00080410320062BC1F8A0057FF476AED2F827
:1035D000E43F1B077FF471AED8E6094992F8E00F8B
:1035E000D1F8FC30062823F08073C1F8FC307FF45A
:1035F00064AED2F8E43F19077FF45FAEB1E600BFD6
:1036000000ED00E0040000200090D0030010004016
:103610000030014000C007400DF0ADBA00C00040CE
:1036200000500040184A0123C2F80435D2F8003493
:10363000002BFBD04FF010231521134AC3F80012C2
:10364000D2F80034002BFBD04FF0102315210E4A86
:10365000C3F80412D2F80034002BFBD000230A492F
:10366000C2F80435D1F80034002BFBD0BFF34F8FE4
:103670000649074BCA6802F4E0621343CB60BFF30C
:103680004F8F00BFFDE700BF00E0014000ED00E00C
:103690000400FA0530B5204C94F8585083B0BDBBF7
:1036A0004FF0FF304FF0FF314FF0FF33C4E900011E
:1036B0000422294604F15400C4E90233C4E9043366
:1036C000C4E90633C4E90833C4E90A33C4E90C3356
:1036D000C4E90E33C4E91033C4E91233236500F0A2
:1036E0002FFB0E4A0E4BC02182F8061340211160B9
:1036F000C3F87C51D3F87C21019201984FF000422D
:103700000121284684F85810C3F8042303B030BDC3
:10371000082003B030BD00BF60A4002000E100E03D
:1037200000600040034B93F85800003818BF012098
:10373000704700BF60A400202DE9F04186B0C14A67
:1037400000230193D2F80011012900F0CA811E461E
:10375000BC4BD3F80421012A00F0B481B94BD3F853
:103760000821012A00F09F81B64BD3F80C21012AD1
:1037700000F08A81B34BD3F81021012A00F0758143
:10378000B04BD3F81421012A00F06081AD4BD3F87F
:103790001821012A00F04781AA4BD3F81C21012AE5
:1037A00009D0A84BD3F87C21012A00F0A78106BBE1
:1037B00006B0BDE8F081D3F804231206F1D500224B
:1037C000C3F81C21D3F81C110491D3F87C11049880
:1037D000012946F080060CD1C3F87C21D3F87C2166
:1037E00005924FF0A043059AD3F81035019346F0A7
:1037F0000046954F01250024A30003F180432E428B
:1038000003F5C0434FEA45050BD0D3F8100557F830
:103810002420D3F81015C0F30420C1F3014102B1F4
:1038200090470134082CE7D1002EC1DA00224FF076
:10383000FF33CDE90223844C012502AE94F95000F8
:10384000471C38D0C0F3C20C0CF118030DEB030772
:1038500000F0070317F80C2C05FA03F31A42C1B263
:1038600000F03F0027D02218890992F9302054F83F
:103870002280B8F1000F00F09581032900F09581B6
:10388000820002F1A04217F8147CD2F800C71F4052
:10389000CCF3014C0BD0BCF1020F0CD1032900F08A
:1038A000B7810027B8F1000F06D0C04704E0BCF193
:1038B000030F00F09B81002794F95100411C33D085
:1038C000C0F3C20E0EF118030DEB030C00F007035A
:1038D00005FA03F21CF80C3C1342C1B200F03F00A1
:1038E00022D02318890993F9303054F82380B8F195
:1038F000000F00F07281032900F07281830003F150
:10390000A04E1CF814CCDEF800371CEA020FC3F3FB
:10391000014300F03181022B06D1032900F07B81A5
:10392000B8F1000F00D0C04794F95200421C33D0C8
:10393000C0F3C20E0EF118030DEB030C00F00703E9
:1039400005FA03F21CF80C3C1342C1B200F03F0030
:1039500022D02318890993F9303054F82380B8F124
:10396000000F00F03181032900F03181830003F161
:10397000A04E1CF814CCDEF800371CEA020FC3F38B
:10398000014300F0E380022B06D1032900F04681B9
:10399000B8F1000F00D0C04794F95300431C33D056
:1039A000C0F3C20E0EF118030DEB030C00F0070379
:1039B00005FA03F21CF80C3C1342C1B200F03F00C0
:1039C00022D02318890993F9303054F82380B8F1B4
:1039D000000F00F0F080032900F0F080830003F175
:1039E000A04E1CF814CCDEF800371CEA020FC3F31B
:1039F000014300F09180022B06D1032900F01181D0
:103A0000B8F1000F00D0C047002F3FF4D1AE4FF007
:103A1000A043019AD3F810359A423FF4C9AE029AF6
:103A2000019303920AE7D3F8042351067FF5B4AE5D
:103A30000022C3F81821D3F818310493049B46F0F0
:103A40004006A9E60060004060A40020D3F80423EB
:103A500090067FF59BAE0022C3F81421D3F81431F1
:103A60000493049B46F0200690E6D3F80423D40682
:103A70007FF586AE0022C3F81021D3F810310493ED
:103A8000049B46F010067BE6D3F8042315077FF568
:103A900071AE0022C3F80C21D3F80C310493049BBF
:103AA00046F0080666E6D3F8042357077FF55CAEB8
:103AB0000022C3F80821D3F808310493049B46F090
:103AC000040651E6D3F8042392077FF547AE00229F
:103AD000C3F80421D3F804310493049B46F0020692
:103AE0003CE6D2F8046316F001063FF431AEC2F8AA
:103AF0000031D2F800310493049B29E600224FF0F4
:103B0000A041C3F87C210592059BD1F810350193A3
:103B1000002E3FF48BAE6AE6032B7FF475AF0329CA
:103B20007FF46EAF4FF40032DEF8003723F44033F9
:103B3000CEF80037DEF800371343CEF80037B8F17F
:103B4000000F3FF464AF0137FFB25CE7032B7FF453
:103B500023AF03297FF41CAF4FF40032DEF80037A7
:103B600023F44033CEF80037DEF800370137134333
:103B7000FFB2CEF800370BE7032B7FF4D5AE032955
:103B80007FF4CEAE4FF40032DEF8003723F440333A
:103B9000CEF80037DEF8003701371343FFB2CEF816
:103BA0000037BDE603297FF486AE16F80C201A43D1
:103BB00006F80C2064E603297FF426AF16F80E30D1
:103BC000134306F80E3009E703297FF4E5AE16F833
:103BD0000E30134306F80E30C8E603297FF4A4AE76
:103BE00016F80E30134306F80E3087E603297FF4EB
:103BF00059AE4FF40037D2F8003723F44033C2F8FF
:103C00000037D2F800373B43C2F80037012749E6B6
:103C10004FF44037EFE74FF44032B5E74FF440320E
:103C20009CE74FF440327FE700F108034FF0FF318B
:103C30000022C0E90131C0E903330260704700BFD0
:103C400000230361704700BF43684B609A688A6035
:103C5000516099600861036801330360704700BFD9
:103C600030B40D686B1C10D000F108031C465B6873
:103C70001A68AA42FAD94B6099608C606160086149
:103C80000368013330BC0360704704696368F2E77E
:103C9000D0E9011203698A60416851605A68824222
:103CA00004BF82685A60002202611A68013A1A60F1
:103CB0001868704708B5074B044613B10021AFF3ED
:103CC0000080054B1868836A03B19847204600F0CE
:103CD0003FF800BF00000000F0F2020070B50D4D8B
:103CE0000D4C641BA4100026A64209D10B4D0C4CB0
:103CF00000F030F8641BA4100026A64205D170BD68
:103D000055F8043B98470136EEE755F8043B9847D1
:103D10000136F2E7680000206800002068000020FB
:103D2000700000200A44914200F1FF3300D1704737
:103D300010B511F8014B03F8014F9142F9D110BDB4
:103D400002440346934200D1704703F8011BF9E790
:103D5000FEE700BFF8B500BFF8BC08BC9E46704740
:103D6000F8B500BFF8BC08BC9E4670474D41494EAF
:103D700000000300020304FF00FF00FF00FF00FF3C
:103D800000FF00FF00FF00FF00FF00FF00FF00FF3B
:103D900000FF00FF006602ED04EC05EA07E809E613
:103DA0000AE50CE30EE110DF12DE12DD14DB16D99A
:103DB00018D71AD51BD41DD30D030ED10D050ECF68
:103DC0000E050FCD0F050FCC100510CA110511C837
:103DD000120512C6130513C5130513C4140514C226
:103DE000150515C0170317BE33BC34BB36BA37B838
:103DF00039B63BB43CB33EB140AF09022E0108AD29
:103E000009042C0308AC08062A0507AB0906290695
:103E100008A90B0529050AA70D032B030CA54CA324
:103E20004DA24FA0519F529D549B559A5798599619
:103E30005B945D935D925F90618E638C658A668909
:103E40006887080259020586070457040584080597
:103E5000550605820906540605810A055505077FA2
:103E60000C045603097D747B7679777978777A75B7
:103E70007C737E717F70816E836C856B86698768C9
:103E800089668B648D628F609060915E935C955AB9
:103E90000E0771070A580D0B6D0B08570E0C6C0CB2
:103EA00008550F0C6C0B0A53110A6D0B0B529F50E7
:103EB000A04FA24DA44BA649A848A8FF00E344ADDB
:103EC00043AE41B040B13EB23EB33CB53AB739B86B
:103ED00037B936BB350E0166013C0109330E0315B7
:103EE000050E0416150D0311050E04120309310FFA
:103EF0000414060D0416150D0410050E0412040911
:103F0000300F0414060D0416150D0410060D0412CE
:103F100004092F100414070C0416150D0410060DC7
:103F20000412040A2D110414070C0416041E0410B4
:103F3000070C0412040B2C110414080B0416041EA5
:103F40000410070C0412040C2A120414080B0416A3
:103F5000041E0410080B0412040D28130414040199
:103F6000040A0416041E04100401030B0412040DB9
:103F7000281304140401040A0416041E0410040186
:103F8000040A0412040E261404140402040904167C
:103F9000041E04100402030A0412040F241504145E
:103FA000040204090416041E041004020409041285
:103FB000041023150414040304080416041E04103A
:103FC0000402040904120411211604140403040851
:103FD0000416041E0410040304080412041120171C
:103FE0000414040403080416041E04100403040843
:103FF000041204121F170414040404070416041EF8
:10400000041004040308041204131D180414040506
:1040100003070416130F0410040404070412041405
:104020001B1A0314040504060416131003100405D8
:104030000307041303151A1B0115040603060416CF
:1040400013110111040504060414011619320406A3
:1040500004050416132304060306042C173304076F
:1040600003050416043204060405042D161D01156B
:1040700004070404041604200111040703050414B2
:104080000119141D0314040704040416041F03106B
:104090000407040404130319121D04140408040380
:1040A0000416041E04100408030404120419121D4B
:1040B0000414040804030416041E04100408040372
:1040C0000412041A101E0414040903030416041E27
:1040D0000410040804030412041B0E1F0414040932
:1040E00004020416041E0410040904020412041C31
:1040F0000D1F0414040A03020416041E041004090C
:1041000004020412041D0B200414040A0401041602
:10411000041E0410040A03020412041D0B200414DC
:10412000040B03010416041E0410040A0401041203
:10413000041E09210414040B0816041E0410040BA9
:1041400003010412041F07220414040C0716041EA2
:104150000410040B0812042006220414040C071691
:10416000041E0410040C0712042104230414040D7B
:104170000616041E0410040C071204210324041460
:10418000040D0616041E0410040D06120422022457
:104190000414040D0616041E0410040D061204482F
:1041A0000315040E0516041E0311040D0612034A1E
:1041B0000166013C01FF00FF00FF00FF00FF00FF60
:1041C00000FF00FF0010110F090F0409040D0F8BF1
:1041D000110F090F0507050D0F8B110F090F0507AB
:1041E000050D0F92031903120605060D039E031910
:1041F00003120605060D039E031903120605060D9C
:10420000039E03190312030103030301030D039E1D
:1042100003190312030202030202030D039E031992
:104220000312030203010302030D039E0319031289
:10423000030203010302030D039E03190312030388
:104240000503030D0D940319031203030503030D66
:104250000D940319031203040304030D0D940319B1
:10426000031203040304030D039E03190312030541
:104270000105030D039E0319031203050105030D38
:10428000039E03190312030B030D039E031903126C
:10429000030B030D039E03190312030B030D039E6F
:1042A00003190312030B030D039E03190312030BDF
:1042B000030D039E03190312030B030D0F92031644
:1042C000090F030B030D0F920316090F030B030DC8
:1042D0000FFF00FF00FF00FF00FF00FF00FF00FFD7
:1042E00000FF00FF00FF00FF00FF00FF00FF00FFD6
:1042F00000FF00FF00FF00FF00FF00FF00FF00FFC6
:1043000000FF00FF00FF00FF00FF00FF00FF00FFB5
:1043100000FF00FF00FF00FF00FF00EC3DB8F39638
:1043200000000000200000007CAF02000000000040
:10433000010000000000000000000000000001205B
:10434000A5420200CD420200CF420200D14202004B
:10435000D3420200D542020000000000000000002D
:104360000000000000000000B1DC0000D9420200A3
:1043700000000000D1DC0000DD42020029450200FF
:1043800061880000DF42020001880000DF42020075
:10439000DF420200D5490200C54E0200DF420200A2
:1043A000DF420200DF42020079880000DF420200A3
:1043B0006D880000DF420200DF42020085880000B5
:1043C00031DD0000DF420200DF420200DF42020076
:1043D000DF420200DF420200DF420200DF42020051
:1043E000DF420200DF420200DF420200DF42020041
:1043F000DF4202000000000000000000DF42020077
:10440000DF420200DF420200DF420200DF42020020
:10441000DF420200DF420200000000000000000056
:10442000000000000000000000000000000000008C
:10443000000000000000000000000000000000007C
:10444000000000000000000000000000000000006C
:10445000000000000000000000000000000000005C
:10446000000000000000000000000000000000004C
:10447000000000000000000000000000000000003C
:10448000000000000000000000000000000000002C
:10449000000000000000000000000000000000001C
:1044A000000000000000000000000000000000000C
:1044B00000000000000000000000000000000000FC
:1044C00000000000000000000000000000000000EC
:1044D00000000000000000000000000000000000DC
:1044E00000000000000000000000000000000000CC
:1044F00000000000000000000000000000000000BC
:1045000000000000000000000000000000000000AB
:10451000000000000000000000000000000000009B
:10452000000000000000000000000000000000008B
:1045300000000000000000000000000010B5054C65
:10454000237833B9044B13B10448AFF3008001233F
:10455000237010BDF801002000000000982D03001A
:1045600008B5034B1BB103490348AFF3008008BDF6
:1045700000000000FC010020982D0300A3F5803A04
:10458000704700BF174B002B08BF134B9D46FFF72A
:10459000F5FF00218B460F461348144A121A22F0E9
:1045A000D9FF0E4B002B00D098470D4B002B00D0AD
:1045B00098470020002104000D000D48002802D07B
:1045C0000C48AFF3008022F045FE2000290000F0E7
:1045D0004DFB22F02BFE00BF000008000000000091
:1045E0000000000000000120F80100208CE70020FE
:1045F000000000000000000000F028B800F0A4B89F
:1046000000F0C8B810B50F4B1A461B688342FBD3A5
:1046100054681119884201BF416810460919516058
:1046200041684418A34208D1074C2468A34204D02F
:104630005B680B44436013681B680360904218BFBB
:10464000106010BD24A20020140200202DE9F041CA
:1046500004461EF015F93649364D0B680BBB364A39
:10466000364E50071FBFD01D20F0070002F5204333
:104670001B1A14BF02464FF420431344083B23F097
:104680000703002070603260C3E90000981AC2E995
:1046900000300B602A4B18602A4B18604FF0004323
:1046A0002B602F68274207D01EF0A0F900F0F2F926
:1046B00000263046BDE8F081002CF5D004F1080357
:1046C00062071CBF23F007030833002BECD0DFF890
:1046D0007480D8F800509D42E6D3184A1468606888
:1046E000984201D2206800BB0968A142DCD0216851
:1046F000166811606268D21A102A06F1080604D9F9
:10470000E01842606360FFF77DFF0D49626808684A
:10471000AD1A17430023854267602360C8F8005034
:1047200038BF0D601EF062F9C3E722460446D6E7A3
:104730001402002018A200201802002024A2002049
:1047400020A200201CA2002010B50446E0B10F4AB0
:1047500050F8043C1268134216D050F8081C99B95E
:1047600023EA020340F8043C1EF08AF8084A54F891
:10477000043C1168A4F108000B441360FFF742FFEA
:10478000BDE810401EF032B910BD00BF18A20020D5
:104790001CA200202DE9F04105460C4601B3084655
:1047A0001DB9BDE8F041FFF751BF0E4B55F8046C41
:1047B000D3F8008016EA080FF3D0FFF747FF07464B
:1047C00058B126EA0802083AA24228BF22462946E2
:1047D00022F098FE2846FFF7B7FF3846BDE8F08183
:1047E0000F46FAE718A20020014B9878704700BFE7
:1047F0002CA20020014B5878704700BF2CA200204B
:10480000034B1868B0F5803F34BF0020012070478B
:104810002CA200201FB50A4B02461860FFF7E4FFE8
:104820000390FFF7E7FFD2B2CDE90002039B054AF0
:1048300005480C2123F0A6F905B05DF804FB00BF84
:104840002CA20020A0E1020004000020009A416098
:104850008260704713B50022044601210A201CF033
:1048600085FF0023E060009308490948019423462E
:104870004FF400721DF038FE012805D0042002B06C
:10488000BDE810401EF0CABF02B010BDACE102008E
:10489000E98600002DE9F0418CB0002405460B4666
:1048A0000094104940F2A55205A806F051FA05F10E
:1048B00010064FF4F07801274FF4F072314605A846
:1048C00006F050FAA2B2CDE9016868680097F023BB
:1048D0000021013400F03FFCF02CEDD10CB0BDE81C
:1048E000F08100BFB7E102004FF6FF71FFF7D2BFC2
:1048F0002DE9F04300F1100707EE901A85B0064647
:1049000000F5F8713B46994202D003F8012BFAE713
:10491000F8EE677A9FED137A27EE877ADFED127A49
:10492000B4EEE77AF1EE10FAD8BFF0EE477AFCEE7B
:10493000E77ADC2517EE903A9CB24FEA44094FF033
:1049400001082A460135CDE901797068CDF800806B
:1049500023460021ADB200F0FEFBF02DF1D105B0F1
:10496000BDE8F0839A991940000070431FB50446D2
:10497000C822C0680DF10F011DF00EFA28B19DF894
:104980000F30032B26D00B2B30D0A3689A78FAB1C6
:10499000DA68022A2DD0032A2FD0012A18D1D3EDAC
:1049A000027A93ED017AF8EE676AB8EE477A4FF62D
:1049B000FF72C6EE877A9FED127A67EE877AFCEE79
:1049C000E77ACDED017A9DF804102046FFF790FFBD
:1049D00004B010BDA06801F059FF20B1FF212046AE
:1049E000FFF758FFD1E74FF6FF71F8E74FF4FC618E
:1049F000F5E74EF207026421E7E7FF22FBE700BF7D
:104A00000000C84210B50446FFF76EFF2046FFF7CE
:104A1000ADFFFBE71FB500238DF80710C0680393B7
:104A200003AA0DF107011DF003F9039B43B1064BE7
:104A30004FF080525A6040BFBFF34F8FBFF36F8F6C
:104A400005B05DF804FB00BF00ED00E07047704763
:104A50007047704707B5002300931A4603211EF0E4
:104A600093FE0348122103B05DF804EB05F092BCFD
:104A7000C8AC002001480A2105F08CBCC8AC00205D
:104A800010B58368044613B10322014698472046B7
:104A900010BD0000024A136801331360704700BF65
:104AA00068A90020024A136801331360704700BFF1
:104AB000C0AC002030B51C2885B005D1134805B026
:104AC000BDE8304005F08BBF00241328039419D1B2
:104AD000032915D10E4B1D681DF0E0FE03AB024605
:104AE0000094062128461EF04FFE039B43B1094B5C
:104AF0004FF080525A6040BFBFF34F8FBFF36F8FAC
:104B000005B030BD0D28FBD1034BE4E7C8AC002055
:104B1000F0A2002000ED00E0F4A2002010B5154C3A
:104B2000D4F80433580609D5D4F81831012B05D12F
:104B300000231148C4F8183100F062FDD4F80433A2
:104B4000190309D5D4F84C31012B05D100230A48AB
:104B5000C4F84C3100F03CFD064BD3F80423920717
:104B600006D5D3F80421012A04BF0022C3F804218A
:104B700010BD00BF003000409CAC0020014B1B6802
:104B8000184700BF3CA20020014B1B68184700BF1C
:104B900030A20020014B1B68184700BF38A200203C
:104BA000054B002282B0C3F80021D3F800310193F5
:104BB000019B02B0704700BF000001400B2808D0E5
:104BC0000D2804D0012801D1034B19607047034B15
:104BD000FBE7034BF9E700BF3CA2002030A2002016
:104BE00038A20020EFF3108072B600F00100704789
:104BF00000B962B6704700000048704734A2002038
:104C000010B5044C4FF0FF31204606F0F3FE436828
:104C10009847F7E734A2002008B5FFF7F1FF00003E
:104C200008B50022042120201CF0A0FD0C4B1860C8
:104C300019F02AF907F062FA10F038FF0021052078
:104C400018F0ACFF4FF4004018F000FA11F018FB18
:104C500010F0D2FFBDE80840024806F09DBE00BF3C
:104C600034A20020FD88000011F070BA73B54FF037
:104C700080440123C4F878351BF0E2FC00201BF0CF
:104C8000FBFC1BF08DFDD4F81834DB03FBD54FF093
:104C9000A04540F203632A4EC5F81C378023C5F8AF
:104CA0000835102446F00106D5F80435DA4302F041
:104CB000800203F08003C5F808254FF4A070C5F802
:104CC0000C35013CB04714F0FF04EDD10223C5F8C8
:104CD0001C371C4B0093224623460A211A481B4DC1
:104CE0001B4E1EF005FD1B4B18601B4B009322460C
:104CF0002346C82119481EF0FBFC194B1860194BBC
:104D0000D3F84005FFF786FD2B68B3420FD1D5E9F4
:104D10000223154801F098FE144805F0F3FAFFF756
:104D20007FFF1DF0CDFC0F201EF078FDFBE7104843
:104D3000104A2146121A22F00DFC2E60ECE700BF4B
:104D400090E70200598700005CE7020090E700202E
:104D50000000ADDEF4A20020398700006AE70200FF
:104D6000F0A2002000A00040A0A20020C8AC0020BB
:104D700090E70020A0E70020034653F8082B9A4252
:104D800004D081681046013122F0D1B9704700008B
:104D900010B5044600F5F660FFF7EEFF04F5F3608A
:104DA000FFF7EAFF04F5F060FFF7E6FF04F5B860EF
:104DB000FFF7E2FF04F5B560FFF7DEFF04F5B26030
:104DC000FFF7DAFF074BC4F87C3304F56770FFF791
:104DD00057FE054BC4F8E43204F53E70FFF750FE71
:104DE000204610BD88180300641803002DE9F04F19
:104DF000624B634C18689B8895B012AA12900021F0
:104E00006048ADF84C3000F0EDFA5E495E4819227A
:104E100000F056FD1A235C495C48122200F00CF9A0
:104E2000052258495A4800F04BFD5949594800F0AD
:104E3000A9F9072300934FF0C46206234FF04021E5
:104E4000554805F0FCFD54495448152204F0DDFF97
:104E500051495348182200F059FE4F495148442205
:104E600000F0AEFD504801F011FC504B4D49504848
:104E700000254FF480721A80C3E901554D4A9D7098
:104E8000DD60DD6105F0AAFF42494B4806F016FCE3
:104E900049494A4804F0BEFE4849494801F036FDF8
:104EA00025706019702200210430703522F052FB09
:104EB000B5F50C7FF5D1424E424F434DDFF82881C6
:104EC000DFF828A1DFF8F0B04FF0000904233146E5
:104ED0003846C4E98D3984F83C9204F0EFFE3B4932
:104EE000C5F80C900123C5E901992B74CDE908712F
:104EF000374907913749C8F80090A8F808900691FB
:104F0000DFF8B0902D483449059028480090CDE94D
:104F10000161CDE90A5BCDE90349234B1F4A1B49D7
:104F20005046FFF793FC224924480A90CDE90CA192
:104F30001B490991264908911A491C481A4B174ADE
:104F40000290CDE9064124490193CDE90471009214
:104F5000114B104A0B49CDF838B0CDF82C90039680
:104F60001E48CDE90F5805F082F91D4A1D491B481E
:104F700015B0BDE8F04F22F0D5B800BF7EE70200C3
:104F800024AA00209CAC002060A9002054A9002085
:104F9000E8A40020B8AC002034B800202CB80020D1
:104FA000DCA900204CA9002060A2002070A20020F3
:104FB000BCA500203CA90020F0A4002064AC002087
:104FC000A0A2002040A2002018B80020100000205D
:104FD0006CA900201CAA00205CB80020C8AC0020EE
:104FE00000000020758A000090A20020F8A2002096
:104FF000012A02D1016000207047022A04BF0B7809
:105000000370F8E7012A02D1016000207047022AEC
:1050100004BF0B780370F8E70278012393404FF048
:10502000A042C2F80C3570470278012393404FF03C
:10503000A042C2F80835704710B5437100230160E3
:105040000271837110BD006800F04ABC1FB503797E
:105050008DF80030064B0393064B02936B46FFF727
:10506000F2FF6846FFF70CFD05B05DF804FB00BFDA
:105070000D8D0000E98C000007B501228DF80710A6
:105080000DF10701FFF7E2FF03B05DF804FB00003C
:105090001FB503798DF80030064B0393064B02933E
:1050A0006B46FFF7D0FF6846FFF7EAFC05B05DF8F6
:1050B00004FB00BFFD8C0000D58C000007B5012269
:1050C0008DF807100DF10701FFF7E2FF03B05DF85F
:1050D00004FB2DE9F04104460F462A2115461E46E1
:1050E000BDF81880FFF7EAFF390A2046FFF7C4FF32
:1050F000F9B22046FFF7C0FF310A2046FFF7BCFF98
:10510000F1B22046FFF7B8FF20462B21FFF7D6FF6C
:10511000290A2046FFF7B0FFE9B22046FFF7ACFFAF
:105120004FEA18212046FFF7A7FF5FFA88F12046D3
:10513000BDE8F041FFF7A0BF37B50D462C2104466E
:105140000192FFF7BBFF019A2946204603B0BDE854
:105150003040FFF77BBFF7B5BDF82040013C144459
:10516000013B0B44A4B2DDE9096700949BB20546FC
:10517000FFF7AFFF3A463146284603B0BDE8F0409E
:10518000FFF7DABF0022016002714271827170473D
:105190007FB5B9238DF8073000230493006802AB74
:1051A00001220DF1070100F09BFB049B1BB102A93A
:1051B00003220846984707B05DF804FB10B586B097
:1051C0009F238DF80F3003230093002404AB0122AA
:1051D0000DF10F0100688DF810408DF811408DF829
:1051E000124000F088FB049B2046DAB262F307000D
:1051F000C3F3072262F30F20C3F3074363F317409F
:1052000006B010BD10B50446FFF7D8FFC0F3072362
:105210006371C0F307432071A37110BD1FB50D4B1F
:10522000039300238DF80B300123009304460DF106
:105230000B03042203A9006800F05DFB2046FFF782
:10524000BDFFC0F307232071C0F307406371A07155
:1052500004B010BDAB0102031FB50122009205236B
:105260008DF80E300DF10E010DF10F03006800F006
:1052700042FB9DF80F0005B05DF804FB08B5FFF791
:10528000EBFF00F0010008BD08B5FFF7E5FFC0F334
:10529000400008BD1FB5032400938DF80C400C0C92
:1052A0008DF80D408DF80F100C0A134603A9042247
:1052B00000688DF80E4000F01EFB04B010BD1FB555
:1052C00006238DF80F300023009301220DF10F010A
:1052D000006800F010FB05B05DF804FB1FB520234B
:1052E0008DF80C300B0C8DF80D300B0A04468DF840
:1052F0000E308DF80F10FFF7E2FF2046FFF7C4FFD6
:1053000018B901201DF008FCF7E70023206800937E
:10531000042203A900F0EFFA2046FFF7AFFF18B10F
:1053200001201DF0F9FBF7E704B010BD1FB5012205
:1053300000922B238DF80E300DF10E010DF10F03AD
:10534000006800F0D8FA9DF80F0005B05DF804FB86
:1053500008B5FFF7EBFFC0F3401008BD08B5FFF735
:10536000E5FFC0F3801008BD2DE9F043074685B086
:105370000D4690461E464FF0020986B325F0FF0405
:10538000641B04F580742B0CB4428DF80D30384644
:105390004FEA152328BF34468DF80C908DF80E3057
:1053A0008DF80F50FFF78BFF3846FFF76DFF18B9E8
:1053B00001201DF0B1FBF7E7386800944346042252
:1053C00003A900F0A4FA3846FFF758FF18B10120EE
:1053D0001DF0A2FBF7E72544A044361BCDE705B03E
:1053E000BDE8F08341711168928842810022C26059
:1053F000C0F80610026142610276704710B541693B
:10540000044621B9032201201CF0B0F96061617AE1
:105410004FF0A043012202FA01F1C3F80815617AA6
:1054200001F5E071032043F82100A17A8A40C3F816
:105430000C25A27A02F5E072002143F82200E27AFC
:1054400002F5E07243F8221063791BB1012B23D0DF
:1054500000204FE02B4B23602368627AC3F80825B5
:105460002368A27AC3F80C252368E27AC3F81025D2
:10547000237A002BECD123684FF00042C3F8242597
:10548000A3790BB1012BE3D1E1791A460329DFD8C7
:10549000DFE801F0070531344FF04023DBE743F04C
:1054A00002022368C3F8542522680023C2F8103191
:1054B0002268C2F820312268C2F8183122684021DF
:1054C000C2F8041322680220C2F8040322684FF4D1
:1054D0000020C2F8040322680720C2F800050A4A27
:1054E00082F803130821116060691A4619461CF0FE
:1054F000ABF9012010BD43F00402D2E743F00602ED
:10550000CFE700BF0030004000E100E037B503689E
:10551000D3F808551B4B1A88ADF80420027E9B78FF
:105520008DF806300446BAB901A928461BF014FAD2
:1055300008B11EF073F9002128461BF001FB284634
:105540001BF0BEFB23685A690F4BC3F81005C3F864
:1055500014250122C3F8042523680022C3F818216A
:1055600023684022C3F8082323680222C3F80823D3
:1055700023684FF40022C3F808230123237603B0E5
:1055800030BD00BF96E7020000F0014010B50446B0
:105590000368D3F80805237E2BB11BF033FB0B4BBC
:1055A0000122C3F8082522680023C2F818312268B6
:1055B0004021C2F8041322680221C2F804132268B1
:1055C0004FF40021C2F80413237610BD00F001400F
:1055D00070470368C3F844150368C3F84825026898
:1055E0000023C2F850350268C2F834350268C2F8A8
:1055F00038350268C2F840350268C2F81831704781
:1056000037B5C3688BB105698DB1FF2D28BFFF2564
:105610002A46C168FFF7DDFFC3682B44C3600369F6
:105620005B1B0361036801221A6103B030BD02797C
:10563000012393404FF0A04201A9C2F80835C5608C
:10564000406901951CF078FB019B002BEDD0054BC8
:105650004FF080525A6040BFBFF34F8FBFF36F8F40
:10566000E3E700BF00ED00E010B504680023C4F8D4
:1056700044350468C4F848350468C4F850350468F3
:10568000C4F834150168C1F838250268C2F84035FD
:105690000268C2F8183110BD2DE9F041069D04469C
:1056A00088461F461646002A4AD040694FF0FF310F
:1056B0001CF0C4FC012F84F8048020463DD1FFF784
:1056C00025FFAB6813B1EB6828469847237901257D
:1056D0004FF0A04205FA03F3C2F80C35E6602761EB
:1056E0002669E168FF2E28BFFF2632462046FFF7D5
:1056F00070FF23699B1B2361E3683344E3602368E5
:10570000AF421D6117D12268D2F81831002BFBD0AF
:1057100023794FF0A0420125002605FA03F3C2F8D1
:1057200008352046E660FFF731FF606933463246B0
:1057300031461CF089F8284603E0FFF727FFC0E751
:105740001046BDE8F08173B504460E4640690193EA
:105750004FF0FF3115461CF071FC26712046FFF713
:1057600015FF23684021C3F8081323680221C3F8FA
:10577000081323684FF40021C3F808132379012686
:105780004FF0A04106FA03F3C1F80C350023E360A3
:10579000019A236129462046FFF71BFF23681E61FB
:1057A0002268D2F81831002BFBD0DDE90612204622
:1057B000FFF75AFF236801221A612268D2F81831D4
:1057C000002BFBD0237901254FF0A04205FA03F30B
:1057D000C2F80835002360691A4619461CF034F8EF
:1057E000284602B070BD00220368D3F8001511B13D
:1057F000C3F80025F8E7427A4FF0A04302F5E072C3
:10580000022143F82210827A02F5E07243F8221056
:10581000C27A02F5E07243F822107047FFF7EEBD3E
:1058200073B504460E46406901934FF0FF311546AB
:105830001CF004FC26712046FFF7A8FE23684021D7
:10584000C3F8081323680221C3F8081323684FF430
:105850000021C3F80813237901264FF0A04106FA6E
:1058600003F3C1F80C350023E360019A2361294654
:105870002046FFF7AEFE23681E612268D2F8183179
:10588000002BFBD0DDE906122046FFF7A2FE2368BD
:1058900001221A612268D2F81831002BFBD023793B
:1058A00001254FF0A04205FA03F3C2F808350023A2
:1058B00060691A4619461BF0C7FF284602B070BD42
:1058C00010B5016002F5E0734FF0A04103240271AE
:1058D00041F82340012303FA02F2C1F8082510BD64
:1058E00007B5009313460A4601790068FFF7D4FE16
:1058F00003B05DF804FB13B5049CCDE900341346F6
:105900000A4601790068FFF71EFF02B010BD13B50B
:10591000049CCDE9003413460A4601790068FFF77C
:105920007FFF02B010BD000010B5C9031B4C13432C
:105930000139C4F80C35C4F80415D4F808354FF013
:10594000804243F00103C4F80835D2F800344FF028
:10595000FF31C2F80014DA0711D49C0711D459079B
:1059600011D41A0711D4DC0311D4990311D45A03AA
:1059700011D4C3F3C043C3F10803036010BD002377
:10598000FBE70123F9E70223F7E70323F5E7042305
:10599000F3E70523F1E70623EFE700BF000001402E
:1059A000014B01221A60704700000140024B034A7C
:1059B000C3F80026704700BF000001403546526E14
:1059C0000160027170471FB5012300938DF80F200D
:1059D0000DF10F030A460179006805F07DF905B065
:1059E0005DF804FB1FB5012300930A460DF10F0378
:1059F0000179006805F042F99DF80F0005B05DF8E7
:105A000004FB10B501210446FFF7ECFF60F07F00B6
:105A1000C2B201212046FFF7D6FF20462F22BDE863
:105A200010400C21FFF7CFBF10B501210446FFF74E
:105A3000D9FF012100F07F022046FFF7C4FF204676
:105A40000022BDE810400C21FFF7BDBF38B54FF074
:105A5000A0430025C3F878570446FFF7E5FF64200C
:105A60001DF05AF8204650220121FFF7ACFF2046D6
:105A70002F220C21FFF7A7FF204677221621FFF7E0
:105A8000A2FF2A4620461721BDE83840FFF79BBFFA
:105A900070B509210546FFF7A5FF0A2106462846ED
:105AA000FFF7A0FF0F2104462846FFF79BFF0346A0
:105AB00000F00F021B0342EA062003F440332401E6
:105AC0001843E4B2204370BD70B508210546FFF7C6
:105AD00089FF0D2106462846FFF784FF0E21044664
