:1080200000000120A54A0300CD4A0300CF4A030007
:10803000D14A0300D34A0300D54A030000000000E0
:1080400000000000000000000000000039D801001E
:10805000D94A03000000000059D80100DD4A03009E
:10806000294D0300E9740100DF4A0300897401000F
:10807000DF4A0300DF4A0300E9500300D95503003B
:10808000DF4A0300DF4A0300DF4A030001750100F5
:10809000DF4A0300F5740100DF4A0300DF4A0300F2
:1080A0000D750100B9D80100DF4A0300DF4A030063
:1080B000DF4A0300DF4A0300DF4A0300DF4A030010
:1080C000DF4A0300DF4A0300DF4A0300DF4A030000
:1080D000DF4A0300DF4A0300000000000000000048
:1080E000DF4A0300DF4A0300DF4A0300DF4A0300E0
:1080F000DF4A0300DF4A0300DF4A030000000000FC
:10810000000000000000000000000000000000006F
:10811000000000000000000000000000000000005F
:10812000000000000000000000000000000000004F
:10813000000000000000000000000000000000003F
:10814000000000000000000000000000000000002F
:10815000000000000000000000000000000000001F
:10816000000000000000000000000000000000000F
:1081700000000000000000000000000000000000FF
:1081800000000000000000000000000000000000EF
:1081900000000000000000000000000000000000DF
:1081A00000000000000000000000000000000000CF
:1081B00000000000000000000000000000000000BF
:1081C00000000000000000000000000000000000AF
:1081D000000000000000000000000000000000009F
:1081E000000000000000000000000000000000008F
:1081F000000000000000000000000000000000007F
:10820000000000000000000000000000000000006E
:10821000000000000000000000000000000000005E
:1082200010B5054C237833B9044B13B10448AFF3B0
:1082300000800123237010BDB00300200000000067
:108240009C40060008B5034B1BB103490348AFF33C
:10825000008008BD00000000B40300209C40060020
:10826000A3F5803A704700BF174B002B08BF134B94
:108270009D46FFF7F5FF00218B460F461348144A31
:10828000121A4AF0F3FB0E4B002B00D098470D4B0F
:10829000002B00D098470020002104000D000D485D
:1082A000002802D00C48AFF300804AF05FFA2000AB
:1082B00029000FF091F94AF045FA00BF00000800CC
:1082C000000000000000000000000120B0030020BA
:1082D000DCFB0020000000000000000000F028B8D7
:1082E00000F0A4B800F0D4B810B50F4B1A461B68C4
:1082F0008342FBD354681119884201BF416810467C
:108300000919516041684418A34208D1074C2468F8
:10831000A34204D05B680B44436013681B6803608E
:10832000904218BF106010BDDCA30020CC030020D9
:108330002DE9F04104462EF09FFC3649364D0B687E
:108340000BBB364A364E50071FBFD01D20F007002A
:1083500002F520431B1A14BF02464FF42043134476
:10836000083B23F00703002070603260C3E900007F
:10837000981AC2E900300B602A4B18602A4B18602B
:108380004FF000432B602F68274207D02EF02AFDC4
:108390000FF036F800263046BDE8F081002CF5D00D
:1083A00004F1080362071CBF23F007030833002B06
:1083B000ECD0DFF87480D8F800509D42E6D3184A1C
:1083C00014686068984201D2206800BB0968A14225
:1083D000DCD02168166811606268D21A102A06F192
:1083E000080604D9E01842606360FFF77DFF0D497D
:1083F00062680868AD1A17430023854267602360EE
:10840000C8F8005038BF0D602EF0ECFCC3E72246E0
:108410000446D6E7CC030020D0A30020D0030020E0
:10842000DCA30020D8A30020D4A3002010B504466C
:10843000E0B10F4A50F8043C1268134216D050F8CD
:10844000081C99B923EA020340F8043C2EF014FCFE
:10845000084A54F8043C1168A4F108000B44136066
:10846000FFF742FFBDE810402EF0BCBC10BD00BFBE
:10847000D0A30020D4A30020014B1868704700BF90
:10848000D4A30020014B1868704700BFD8A3002078
:108490002DE9F04105460C4601B308461DB9BDE87B
:1084A000F041FFF745BF0E4B55F8046CD3F8008040
:1084B00016EA080FF3D0FFF73BFF074658B126EA4C
:1084C0000802083AA24228BF224629464AF0A6FAE4
:1084D0002846FFF7ABFF3846BDE8F0810F46FAE7C4
:1084E000D0A30020014B9878704700BFE4A3002080
:1084F000014B5878704700BFE4A300200048704744
:1085000004000020034B1868B0F5803F34BF002002
:1085100001207047E4A300201FB50A4B02461860F3
:10852000FFF7E0FF0390FFF7E3FFD2B2CDE90002CF
:10853000039B054A05480C214AF0EEFD05B05DF8A5
:1085400004FB00BFE4A30020D86405000400002061
:1085500001207047012070470120704701207047BB
:108560000EF0F4BE30B5044687B04FF48C7049F07D
:10857000C7FFE36A0493E369039323690293636982
:108580000193E3680093A168D4E9002305460EF047
:1085900037FB284607B030BD0CF0AAB830B504460A
:1085A00085B0E82049F0ACFFE36A0393E3690293E6
:1085B00063690193E3680093A168D4E90023054649
:1085C0000BF060FD284605B030BD30B5044685B0DF
:1085D000902049F095FFE36903932369029363694F
:1085E0000193E3680093A168D4E9002305460CF0E9
:1085F0001DFA284605B030BD30B5044685B04FF4AD
:10860000A07049F07DFFA36A0393E3690293636955
:108610000193E3680093A168D4E9002305460CF0B8
:10862000B3FD284605B030BD37B50446D02049F02B
:1086300067FF63690193E3680093A168D4E90023AD
:1086400005460AF059FC284603B030BD30B5044653
:1086500087B0E82049F054FFA36A0493E3690393C9
:108660002369029363690193E3680093A168D4E9E5
:10867000002305460BF05EF8284607B030BD38B53C
:108680000446A82049F03CFFA26A6169054603F050
:1086900027FE284638BD38B505466C2049F030FF26
:1086A000696C044603F048F8204638BD38B50446E6
:1086B000402049F025FF626BA169054603F058FA96
:1086C000284638BD38B5044640F67C2049F018FFEE
:1086D000D4E905320546E16906F088FF284638BD31
:1086E00010B5A82049F00CFF044605F035F82046E7
:1086F00010BD38B505462C2049F002FFE96B044651
:1087000001F074F8204638BD38B50446DC2049F045
:10871000F7FEA269E16B054600F07AFF284638BDF6
:1087200038B505469C2049F0EBFE296C044602F062
:1087300035FC204638BD38B50446282049F0E0FE17
:10874000626B2169054605F011FA284638BD38B537
:108750000446302049F0D4FE6269E169054606F01E
:108760005FF8284638BD38B50546B02049F0C8FE48
:10877000296B044606F016FA204638BD30B5436929
:1087800085B004461A7C0392BC2049F0B9FEA36967
:108790000093039A636B216A054607F0BBFA2846EB
:1087A00005B030BD38B50546982049F0A9FE696B83
:1087B000044601F01BFA204638BD10B50368044694
:1087C000586B11F010FA58B1236803F5805301215A
:1087D00083F864102368BDE81040586B11F0BCB9F1
:1087E00010BD00002DE9F84FDDE90ABA1E46C0E9C8
:1087F000023B0C9B43610D9BC3610E9B03620F9B6D
:108800004362109B8362119BC362129B0363139BA1
:10881000159F4363149BC0F810A00446002500F187
:108820004408C0E90E37C0E9001285613A4604F6F3
:10883000B479404615F083F91F4A2146484614F0A2
:108840004DFD0D9BC4F8C43F0E9BC4F8C83F0F9B61
:10885000C4F8CC3F109BC4F8D03F119BC4F8D43F60
:10886000129BC4F8D83F139BC4F8DC3F04F5805337
:108870000122C4F8B86FC4F8BCBFC4F8C0AFC4F8D4
:10888000E05FC4F8E47FC4F8E89FC4F8EC5FC4F884
:10889000F04FC4F8F48FC4F8F85FC4F8FC5FC3E984
:1088A00005555A60DD601D821D775D631D6683F886
:1088B00064502046BDE8F88F2189000000F5805003
:1088C00001770262704700001FB5144C8DF8071045
:1088D000636800F58050C3F30803806893B10023F8
:1088E00003AA0DF1070103932DF09EFB039B3BB1FF
:1088F0004FF08053636040BFBFF34F8FBFF36F8F64
:1089000004B010BD9DF80720093A18BF4FF0FF32A0
:108910000DF107012DF094F9F2E700BF00ED00E042
:1089200008B52FF06BF9BDE808400A21FFF7CCBF6E
:108930000139052912D8DFE801F00703090B0D0FF3
:108940000221443015F07FB90121FAE70321F8E74D
:108950000421F6E70521F4E70621F2E77047806974
:1089600008B116F003B870478161C0F8EC1F70477A
:10897000C0F8E01F7047C0F8F81F7047C0F8FC1F30
:108980007047436A406BD96A4B1E032B28BF0321F3
:1089900011F0E2B810B50446406B11F009F9204619
:1089A000FFF7EFFFA06A14F0A7FB2068BDE81040B6
:1089B0000FF05EB910B503680446586B11F013F957
:1089C00060B1236803F58053002083F864002FF022
:1089D000F9FB2068BDE81040FFF7D3BF10BD10B50C
:1089E0000446006810B103689B689847204610BD94
:1089F000036801601BB11A681846926810477047F7
:108A00002DE9F04F0446A5B0443017460E4604F554
:108A1000805515F03FFA00202FF0D4FB0C35A06AEA
:108A200014F0D1FB00212846FFF7E2FF394620462B
:108A3000FFF77EFF731E242B00F2C481DFE813F0E2
:108A40002500510096017E007500B8009300C20118
:108A5000C201B5018501C201C201C201C201C20148
:108A6000C201C201C201C201C201C201C201880029
:108A7000D000E800F3001F0129013D013301480146
:108A8000520160016A017A0169000AABB44A0D2102
:108A90009946012792F800C050681860013983F8A0
:108AA00004C05F7102F10C0203F10803F2D1626AA3
:108AB000A368D4F83CB00892D4E9038AD420079381
:108AC00049F01EFDCDE902B9CDE9008ADDE90732A2
:108AD0002146074603F062FF39462846FFF788FF24
:108AE00060E0636ADB7C04F6B870002B00F0AE81B6
:108AF000012B00F0B781022B00F0B681032B00F0B0
:108B0000B581042B00F0B481052B40F0B381954B67
:108B10009DE104F580530C20596A079149F0F0FC5F
:108B20000799074606F02CFFD6E7242049F0E8FC19
:108B300004F14001074603F095FDCDE7E168079198
:108B4000242049F0DDFC0799074602F01DF9C3E730
:108B5000E3680C20D969079149F0D2FC07990746D0
:108B600006F0B6FEB8E7E269D4F81890D4F828A069
:108B70000792402049F0C4FC4FF00008CDE901986D
:108B8000079ACDF800A009F542732146074604F084
:108B9000B7FACDF8288028463946FFF729FF0AA8FA
:108BA000FFF71DFF04F58054267425B0BDE8F08F53
:108BB000E269D4F81880D4F828900792402049F050
:108BC0009FFC0123CDE90183079ACDF8009008F5B9
:108BD00042732146074604F093FA00230A93DAE72A
:108BE000D4E909A9A2682369D4F83480D4F80CB078
:108BF00008926820079349F083FCCDE902ABCDE9E8
:108C00000089DDE907322146074607F025FE63E7C4
:108C1000626A07926C2049F073FC079A2146074666
:108C200008F08EF858E70AAFDFF83C814FF0060AEB
:108C3000B946D8F80420D8F80C30D4F8E40F98F8E6
:108C400000B007929847079A3A60BAF1010A87F88C
:108C500004B0787108F1100807F10807E9D1636AD8
:108C6000D4F83C800793802049F04AFC079BCDF85C
:108C700000804A462146074608F0C2FA2CE7616A9E
:108C80000791702049F03CFC0799074608F0DCFB8F
:108C900022E7616A0791702049F032FC0799074684
:108CA00008F064FC18E7616A0791202049F028FC6D
:108CB0000799074608F000FD0EE7626A0792282030
:108CC00049F01EFC079A2146074608F025FE03E7F7
:108CD000616A0791182049F013FC0799074608F0CC
:108CE00041FFF9E62269636A08925020079349F030
:108CF00007FCDDE907322146074609F019F9EBE6E2
:108D0000616A0791702049F0FBFB0799074609F05B
:108D100031FCE1E6616AE26AA369099134200892B4
:108D2000079349F0EDFBDDE907320999074609F0A1
:108D300073FDD1E6626A0792782049F0E1FB079A59
:108D40002146074609F0C0FEC6E6A1680791242027
:108D500049F0D6FB0799074605F046FCBCE600BF84
:108D6000D4650500C4650500746505002269A36823
:108D70006168D4F83480D4F80C90D4F814A0D4F8F6
:108D80002CB0099294200893079149F0B9FB0799F8
:108D9000CDF80080CDE903B1CDE9019ADDE90832D3
:108DA0002146074601F086FB96E6A169626B0891B1
:108DB0002C20079249F0A4FBDDE90721074605F0C6
:108DC00027F889E62D4A03211378B3423CD0137B60
:108DD000B3420CD102F10C03294A934204F6B87055
:108DE0002DD09B689847014677E61A46ECE7137E3C
:108DF000B34202D102F11803EEE792F82430B342F5
:108E000002D102F12403E7E7013902F13003ECD18A
:108E10001B48C11A18290BD0242903D00C290BD0C8
:108E20000346D9E792F83010B142D5D002F13C03A5
:108E30001A78B242D0D00C331A78B242CCD004F6B1
:108E4000B870FFF703FCCEE71346C5E70D4B9B68F0
:108E5000984701462846FFF7CBFD636A002283F856
:108E600031209FE6084BF2E7084BF0E7084BEEE7AE
:108E7000084BECE7FFF7EAFBEBE700BFD465050022
:108E8000706605007465050084650500946505003D
:108E9000A4650500B4650500036803F580531A6EE8
:108EA0000AB1013A1A661A6E006803EB82039B6BE3
:108EB000013B052B9CBF084AD25600F5805388BF62
:108EC0000022596B09B101395963596B0B4493F86E
:108ED0002810FFF795BD00BF6E65050030B400F5A2
:108EE00080531D7C8D4211D05C6B092C05D81C442D
:108EF00084F828505C6B01345C631C6E092C05D827
:108F000003EB8404A2631C6E01341C6630BCFFF7C3
:108F100077BD000073B5002204460D460A200121EA
:108F20002CF020FE04F58056B060756204F1440018
:108F300014F076FE012D0CBF2521022100222046CF
:108F4000FFF7CCFF00230093084909480196234608
:108F50004FF448722DF0C4FC012805D0042002B063
:108F6000BDE870402EF056BE02B070BDE46405004E
:108F70002D920000F0B500F5805585B06B68039028
:108F8000012BCDE9010004465BD1EB681B7913B9D5
:108F900001A8FFF781FF39F09DFCA369064693F80D
:108FA000400B002845D12FF0F1F8636ADB68A3F588
:108FB000FA639B024FF47A72B3FBF2F3984238D310
:108FC00095F8643013B902A8FFF7F7FB00202FF0E3
:108FD000DDF8636ADB684FF47A729B02B3FBF2F34D
:108FE000984205D3A069002115F0C0FC00236B60F6
:108FF000A86832460DF103012DF0CAF8012826D1E8
:109000009DF80330122B22D8DFE813F038004D0012
:10901000210021008700D400E000F600F90059008B
:109020005F0001011E00340084007A000601040183
:10903000090195F86430002BDAD003A8FFF7BAFCD9
:10904000D6E74FF0FF36D3E702A8FFF7B6FBA36BD6
:109050001A7B2AB1E8681979026856691A7AB0470A
:10906000297F29B12A6A2046FFF738FF00232B7792
:1090700005B0F0BD03A8FFF79DFCE8E7606B10F0BA
:10908000B2FD064630B1606B10F09EFD64202DF0FD
:109090003FFFF3E720680EF021FE0C212046FFF78A
:1090A0005EFC6E60D3E720680EF025FE00202FF0F6
:1090B00089F82046FFF765FC01236B60C7E70222B1
:1090C00006212046FFF70AFFC1E76B68012B03D09A
:1090D00001212046FFF743FC2B7C082B0AD10020FE
:1090E0002FF070F8E86805F0CFFE2321A06A14F095
:1090F0002BF8ACE7012208212046FFF7EFFEF4E74A
:109100002B7C092B03D1E86806F006FD9FE70022BF
:109110000921D6E701221821EEE76B68012B96D1D1
:10912000A16B04F144070B7B0A7A0979384614F0E5
:1091300091FEA06B16F01AFE0646002887D0E8685C
:10914000036831461B69984780BB2B7C022B1CD1DE
:10915000033E042E3FF67BAF01A353F826F000BF79
:109160007B91000075910000099200004F90000073
:109170008191000001221146A3E706221921A0E7F0
:1091800000212046FFF7EBFB61E72B6E05EB830325
:109190005B6B023B042B9ABF234AD35605239E42A6
:1091A0007FF455AF01A8FFF777FE50E7384614F07B
:1091B00071FE4CE7E8680368DB68984701460028C1
:1091C0007FF445AF2B7C022BECD1DAE72B7C022B12
:1091D0003FF43DAF072B08D1012202212046FFF7C3
:1091E0007DFE00232B666B6331E7192B01D105222D
:1091F000F3E702221146F1E70122032161E72B7C0C
:10920000063B012B7FF623AF0222072159E70222FA
:10921000042156E71921B4E7002202216CE703A8D4
:10922000FFF7C8FB0F2161E76965050010B504462B
:10923000FFF7B0FB2046FFF79DFEFBE7C068036821
:109240001B681847704700207047002070470020B7
:10925000704708B538F04CF9BDE808402EF07ABFE9
:1092600010B5064B03600446006939F0F1FAFFF7C8
:10927000F0FF2FF033FF204610BD00BF7C660500D5
:1092800010B50446FFF7ECFF2046882149F027F986
:10929000204610BD30B587B04569C16804466846B0
:1092A00010F014FC2846009940F02EFB009802AB09
:1092B000984203D00299013149F011F904F13800C4
:1092C00007B0BDE8304007F03BBA00002DE9F0439D
:1092D000044685B00127077104F11C087A48A36091
:1092E0000F9BE36004F13809206040460E46109D54
:1092F00007F006F9DDE90D12484607F0CFF90C9B9F
:10930000484683F8316007F0D9F9D4F85C90FFF74C
:10931000A0FF00266FF0070303220146009648468F
:109320002FF053FAFFF795FF314640F0F7FB39462F
:1093300060613FF0DAFD3A46606900963346314697
:109340002FF043FA404607F0DFF8DFF89481DFF8AA
:1093500094E13A4604F180092F1FA5F1080C17F893
:10936000323006F11800002B40F0A88044F820E0CD
:10937000701CC0B2062A09F8013B034640F09480F5
:109380001830524B44F82030FFF763FF00213BF0C8
:10939000BBFF04F16001A0613BF00EFEA76938F04D
:1093A000A7F838F0ABF8064638F0A2F838F0B6F86F
:1093B000A6F110013C3802B209B238462FF0B3FBD7
:1093C0000A2600231A461946A06900962FF0FDF9D7
:1093D00001221146A069142330F003FCA0697F2309
:1093E0002C22012130F032FC394BA0691B88292244
:1093F000012130F010FCA0697F2342F22C020121F0
:1094000030F024FC334BA0691B8842F22902012171
:1094100030F001FC0023A06903901946102230F0BF
:10942000E0FB002319460398112230F0DAFB0023F9
:1094300019460398122230F0D4FB002319460398F2
:10944000132230F0CEFB3346A0691422002130F005
:10945000C8FB0026B1B2A06903914FF480723BF0C3
:10946000E6FF2B7903990BB16B791BB9A069202218
:109470003BF0DDFF0136062E05F10805EAD1A369B0
:1094800015495C64A0692EF0F1FF2346032241F2E6
:109490008831124839F096F920612046FFF7FAFE2C
:1094A000204605B0BDE8F083032A01BFB01C183385
:1094B000C0B244F823800132064650E75CF832100F
:1094C00044F8201054E700BF7C66050089BC050005
:1094D00070660500726605000D950000E9940000B5
:1094E000CA690500DB390600C068FFF7D3BE10B5B6
:1094F00083698B42044608D18318806893F88010F2
:109500000122FFF7DBF90023237110BD102938B5C4
:10951000044609D1456C2EF0F9FF21460268284621
:10952000BDE83840FFF7E3BF38BD000010B5054B7C
:109530000360044637F0DCFF2EF00CFE2FF0CEFD6A
:10954000204610BDA466050010B50446FFF7EEFFE7
:109550002046DC2148F0C3FF204610BD13B54B1F49
:1095600004460431ADF80030ADF80410531F806894
:10957000ADF8023004320021ADF8062014F063FB90
:10958000A06804F11002694614F089FB012002B0C2
:1095900010BD0000062908B535D190F8DA30013346
:1095A00003F0070380F8DA30013B062B05D8DFE82B
:1095B00003F01316191B1E21240041F6F873A0F8BE
:1095C000D83000F1D80100F110038B4217D0B0F869
:1095D000D82023F8022BF8E748F20503EFE70B4BFE
:1095E0001B88ECE7F823EAE7084B5B88E7E7074BC3
:1095F0009B88E4E74FF4F853E1E70023DFE7C06816
:10960000232113F0A1FD012008BD00BF94660500D1
:10961000012303710B4B03600B4B1B88A0F8D83060
:109620000223C0E9021280F8DA3000F1D80100F11B
:109630001003994204D0B0F8D82023F8022BF8E7A1
:10964000704700BFA46605009466050001207047BE
:109650001E2A70B50446154603D80122E069002190
:109660000FE037F045FF37F059FF1E38A8420DDCF8
:10967000E66937F03DFF37F051FF3D3802B2002177
:1096800030462FF05FF8E581012070BDA5F11E0284
:1096900012B2E3E708B537F02BFFBDE808402EF023
:1096A00059BD000010B5064B03600446806A39F0CE
:1096B000CFF8FFF7EFFF2FF011FD204610BD00BFE0
:1096C000D066050010B50446FFF7ECFF20462C21BC
:1096D00048F005FF204610BD70B5038A90F91410BC
:1096E00090F915201944438A1A44044609B212B26B
:1096F00001824282006A2FF025F8B4F91250012D40
:1097000049DC637D5B426375B4F9105037F0F0FEBD
:1097100037F0F4FE237BC01A0138854212DB237D2B
:109720005B42237549F034FC032390FBF3F303EB16
:109730004303C31A607D013B03445BB2052B34DD58
:109740000523637594F9141000291DDAB4F910008B
:10975000042819DC227B93105B42984229DBE389C1
:10976000B4F9125003F11E00A0EB920085424FEABB
:10977000920609DC1E3B9B1A33449D4204DBE38ABC
:10978000494221750133E382E28AA0691649BDE8A6
:10979000704040F02BB937F0ABFE37F0BFFE237BB3
:1097A000C01A02388542ACDAAEE75A1DB8BFFB23B7
:1097B000C7E76FF0010353439842E5DC37F098FEAA
:1097C00037F09CFE237BC01A00EBD0704010208243
:1097D00037F08EFE37F0A2FE237BC01A00EBD0706C
:1097E000401060820023CEE7BC660500564B2DE991
:1097F000F34103601023012603731E238160C3819C
:109800000671044637F074FE37F078FE237BC01AE9
:1098100000EBD0703041208237F06AFE37F07EFED8
:10982000237BC01A00EBD07040F2023330416361F9
:109830006082FFF72FFF00212FF0D0F9606207460A
:1098400037F056FE37F05AFE054637F051FE37F036
:1098500065FEA919024609B238462FF064F9606A1C
:1098600000224FF0FF312EF06DFF00230025606ACB
:109870003246194630F0B5F9606A2B46294629224E
:1098800030F0C9F9314B606A1F8829463B463922BE
:1098900030F0C1F9334630222946606A30F0A1F930
:1098A000FFF7F8FE294640F039F9294BA06148F24C
:1098B0008E02294630F0E4F92649A06940F0BDF84F
:1098C000D4F81880FFF7E6FE0A230146022200932F
:1098D00040462B462EF079FFFFF7DCFE29462FF09D
:1098E0007DF93B46E0612946292230F094F92B4668
:1098F000E0693246294630F074F93C22E0690421DF
:109900002FF011F9FFF7C6FE29462FF067F93B4605
:1099100020622946292230F07EF9206A47F6FF733B
:109920003246294630F05DF9227B206A11462FF03D
:10993000FAF8234603221421074838F043FFA062B7
:10994000204602B0BDE8F081D0660500C66605007D
:1099500084010020C16605003D92000008B537F083
:10996000C7FDBDE808402EF0F5BB000010B5084B60
:1099700003600446D0F8940038F06AFF0D21A06817
:1099800014F0F4FFFFF7EAFF2FF0A8FB204610BD0C
:109990003867050010B50446FFF7E8FF2046982118
:1099A00048F09DFD204610BDF7B5C668012E04465F
:1099B00044D145692DF068F92369ED1A236F04EB52
:1099C000830328446425D86168433C21800AB0FBA6
:1099D000F5F3B3FBF1F205FB130501FB123341F282
:1099E0007072B0FBF2F2B2FBF1F701FB17222449CF
:1099F000B0FBF1F058B92349606F3FF0F7FF2249FF
:109A0000A06F2A4603B0BDE8F0403FF0EFBF1F490A
:109A1000009313460246606F3FF0E8FF94F8901001
:109A20000029ECD11A4B606F48F28E0230F028F911
:109A3000606F2FF064F884F89060E0E7022E1DD18B
:109A40002DF022F9A369834218D200F58060A0614D
:109A50000021606F2FF0DAFB50B92021606F30F0E9
:109A6000A3FD2021A06F03B0BDE8F04030F09CBD05
:109A70000021606F30F098FD0021F3E703B0F0BDE6
:109A8000407E0500206C0500D7850500D0870500C5
:109A90008401002010B54FF0F80304462922D0F8C5
:109AA0008000002130F0B7F8094BE06F1B882922B5
:109AB000002130F0B0F8D4F8840006493FF0BDFF33
:109AC000D4F888000449BDE810403FF0B6BF00BF9D
:109AD00028670500E8660500EC66050013B5044636
:109AE0000021406F30F060FDA06F002130F05CFD80
:109AF000124BE06F1B8801932922002130F08BF874
:109B0000019BD4F880002922002130F084F8D4F899
:109B100084000B493FF091FFD4F8880009493FF0D9
:109B20008CFFD4F88000002130F03EFDD4F888008E
:109B3000002102B0BDE8104030F036BD2A670500B4
:109B4000F0660500F466050010B504462021406F5C
:109B500030F02AFDA06F202130F026FD1C4BE06F75
:109B60001B882922002130F056F81A49606F3FF017
:109B700064FF1949A06F3FF060FF94F8903063B123
:109B8000164B606F48F28E02002130F079F8606F5A
:109B90002EF0B5FF002384F89030D4F88C001049E3
:109BA0003FF04BFFD4F884000E493FF046FFD4F855
:109BB00088000D493FF041FFD4F88000202130F0AB
:109BC000F3FCD4F888002021BDE8104030F0ECBC54
:109BD0002867050048840500C3660500B801002019
:109BE00089BC0500E8660500F4660500F7B5684B1A
:109BF000036000250127C0E9055507718160C56034
:109C0000056780F890500446FFF7A8FE29463AF011
:109C1000EDFFE0674464E06F5E492EF027FCE06FE3
:109C2000502273212EF07FFFE66FFFF797FE2B4641
:109C300006220146009530462EF0C7FD2946E06F0A
:109C40003FF06CFFC4F88400FFF788FE29463AF025
:109C5000CDFFC4F880004464D4F880004E492EF053
:109C600005FCD4F88000502273212EF05CFFD4F85C
:109C70008060FFF773FE2B460422014600953046B4
:109C80002EF0A3FD2946D4F880003FF047FF2021A5
:109C9000C4F88800D4F8800030F086FCD4F888003E
:109CA000202130F081FCFFF759FE29463FF036FFB6
:109CB0003A4BC4F88C001E8848F289023346294684
:109CC0002FF0A9FFD4F88C0035493FF0B6FED4F848
:109CD0008C0039463FF0CCFED4F88C0039463FF07A
:109CE00004F9D4F88C00F0212EF066FFD4F88C70C3
:109CF000FFF734FE6FF04F0305220146009338460C
:109D00002B462EF062FDFFF729FE29463FF006FFA5
:109D10002449A0673FF091FEA06F334629464AF2DE
:109D200089022FF078FF2B46D4F88C10A06F009595
:109D30000A222EF04AFDFFF711FE29463FF0EEFE03
:109D4000194B606748F28E0229462FF099FF606F29
:109D500016493FF072FE606F334629464AF2890287
:109D60002FF059FFD4E91D012B460A2200952EF051
:109D70002CFD2046FFF7E8FE2346032214210C4861
:109D800038F020FDC4F89400204603B0F0BD00BFB9
:109D9000386705003F9E0000259F00002C670500E6
:109DA000CA690500C3660500B801002048840500A3
:109DB0003D92000010B50446FFF7C6FE0023E360A5
:109DC0006361236710BD10B50446FFF787FE2CF0D2
:109DD0005BFF01232061E360A0680E21BDE8104015
:109DE00014F0C4BD10B50446FFF754FE00232361F0
:109DF000236F04EB8303DB6963612CF045FF0223CF
:109E000000F58060A061E360A0680D21BDE810400E
:109E100014F0ACBD10B5C468012C03D1FFF7E2FF0C
:109E2000204610BD0020FCE7C36833F0020201D1D8
:109E3000FFF7C9BF012B01D1FFF7D4BF7047062937
:109E400002D1406CFFF7F0BF704700002DE9F041F0
:109E5000C368012B8AB0044650D12D49D0F88C003C
:109E60002C4E2D4FDFF8B8803FF04EFD236F0133AD
:109E7000142BA8BF14232367023B226F9A4244DDB0
:109E8000002B03F1010508DA244AD4F88C004FF6C0
:109E9000FF713FF077FD2B46EFE704F118036422D2
:109EA00053F8253053439B0A3C20B3FBF2F102FBED
:109EB000113CB1FBF0F200FB121141F27072B3FBE6
:109EC000F2F2B3FBF6F3B2FBF0FE00FB1E2253B935
:109ED000CDE9011C00922B464246112105A849F00C
:109EE0001BF905AAD1E7CDE90032CDE9021C2B46CA
:109EF0003A46112105A849F00FF9F2E7022B04D1E7
:109F00000AB0BDE8F041FFF755BF0AB0BDE8F081E7
:109F100089BC0500407E05000F670500CA69050081
:109F2000F8660500062902D1406CFFF78FBF704725
:109F30000172704737B50446084600213EF050FDD7
:109F40000025206011493EF091FC2B4648F2A90201
:109F5000206829462FF05FFE294620682EF03EFE3D
:109F6000082160602EF028FE6FF001036068009306
:109F7000294606222EF029FC60682B46012229463C
:109F800003B0BDE830402FF02CBE00BF586705007D
:109F90000068704770B504460D460B46006848F2ED
:109FA000A90200212FF037FE2068FF2348F2AD02FE
:109FB00000212FF04BFE60682B462922BDE870403F
:109FC00000212FF028BE000038B504460D46C1EB35
:109FD000C101642340684900B1FBF3F109B22EF0DE
:109FE000F2FD60682EF08BFD237A7BB10F2D02D934
:109FF000074B198803E0052D06D9054B59882046E3
:10A00000BDE83840FFF7C6BF024BF2E738BD00BFDE
:10A010005467050094670500034A044B002814BFE9
:10A0200010461846704700BF5067050089BC050000
:10A03000034A044B00280CBF10461846704700BF67
:10A0400089BC050096670500034A044B002814BF2D
:10A0500010461846704700BF9A67050089BC050086
:10A0600080688B6898422CBF00200120704708B59B
:10A0700037F03EFABDE808402EF06CB803460846BB
:10A0800011461847012A02D1016000207047022AB8
:10A0900004BF0B680360F8E7012A02D101600020C9
:10A0A0007047022A04BF0B680360F8E7012A02D157
:10A0B000016000207047022A04BF0B680360F8E7C4
:10A0C000012A02D1016000207047022A04BF0B68F8
:10A0D0000360F8E7012A02D1016000207047022ADC
:10A0E00004BF0B680360F8E7F7B5044628200E4666
:10A0F0001746019348F004FA019BFAB2F1B2054603
:10A1000000F00AFE2046256003B0F0BD38B50546D4
:10A1100000F15004AC4209D054F8083C103C002B2C
:10A12000F8D00322214620469847F3E7204638BD61
:10A1300070B588B00646FFF79AFF00213FF0EEFCAD
:10A14000012104463FF0D6FCFEF7D8F9134B0393E8
:10A15000134B02930025134B0490012201932046D8
:10A160000E23114900953FF041FC012120463EF0AD
:10A17000BCFEFFF77CFF2B4601462A462046009591
:10A180002EF023FB234607A805222946FFF7ACFF44
:10A19000079B3360304608B070BD00BF18680500EB
:10A1A000216805002D6805009E67050010B504466E
:10A1B0000968FFF7BDFF204610BD00002DE9F04FF4
:10A1C0000B699DB01B791593CB691B68082B96BF53
:10A1D000414ADFF818A152F823A0CB683F4A9B6B95
:10A1E000B3FBF2F702FB17334FF46162B3FBF2F8F3
:10A1F00002FB18333C22B3FBF2F902FB19330C4685
:10A2000014930646FFF733FF00213FF087FC01213E
:10A2100005463FF06FFCE16860690B694A6991F897
:10A2200000B00133DBB218930B7B16930B7A1393B8
:10A230000B792169179302F26C724B88129392B2D8
:10A2400019920FF003FD236ADFF8A4E0646AD3F8E3
:10A2500068C0CDF840E094F807E0CDF83CE0BCF1F0
:10A26000020F94F806E098BF1D49CDF838E06479F4
:10A2700094BF51F82C101B49CDF80CB0CDE90C144B
:10A2800012990991159908911499CDE90691179998
:10A2900002911399019116990091DDE91832CDE9E7
:10A2A0000A0A11492846CDE904783FF09FFBFFF7E1
:10A2B000DEFE0023014600931A4628462EF085FA5A
:10A2C0002B461BA805220121FFF70EFF1B9B3360C5
:10A2D00030461DB0BDE8F08FEC6A050080510100EA
:10A2E000106B0500366805003A68050038680500FF
:10A2F0002669050010B504460968FFF75FFF204690
:10A3000010BD00002DE9F04792B005460BA80E469F
:10A3100038F060F9FFF7ABFE00213FF0FFFB0121B1
:10A3200004463FF0E7FBB1694A7D0B7DCF7C91F895
:10A33000128091F8119091F810A009920893FEF7FD
:10A340009BF80646FEF79EF81349096807911349E2
:10A3500009680097DDE90832CDE90501CDE903A6DA
:10A360000F492046CDE901893FF040FBFFF77FFE12
:10A370000023014600931A4620462EF026FA234673
:10A380000AA805220221FFF7AFFE0A9B2B60284690
:10A3900012B0BDE8F08700BFF8BC0020A0B90020D3
:10A3A0002F69050010B504460968FFF7ABFF20468A
:10A3B00010BD000030B585B00546FFF758FE0021FE
:10A3C0003FF0ACFB012104463FF094FB20460D49D1
:10A3D0003FF033FB012120463EF087FDFFF747FEAB
:10A3E0000023014600931A4620462EF0EEF923463C
:10A3F00003A805220421FFF777FE039B2B60284664
:10A4000005B030BDCC69050010B504460968FFF7FA
:10A41000D1FF204610BD10B50446006810B1036896
:10A420009B689847204610BD38B50546084B45F84F
:10A43000683B0446FFF71BFE2EF050FE2846FFF750
:10A44000EAFF04F11000FFF761FE204638BD00BFAF
:10A45000D46A050010B50446FFF7E6FF20466C21DC
:10A4600048F03DF8204610BD38B50546064B45F886
:10A47000283B0446FFF7FBFD2EF030FE2846FFF791
:10A48000D3FF204638BD00BF286B050010B5044639
:10A49000FFF7EAFF2046942148F021F8204610BD3E
:10A4A0008A6810B504460AB948F060F8CB68984746
:10A4B000204610BD2DE9F04F044695B023611E9B48
:10A4C00063611F9BA361209BE361219B2362229B0D
:10A4D0006362294B0393294B0293294B0793294B22
:10A4E0000693294B0B93294B0A93294B0F93294B26
:10A4F0000E93294B1393294B294D12930120294B7D
:10A5000025604FF0000804F138076E46C4E90212D6
:10A5100020710094049408940C94109484F82C00F6
:10A5200004F1280AA3623D46216384F8348004F1D3
:10A53000880BB146B368C5F808803BB102223146AA
:10A5400028469847F368EB60B368AB6010355D450B
:10A5500006F11006EED10023C4F8883084F88C3060
:10A5600039460AF16800FFF79BFF4846FFF7CEFD2A
:10A57000204615B0BDE8F08FADA10000D5A00000C9
:10A58000F5A20000C1A00000A5A30000ADA000003E
:10A59000D9AC000099A0000009A4000085A000002B
:10A5A000286B0500D46A050073B5056E0446002DBE
:10A5B0003BD1042927D0052940F0918090F8640010
:10A5C000F8B104F1680629463046FEF711FAA06892
:10A5D0000221FEF7ADF994F86430013BDBB204F1DF
:10A5E000100101EB031184F8643001A8FFF758FF54
:10A5F000019901953046FEF7FBF901A8FFF70BFF23
:10A60000012002B070BD90F86430032BF8D800F13F
:10A61000680629463046FEF7EBF9A0680121FEF7EF
:10A6200087F994F864300133D8E7012D34D1022939
:10A6300020D0032953D190F864000028E1D004F120
:10A64000680600213046FEF7D3F9A0680021FEF726
:10A650006FF994F86430013BDBB204F1100101EBB7
:10A66000031184F8643001A8FFF71AFF0023019951
:10A670000193BFE790F86430032BC1D800F168065E
:10A6800000213046FEF7B4F9A0680021FEF750F92A
:10A6900094F864300133DFE7062920D190F8643064
:10A6A000032B9ABF0133DBB2002300F1680580F869
:10A6B000643000212846FEF79BF9A0680021FEF7D0
:10A6C00037F994F8641004F1100303EB011101A8A9
:10A6D000FFF7E6FE00230199019328468BE700204F
:10A6E0008FE708B52830FFF75FFF08BDF0B50746D4
:10A6F0000C4605460FCF8BB001AE0FC60FCF0FC66D
:10A700003F68376026460FCE0FC50FCE0FC53368A2
:10A710002B6001AD0FCD0FC40FCD0FC427600BB060
:10A72000F0BD2DE9F041069F0546384616461C4609
:10A730008846FFF7A3FC2246A0B131463846FFF712
:10A740009DFC28B131462846FFF7D0FFBDE8F081D7
:10A75000224641463846FFF791FC08B12146F2E710
:10A760004146F0E741463846FFF788FC0028F7D11C
:10A77000224631463846FFF781FC0028EED1E1E75A
:10A78000F0B5054606460F460FCD8BB001AC0FC4A1
:10A790000FCD0FC42B682360243E314601A8B84773
:10A7A00006F12405243E50B106F124050FCD06F133
:10A7B00048040FC40FCD0FC42B682360EDE701AC34
:10A7C0000FCC0FC50FCC0FC523682B600BB0F0BDAD
:10A7D0002DE9F04788428AB006460F4690462BD0B6
:10A7E00000F1240ABA4527D0324651464046FFF7C9
:10A7F00045FC0AF12409D0B155460FCD01AC0FC478
:10A800000FCD0FC456452B68236006D0AAEB060275
:10A81000314606F1240048F00FF901AD0FCD344662
:10A820000FC40FCD0FC42B682360CA46DAE7414638
:10A830005046FFF7A5FFF8E70AB0BDE8F08782B001
:10A840002DE9F04F8BB002F1FF3A0AEBDA7ADDF82E
:10A85000789015930646884614464FEA6A0A0D46D4
:10A860004FF0240BAA451BDD6F1C7F000BFB07F18B
:10A87000A1F12402324431444846FFF7FFFB00B106
:10A88000013F0BFB076CBCE80F000BFB05650FC518
:10A89000BCE80F000FC5DCF800302B603D46E1E757
:10A8A000E30714D4023C04EBD474B5EB640F0ED16F
:10A8B0006F1C24237F0003FB0764243C03FB056516
:10A8C0000FCC0FC50FCC0FC523682B607D1E15AFB5
:10A8D0000FCF01AC0FC40FCF0FC43B6823606F1EB6
:10A8E00007EBD7777F104FF0240AA8450AFB0564D1
:10A8F00011DA0AFB076501A92846C84758B10FCDF0
:10A900000FC40FCD0FC42B6823607B1E03EBD373E2
:10A910003D465F10E9E701AD0FCD0FC40FCD0FC469
:10A920002B6823600BB0BDE8F04F02B07047000009
:10A93000F0B5164607469E468C4614460FCE95B097
:10A940000BAD0FC50FCE0FC533682B603D460FCD45
:10A950000FC40FCD0FC42B682360DEF800300893BE
:10A960000CAD0FCD6C460FC495E80F0084E80F00C6
:10A97000ACEB070C054A0B9B4FEAAC0C02FB0CF24C
:10A9800000213846FFF75BFF15B0F0BD398EE33884
:10A990002DE9F04FA1EB000997B0B9F1240FCDE9F3
:10A9A0000B3380460E46924625DD244B4FEAA9091B
:10A9B00003FB09F9A9F1020707EBD7777F104FF0E6
:10A9C000240B0BFB07850FCD0DAC0FC40FCD0FC4AF
:10A9D0002B6823600C9B08930EAD0FCD6C460FC403
:10A9E00095E80F0084E80F004A460D9B3946404623
:10A9F000FFF725FF87B93446A2450FD90C98424688
:10AA00002146FFF73BFB28B10CAB224631464046BE
:10AA1000FFF78EFF2434EFE7013FD2E7A6EB0803F0
:10AA2000242B07DD243E0BAB324631464046FFF770
:10AA30007FFFF3E717B0BDE8F08F00BF398EE33832
:10AA40002DE9F74F04460D4617461E4600F124082F
:10AA50004FF0240A291BB1F5107F06DD47B93346B4
:10AA60002A4629462046FFF793FF03B0BDE8F08F42
:10AA7000174B00968A105A435210A5F124030AFB83
:10AA8000024241462046FFF74CFE013FC346A9461D
:10AA9000224659463046FFF7F1FAB0B9A9F1240928
:10AAA0004A4621463046FFF7E9FA0028F6D1CB4561
:10AAB00007D3294633463A465846FFF7C1FF5D465D
:10AAC000C8E749465846FFF711FE0BF1240BDFE7B4
:10AAD000398EE3382DE9F04FD7B00746FFF7C7FAB4
:10AAE000002141F0EFFE0421044641F0A6FE0A21B8
:10AAF000204641F09FFD00231022012120462FF027
:10AB000070F800231122012120462FF06AF800235B
:10AB10001222012120462FF064F800231322012184
:10AB200020462FF05EF8624B39221B880121204617
:10AB30002FF071F800225F4B1146204641F0C8FD0E
:10AB40001E220021204641F02BFF5B4B01220021F9
:10AB5000204641F0BDFD1E220121204641F020FF8C
:10AB6000564B02220021204641F0B2FD5022022124
:10AB7000204641F015FF524B03220021204641F0B0
:10AB8000A7FD05AD5A220321204641F009FF00220E
:10AB9000092128462CF002FB2426464305EB060932
:10ABA000A945804623D0474BB2105A43B2FA82F2ED
:10ABB000C2F11F025200444B49462846FFF740FFAE
:10ABC000B6F5107F404A0EDD95A92846FFF700FE36
:10ABD000DFF8F4A095AEB14509D030465146FFF7F5
:10ABE000CFFD2436F7E749462846FFF7F1FD08F187
:10ABF0000103DFF8DCA0DFF8DCB001930126019B44
:10AC0000B34249D00A2E47D04FF00009AB682F4A13
:10AC10000B2102A81FFA86F8CDE90299CDF80F9012
:10AC200048F07AFA02AB4A464146204641F050FDD0
:10AC30002B7B042B2ED8DFE803F0030327292B00FE
:10AC400052238DF8083000238DF80930012202AB21
:10AC50004146204641F03CFD02226B6841462046B9
:10AC600041F036FD2B8C132B94BF5A4652460B21D4
:10AC700002A848F051FA02AB03224146204641F0B7
:10AC800027FD01362435BAE74223DAE75323D8E714
:10AC90004423D6E74923D4E7234602A8052203210B
:10ACA000FFF722FA029B3B60384657B0BDE8F08FB1
:10ACB0001C6B0500926B0500233D0600716A0500C0
:10ACC000766A0500398EE33861A000007B6A0500D2
:10ACD000876A05007F6A050010B504460968FFF71A
:10ACE000F9FE204610BD000010B5054B0360044678
:10ACF00036F0FEFB2DF02EFA2EF0F0F9204610BDB6
:10AD0000486B050010B50446FFF7EEFF20462821EA
:10AD100047F0E5FB204610BD38B504460120207100
:10AD200004F10C0505482060A360284605F0E8FB07
:10AD3000284605F0E9FB204638BD00BF486B0500FA
:10AD40000120704708B536F0D3FBBDE808402DF070
:10AD500001BA000010B5064B03600446C06937F025
:10AD600077FDFFF7EFFF2EF0B9F9204610BD00BFC9
:10AD7000AC6B050010B50446FFF7ECFF204624211C
:10AD800047F0ADFB204610BD73B52D4B0360002589
:10AD900001260671816085610446FFF7D3FF2946CD
:10ADA0003EF0BCFE274960613EF047FE322302229E
:10ADB0002946606900932B462DF007FDFFF7C2FF7F
:10ADC000294639F029FE1E22E060C8212DF0ABFE95
:10ADD0002B46E06800952A4629462DF0F6FCE068EF
:10ADE00029464FF47A7239F0BBFE2A462946E068BC
:10ADF00039F0EEFDFFF7A6FF29463EF08FFE12491F
:10AE000020613EF01AFE206931463EF073FE206953
:10AE100031462DF0D9FA3C23D4E9031000930A22DD
:10AE20002B462DF0D2FC234603221421074837F08D
:10AE3000C9FCE0612BF028FF2062204602B070BD03
:10AE4000AC6B0500606B0500706B05003D92000067
:10AE500038B582680B49546805464FF47A73006927
:10AE6000B4FBF3F39468B4FBF3F40A2224B294FB2A
:10AE7000F2F23EF0BBFDE86821460022BDE8384012
:10AE800039F0A6BD7B6B0500014900693EF0D5BDD8
:10AE9000816B050010B50449044600693EF0CDFD04
:10AEA0002BF0F2FE206210BD946B050038B583686C
:10AEB000DD688369022D044619D0032D1DD0012DB4
:10AEC0000ED0032B1ED02BF0DFFE236AC01AB0F584
:10AED000704F04D92046FFF7DDFF0323A36138BD7F
:10AEE000012B18BF8561BDE83840FFF7B1BF022BC9
:10AEF000F5D0FFF7C9FFA561F1E7032B02D0FFF7FB
:10AF0000C9FFA5612BF0C0FE236AC01AB0F5A05F8F
:10AF1000E5D900232371E2E708B536F0E9FABDE888
:10AF200008402DF017B9023938B50446032933D843
:10AF3000DFE801F02B300214406900212DF07CFC89
:10AF4000A06900212DF078FC206901212DF074FC0E
:10AF5000A06801212DF070FC012514E000692EF09D
:10AF600029F9054678B1206900212DF065FCA0681B
:10AF700000212DF061FC606901212DF05DFCA069CC
:10AF800001212DF059FC284638BD0321E06B10F05B
:10AF90008DFCE1E70421F9E70025F4E7C54B2DE935
:10AFA000F341036000F148030025036400F16003EE
:10AFB00000F134060127C0E9163500F17803044694
:10AFC000C0E91C350771C163456480F8485080F8BA
:10AFD000605080F87850C0F88850C0F890503046E3
:10AFE00030F04EFF39463046142231F03FF8B24B74
:10AFF000DFF8F4821A883046292131F07BF87F226D
:10B000002C21304631F0BAF8FFF786FF294639F097
:10B01000EDFD60614464606941462DF027FA4C22E1
:10B02000606911462DF07FFD2B4660690095294629
:10B0300004222DF0CAFB3246606929462EF0ACFD91
:10B04000294660693EF06AFD9C493EF0F6FC3946AF
:10B0500060692DF0F1FBFFF75FFF294639F0C6FD6F
:10B06000A0614464A06941462DF000FA4C22A06919
:10B0700011462DF058FD2B46A06900952946062261
:10B080002DF0A3FB3246A06929462EF085FD294606
:10B09000A0693EF043FD8A493EF0CFFC3946A069E5
:10B0A0002DF0CAFBFFF738FF294639F09FFDA0605D
:10B0B0004464A06841462DF0D9F94C22A06811469D
:10B0C0002DF031FD2B46A0680095294604222DF075
:10B0D0007CFB3246A06829462EF05EFD2946A0681A
:10B0E0003EF01CFD77493EF0A8FCFFF715FF29460E
:10B0F00039F07CFD20614464206941462DF0B6F9A9
:10B100004C22206911462DF00EFD2B46206900953A
:10B11000294606222DF059FB3246206929462EF099
:10B120003BFD294620693EF0F9FC67493EF085FC6D
:10B13000FFF7F2FE294639F059FDE0604464E0680B
:10B1400041462DF093F94C22E06811462DF0EBFCBE
:10B150002B46E0680095294605222DF036FB324645
:10B16000E06829462EF018FD2946E0683EF0D6FC3E
:10B17000564960623EF061FCFFF7CEFE29463EF084
:10B18000CDFC1426206303213EF072FC3A460C23CA
:10B19000206B009629462DF018FB206B4C493EF0A1
:10B1A0004CFC0721206B3DF0A0FE276B36F0A0F988
:10B1B00036F0A4F9014638462DF0FEFCFFF7ACFE50
:10B1C00029463EF0ABFC0421E0613EF051FC6FF0FB
:10B1D0000C030722E069009329460C232DF0F5FAB1
:10B1E0000721E0693DF081FEE76936F081F936F02C
:10B1F00085F90C3801B238462DF0DEFC3549E0699E
:10B200003EF01BFCFFF788FE29463EF087FC042138
:10B2100020623EF02DFC0E230722206A009329466F
:10B220000C232DF0D2FA0721206A3DF05EFE276A3A
:10B2300036F05EF936F062F90C3801B238462DF07E
:10B24000BBFC2549206A3EF0F8FBFFF765FE294666
:10B250003DF0C6FB0F27A06220493DF007FB6FF0D1
:10B260000E0303222946A06A00972DF0AEFAFFF7DD
:10B2700053FE29463DF0B4FB1949E0623DF0F6FA71
:10B28000E06A00976FF02E03032229462DF09DFA05
:10B29000E06B84F83850E02110F008FB23460322CD
:10B2A0003146104837F08EFAC4F89800204602B0B4
:10B2B000BDE8F081706F05002A6C0500C46B0500C5
:10B2C000C86B0500CC6B0500D06B0500E866050077
:10B2D000D46B0500E06B0500EC6B05003C6D0500D0
:10B2E000486D05003D920000DFB30000F7B5214A2C
:10B2F000D0F8881091420346006B05DD1E4903B06B
:10B30000BDE8F0403EF099BB41F234729142D3F86F
:10B310008C301ADD4FF461643C2693FBF4F591FB0D
:10B32000F4F704FB153304FB1714B4FBF6F4CDE972
:10B33000007493FBF6F3642295FBF2FC02FB1C52B3
:10B340000E493EF053FB03B0F0BD3C26642591FB53
:10B35000F6F406FB1411019194FBF5F105FB114481
:10B3600093FBF6F2009406FB123392FBF5F705FB14
:10B370001722E5E7307005000E6C0500166C05001D
:10B38000062A10B50B46044611461ED142699A4260
:10B3900004D1E06BBDE8104010F088BA82699A428F
:10B3A00001D10521F5E78268934201D10421F0E73C
:10B3B000C26893420ED194F89410C06B31B1012150
:10B3C00010F074FA002384F8943010BD10F06EFA77
:10B3D0000123F8E702699342F7D10321D9E70A462E
:10B3E0000146406CFFF7CCBF08B542684B689A42F3
:10B3F00008D14AB10968006847F000FBB0FA80F054
:10B40000400908BD0020FCE70120FAE770B50C46B2
:10B4100051F8083B99420546006813D162681AB199
:10B42000012A0CD1237A037063682A686B600021BB
:10B43000D1542268002363601370284670BD47F022
:10B44000EDFAF1E72B6063686B6005F10806B04226
:10B45000A36818BFAA68AB6008BF002010B12060C5
:10B46000A260E6E72160E4E7034653F8082B9A421E
:10B4700004D081681046013147F031B870470000B0
:10B4800010B50E4B03600446D0F8980037F0E0F991
:10B4900004F1340030F08DFDFFF73EFD2DF01EFE6F
:10B4A00004F17000FFF7E0FF04F15800FFF7DCFF44
:10B4B00004F14000FFF7D8FF204610BD706F050073
:10B4C00010B50446FFF7DCFF20469C2147F007F843
:10B4D000204610BD70B586B0C16B00F14006044631
:10B4E000684610F067FB69463046FFF77DFF05466A
:10B4F0006846FFF7B9FF75B9E16B684610F05AFB73
:10B5000069463046FFF782FF6846FFF7ADFF216CC2
:10B51000E0693EF0F9F9E16B684604F1700610F05D
:10B5200051FB69463046FFF75FFF05466846FFF767
:10B530009BFF75B9E16B684610F044FB69463046E5
:10B54000FFF764FF6846FFF78FFF216F206A3EF028
:10B55000DBF9E16B684604F1580610F023FB6946FD
:10B560003046FFF741FF05466846FFF77DFF55B9B6
:10B57000E16B684610F016FB69463046FFF746FF60
:10B580006846FFF771FFE06B94F8945010F06DF986
:10B59000854204D0E06B10F068F984F89400E06B09
:10B5A000D4F88C5010F064F9854207D0E06B10F0AD
:10B5B0005FF9C4F88C002046FFF798FEE06BD4F8E2
:10B5C000885010F070F9854207D0E06B10F06BF9ED
:10B5D000C4F888002046FFF789FE94F89430606A2A
:10B5E00033B316493EF029FA2BF04EFBD4F89030D5
:10B5F000A0F58060984217D394F83830E06AABB178
:10B600000F493DF033F994F8383083F0010384F8A2
:10B610003830D4E922329A42A4BF002384F894300F
:10B620002BF032FBC4F8900006B070BD0549E8E786
:10B63000054906B0BDE870403EF0FFB9F066050070
:10B64000486D0500546D0500E866050008B535F045
:10B650004FFFBDE808402CF07DBD00002DE9F74309
:10B66000D1E90098184D04465627296801910846EB
:10B6700048F010FB8045424628BF0246064622B1EC
:10B680000199484647F0BAF9A0B9B04512D12B79D3
:10B69000182B95BF0D4A0E4A2260193B88BF2260C5
:10B6A000C3EB8322C3EB82031B012046A38003B0BC
:10B6B000BDE8F083013F05F10805D6D1034B2360B7
:10B6C0004FF66023F1E700BF38750500886F05006D
:10B6D000A26F050010B50C4B03600446806E37F076
:10B6E000B7F8FFF7B3FF2DF0F9FC04F14C00FFF7BA
:10B6F000BBFE04F13400FFF7B7FE04F11C00FFF7B6
:10B70000B3FE204610BD00BFF477050010B5044617
:10B71000FFF7E0FF20466C2146F0E1FE204610BD19
:10B72000012A30B403D10B78037030BC7047002A73
:10B73000FBD030BC47F072B92DE9F043794B036080
:10B7400000F124030025C36100F13C038BB0012606
:10B75000C0E90D3500F1540304460422C0E9133555
:10B7600006718161056280F8245080F83C5080F8B1
:10B77000545045666C496D4F06A80490FFF7D0FF02
:10B78000049B4FF0040804A9CDF8148002A81D7191
:10B79000FFF764FF04A8FFF767FEFFF757FF29468E
:10B7A0003DF01EF92946A0603DF03AF850221146BE
:10B7B000A0682DF0B8F90299A0683DF057F8A0688C
:10B7C00029463DF036F8BDF90C10A0683DF03CF874
:10B7D000A0682946FF2348F2AD022EF037FA3B88D5
:10B7E000A068294648F2A9022EF015FA6FF03B0333
:10B7F0002A462946A06800932B462CF0E6FFFFF767
:10B8000025FF29463EF08AF90221E0603EF030F93A
:10B81000D4F80C9035F06CFE35F070FE01464846C9
:10B820002DF0CAF9E06850212DF0CDF9E0684049CB
:10B830003EF003F9E06831463DF057FB1E232A46EF
:10B840002946E06800932B462CF0BFFFFFF7FEFE71
:10B8500029463EF063F9314620613EF009F920693E
:10B860004346294648F289022EF0D5F9314B20692A
:10B8700048F28E0229462EF003FAD4F8108035F0F3
:10B8800037FE35F03BFE014640462DF095F9206924
:10B8900029493EF0D2F8206931463DF026FB5A2373
:10B8A0002A462946206900932B462CF08EFFFFF78D
:10B8B000CDFE294639F0B0F814226061C8212DF080
:10B8C00032F96FF009036069009329462B4605227F
:10B8D0002CF07BFF6069294640F2214329222EF09B
:10B8E0009AF97B886069292231462EF094F96069C3
:10B8F0004FF4FA7139F01AF960692946642239F077
:10B900002FF960692A46294639F062F82346032256
:10B9100014210A4836F056FFA06620460BB0BDE859
:10B92000F08300BFF4770500BC6F05003275050099
:10B93000C16F050084010020CC6F05003D9200001E
:10B9400070B586B0816900F11C060446684610F0A7
:10B9500035FD69463046FFF747FD05466846FFF767
:10B9600083FD35BBA169684610F028FD6946304665
:10B97000FFF74CFD6846FFF777FD31466846FFF755
:10B980006DFE0099A0683CF071FFA068FF2348F2AB
:10B99000AD0229462EF05AF9334BA0681B88294680
:10B9A00048F2A9022EF037F9BDF90410A0683CF066
:10B9B0004BFFA169684604F1340610F006FD6946A4
:10B9C0003046FFF711FD05466846FFF74DFD75B996
:10B9D000A169684610F0F9FC69463046FFF716FD8C
:10B9E0006846FFF741FD616BE0683DF08DFFA1699E
:10B9F000684604F14C0610F0EFFC69463046FFF74C
:10BA0000F3FC05466846FFF72FFD75B9A169684646
:10BA100010F0E2FC69463046FFF7F8FC6846FFF795
:10BA200023FDE16C20693DF06FFFA069656E10F0A9
:10BA3000C2FC854216D0A06910F0BDFC00226066F1
:10BA400001B2606938F0C4FF636E60695A2BDABFD7
:10BA5000064B1B88F8232922012106B0BDE870405F
:10BA60002EF0D9B806B070BD32750500E877050034
:10BA700008B535F03DFDBDE808402CF06BBB00007B
:10BA800010B5084B03600446C06B36F0E1FE0D2193
:10BA9000606912F06BFFFFF7EBFF2DF01FFB2046F4
:10BAA00010BD00BF3C78050010B50446FFF7E8FF65
:10BAB0002046402146F013FD204610BD052903D144
:10BAC000437F0BB1002303710120704738B5037F1A
:10BAD0000446FBB12BF0D8F8A168228BB4F91850BA
:10BAE000401A4FF47043B3FBF2F2904212D993FB29
:10BAF000F5F30B44A360E37E2069013BDBB2E37600
:10BB000033B9A37EE3765A21BDE8384011F01CBB5F
:10BB10001E21F9E738BD0000F0B585B016460D4688
:10BB200003930746FFF7A4FF00213DF0F7FF039BB7
:10BB300048F28E02002104462EF0A2F80B4B48F288
:10BB400089021B88204600212EF065F839462046E0
:10BB50003DF0DAFE9DF8283000932046002332465F
:10BB600029462CF032FE204605B0F0BD32780500A3
:10BB70006A4BF7B5002501270360694B8361C0E973
:10BB80000412C0E90255077185830446FFF770FF70
:10BB9000294638F0DFF8634E20624464206A31465B
:10BBA0002CF064FC206A4FF48772294638F084F840
:10BBB000206A872138F0A7F8206ADC22282138F093
:10BBC0008BF9B4F91810206A38F0A8F8D22211467F
:10BBD000206A2CF0A8FF3946206A38F09DF9276AC0
:10BBE000FFF746FF2B4601460095384602222CF00F
:10BBF000ECFD3723216A009302224B4B4B48FFF7A1
:10BC00008BFF4B4BA0620D22014600954948FFF780
:10BC100083FFFFF72DFF294638F0E8FF6062446498
:10BC2000606A31462CF022FC2B46606A2C222946A1
:10BC30002EF00CF8606A50212CF0C5FF2B46022232
:10BC4000D4E9090100952CF0C0FDFFF711FF29464A
:10BC50003BF000F9E0624464E06A31462CF006FCF7
:10BC6000E06A322273212CF05EFFE76AFFF700FFE3
:10BC70002B4604220146009538462CF0A6FDE06ACA
:10BC80002D493BF062F8A17EE06A013989B23BF0B0
:10BC9000B1F8E06A29463BF0C3F8E06A27493BF077
:10BCA00045F82946E06A3DF039FFA27E2063244929
:10BCB0003DF09CFE2B462A46D4E90B1000952CF053
:10BCC00084FDFFF7D5FE294638F090FF6063446499
:10BCD000606B31462CF0CAFB606B322273212CF072
:10BCE00022FF666BFFF7C4FE2B4606220146009535
:10BCF00030462CF06AFD2946606B3DF00FFF11497C
:10BD0000A0633DF09AFE2346032214210E4836F02C
:10BD100059FDE063204603B0F0BD00BF3C7805004C
:10BD2000780004013DBE0000B80100200C78050039
:10BD3000EC010020107805001478050089BC05008E
:10BD400026780500E86605003D920000072A10B538
:10BD5000044607D8072A44D8DFE802F024434443C6
:10BD600043434944102A3CD1006A884209D138F043
:10BD7000EEF82E4920830246A06ABDE810403DF04F
:10BD800035BEE06A88422CD13BF02AF90130C2B2BC
:10BD9000A276206B26493DF029FE206BBDE81040BD
:10BDA0002CF0ADBE436A8B421BD12AF06DFFE168D7
:10BDB00091B1401AB0F5406F0ED24FF47041B1FB13
:10BDC000F0F109B2206A218337F0A8FFB4F91820F6
:10BDD0001649A06A3DF00AFE2AF056FF0123E060F2
:10BDE000637710BD436A8B42FBD10023F8E7436BB6
:10BDF0008B42F6D1037F83F001030377806B63B13D
:10BE00000C493DF01AFE60690E2112F0AFFD2AF0D8
:10BE10003BFF0123A060E376E3E707493DF00DFE19
:10BE200060690D21BDE8104012F0A0BD2D7805001D
:10BE300026780500F0660500E86605000A4601461A
:10BE4000406CFFF783BF642390FBF3F203FB120007
:10BE500003B2312BC8BF013210B2704708B535F0BC
:10BE600047FBBDE808402CF075B9000010B5064B43
:10BE700003600446D0F8A00036F0EAFCFFF7EEFFBE
:10BE80002DF02CF9204610BD8078050010B5044631
:10BE9000FFF7ECFF2046A82146F021FB204610BD0D
:10BEA0002DE9F04F044695B0C16806A810F01EF9C0
:10BEB00094F840209DF84830934200F0758106AE1A
:10BEC0000FCE04F110050FC50FCE0FC50FCE0FC555
:10BED00096E80300012385E8030084F8483094F8CD
:10BEE0004830002B77D094F84050002284F8482046
:10BEF000002D00F07681B4F91850D4F890009542E6
:10BF000040F35E81B5F5C87F40F35E8140F68B2338
:10BF10009D4240F35E81134694461F22022141EA6E
:10BF2000C20242EA0C2242EA4333002148F289026B
:10BF3000B4F91A70B4F91C6094F81E802DF06BFEF1
:10BF4000A3685B7C012B40F04981052305EBC50507
:10BF500007EBC70706EBC60695FBF3F597FBF3F770
:10BF600005F5486507F5486796FBF3F606F548665C
:10BF70002DB23FB236B24FF046094046D4F888A001
:10BF800004F09EF8014650463DF0BEFC4046D4F811
:10BF90008CA004F0A1F8014650463DF0B5FC2846BF
:10BFA000FFF751FFC64902464B46D4F890003DF0DA
:10BFB0001DFD3846FFF747FFC2490246D4F89400FA
:10BFC0003DF014FD3046FFF73EFFBE490246D4F86F
:10BFD00098003DF00BFDE16806A810F0BFF894F85A
:10BFE00078209DF84030934200F01E8106AE0FCEBF
:10BFF00004F150050FC50FCE0FC596E80F0085E878
:10C000000F00012384F8803094F88030002B00F07A
:10C01000C8804FF0000984F8809004F150060FCEDC
:10C0200006AD0FC50FCE0FC596E80F0085E80F00CF
:10C030009DF84050002D00F0128106A846F0CCFB80
:10C04000836903F1010806AD5FFA88F8CB46B5F9BC
:10C050000C70B5F90A60D4F89C00002F1FFA89FA19
:10C0600040F3EE80B7F5C87F40F3EC8040F68B23B9
:10C070009F42D4BF052306235246022140F0D4FC40
:10C08000002ED4F89C0040F3DF80B6F5C87F40F363
:10C09000DD8040F68B239E42D4BF05230623524603
:10C0A000032140F0C1FCA3685B7C012B0ED105236A
:10C0B00007EBC70706EBC60697FBF3F796FBF3F60D
:10C0C00007F5486706F548663FB236B2B8F1070F84
:10C0D00088BFA8F1070138468CBFC9B24146FFF7B7
:10C0E000B2FE07463046FFF7AEFE039008460DF05D
:10C0F000E5FC524603460021D4F89C0040F0E8FAE3
:10C10000A87BD4F89C6003F0DBFF52460346012174
:10C11000304640F0DDFA6C4B00211A889B78ADF870
:10C1200010208DF81230ADF814208DF81630674AC3
:10C130003B46084646F0F0FF0021039B634A064653
:10C14000084646F0E9FF331A002B00F38180801B7C
:10C1500000F150030DEB03008DF814B000F840BC63
:10C1600004ABD4F89C0000935246594B019702212E
:10C1700040F004FB039B019305AB0093D4F89C00B3
:10C18000534B5246032109F1010940F0F7FA08F137
:10C190000108B9F1050F05F106055FFA88F87FF48B
:10C1A00056AF15B0BDE8F08F002B3FF498AE06A94E
:10C1B00004F1100010F008F800283FF480AE8EE67D
:10C1C00004234FF01F0CA9E607234FF01F0C19465C
:10C1D000A5E6944604231F220521A0E64FF043095B
:10C1E000CBE6D4F888003B493DF08EFBD4F88C00B8
:10C1F00038493DF089FBD4F8900037493DF084FB85
:10C20000364BD4F890001B8848F2890229462DF05D
:10C2100002FDD4F894002F493DF076FB2D49D4F867
:10C2200098003DF071FBD6E6002B3FF4EDAE06A979
:10C2300004F1500010F001F800283FF4D7AEE3E617
:10C24000032319E7042317E7032328E7042326E73A
:10C2500050336B448DF810B003F83CBC80E71D4EA2
:10C26000D4F89C00AAB233460021039240F030FA81
:10C27000039AD4F89C003346012140F029FA039A2E
:10C28000D4F89C003346022140F022FA039AD4F8F5
:10C290009C003346032140F01BFA039AD4F89C001B
:10C2A0000123022140F0C0FB0135039AD4F89C0021
:10C2B0000123032140F0B8FB052DD1D171E700BF68
:10C2C000547805005B780500DA390600AE85050074
:10C2D0006478050089BC0500607805006A7805006F
:10C2E0002DE9F743C44B036004460126C0E902125E
:10C2F000067140220021103046F0B8FB38220021A0
:10C3000084F8486004F1500046F0B0FB84F8806087
:10C31000FFF7A4FDDFF80C8300213DF0FFFBB8F828
:10C320000070C4F890003B4648F2890200212DF0CD
:10C3300072FCB24BD4F8900048F28E0200212DF02E
:10C340009FFCAF49D4F890003DF0DEFA6FF01D037A
:10C35000009300231A461946D4F890002CF035FAC1
:10C360003146D4F890002CF02FF8FFF777FD00212C
:10C370003DF0D4FBA34BC4F89400B3F8009048F20E
:10C3800089024B46002100252DF045FC9E49D4F83A
:10C3900094003DF0B9FA6FF009031022D4E924109B
:10C3A00000952CF012FA3146D4F894002CF00CF8D9
:10C3B000FFF754FD29463DF0B1FB4B4648F2890298
:10C3C000C4F8980029462DF026FC8F49D4F898002F
:10C3D0003DF09AFA0A231322D4F89010D4F898006A
:10C3E00000952CF0F2F93146D4F898002BF0ECFFD0
:10C3F000FFF734FD29463DF091FB844BC4F88C00D7
:10C40000B3F8009048F289024B4629462DF003FC10
:10C410007D49D4F88C003DF077FA6FF009030A22C9
:10C42000D4E9230100932B462CF0CFF93146D4F800
:10C430008C002BF0C9FFFFF711FD29463DF06EFB84
:10C440003B46C4F8880048F2890229462DF0E3FBF8
:10C450006F4BD4F8880048F28E0229462DF010FC6C
:10C460006949D4F888003DF04FFA2B460A22D4E9F6
:10C47000220100952CF0A9F93146D4F888002BF060
:10C48000A3FFFFF7EBFC294640F01CFA0521C4F896
:10C490009C0040F0D2F9D4F89C00042140F0CAF886
:10C4A000D4F89C002B46392231462DF0B4FBD4F849
:10C4B0009C004B4648F2890231462DF0ACFBD4F883
:10C4C0009C002B46392202212DF0A5FBD4F89C00BC
:10C4D0003B4648F2890202212DF09DFB4C4BD4F8DB
:10C4E0009C0048F28E0202212DF0CAFBD4F89C0079
:10C4F0002B46392203212DF08EFB464BD4F89C00AD
:10C500001B8848F2890203212DF085FBD4F89C009A
:10C510002B46392204212DF07EFBB8F80230D4F8E6
:10C520009C0048F2890204212DF075FBD4F89C0090
:10C530002B46392205212DF06EFB374BD4F89C0099
:10C540001B8848F2890205212DF065FBD4F89C0078
:10C550002B46392206212DF05EFB304BD4F89C008F
:10C560001B8848F2890206212DF055FBD4F89C0067
:10C5700000952B46042229462CF027F9AEB2D4F8B8
:10C580009C003022314640F00BFAD4F89C00022384
:10C590003246012140F048FAD4F89C00012332468B
:10C5A000002140F00EFA01231946D4F89C003246CF
:10C5B00040F007FAD4F89C0001233246022140F0F3
:10C5C00000FA0135D4F89C0001233246032140F0E3
:10C5D000F8F9052DD2D1234603224FF47A71104881
:10C5E00036F0F0F8C4F8A0002046FFF759FC2046CA
:10C5F00003B0BDE8F08300BF80780500840100200F
:10C60000607805007078050089BC05007678050023
:10C61000BC02002072780500747805006E78050071
:10C620003D9200006A78050008B534F061FFBDE86E
:10C6300008402BF08FBD000010B5044B036004468A
:10C64000FFF7F2FF2CF04AFD204610BD6879050087
:10C6500010B50446FFF7F0FF2046242145F03FFFC8
:10C66000204610BDF7B5484B036001268160067176
:10C6700004460F46FFF7D8FF00213DF04FFA002592
:10C68000424B4349E060019300950E2332463DF052
:10C69000ADF92B4632462946E06800952CF095F816
:10C6A000FFF7C2FF29463DF039FA2B460C22E1681C
:10C6B000206100952CF089F8206931463DF01AFA86
:10C6C000206931463DF0D4F92069F0212CF074FA4C
:10C6D000384610F0E1FC054630B12E4920693DF0A6
:10C6E000ACF9204603B0F0BD2B4920693DF0A5F917
:10C6F000FFF79AFF294638F079FA6061446460696F
:10C70000322273212CF00FFA2B4604226069009527
:10C7100029462CF05AF8214960692BF0A7FE204BDE
:10C7200060691B88292229462DF075FA294660691F
:10C730003DF0F4F91B49A0613DF07FF9FFF774FF6C
:10C74000294638F053FAE0614464E06932227321EB
:10C750002CF0E9F9E06900952B46062229462CF0D9
:10C7600034F84FF0F8032922E06929462DF053FAF6
:10C770000A49E0692BF07AFE2946E0693DF0CEF9DE
:10C7800009492062ABE700BF687905002D68050004
:10C7900098780500BC780500EF780500DBC700003D
:10C7A0005C7905004C7905005579050010B54369A1
:10C7B0008B42044607D1062A05D1806810F074FC2C
:10C7C0000023237110BDE3698B42FBD1062AF9D106
:10C7D000A068BDE8104010F075BC0A460146406CE8
:10C7E000FFF7E4BF012A034602D101600020704731
:10C7F000022A04BFD1E90001C3E90001F6E710B540
:10C800008368044613B1032201469847204610BDB1
:10C810002DE9F047002586B0DFF858A0DFF85890E2
:10C820008560064688468561856204466F46CDE987
:10C83000028502AB93E8030087E8030094E8030055
:10C8400083E8030097E80300A268049284E80300E9
:10C85000E268C4F808A0C4F80C90184601350592A7
:10C86000FFF7CDFF032D04F11004E0D1304606B0F0
:10C87000BDE8F087E5C70000FDC800002DE9F04FD6
:10C88000062495B0544308ADDFF86C901746064671
:10C890000B4604F1060CA84601F1200E00220C2CD8
:10C8A0009CBF0EEBC401D1E9000104F1010491BF6A
:10C8B000C5E90001C5F800902A716A71A44505F127
:10C8C0000805ECD1D3E90359D3E905AB88209B686F
:10C8D000079345F015FECDE903B8CDE9019A079B12
:10C8E00000950322F9B20446FCF7F0FC30463460B0
:10C8F00015B0BDE8F08F00BF89BC050010B5044637
:10C90000D1E90012FFF7BAFF204610BD38B5054641
:10C910000D4B45F8483B044634F0EAFD2BF01AFC79
:10C920002CF0DCFB2846FDF776FD04F13000FFF724
:10C9300066FF04F12000FFF762FF04F11000FFF72B
:10C940005EFF204638BD00BF8879050010B504465B
:10C95000FFF7DCFF20464C2145F0C1FD204610BD0D
:10C9600038B50546074B45F8883B044634F0C0FD12
:10C970002BF0F0FB2CF0B2FB2846FFF7C7FF204658
:10C9800038BD00BFA879050010B50446FFF7E8FFE1
:10C990002046D42145F0A3FD204610BD2DE9F04FDF
:10C9A0008DB00361169B4361179B83611646189BEC
:10C9B000284AC3614FF001080446C0E902160D463B
:10C9C00080F80480026019996822203046F026F829
:10C9D0002146684696F83170FFF71AFF1E4B84F81F
:10C9E0008C8004F19808C4F8905004F18809C4F8C8
:10C9F000883084F8947045466E4604F1C80A4FF0BA
:10CA0000000BB368C5F808B03BB102223146284696
:10CA10009847F368EB60B368AB601035554506F195
:10CA20001006EED10023C4F8C83008EB071109F155
:10CA3000480084F8CC70FDF733FD08A8FFF7DFFE4F
:10CA400004A8FFF7DCFE6846FFF7D9FE20460DB0CC
:10CA5000BDE8F08FA87905008879050073B5056CED
:10CA60000446002D3BD1042927D0052940F09180B0
:10CA700090F84400F8B104F1480629463046FBF727
:10CA8000B7FFA0680221FBF753FF94F84430013B45
:10CA9000DBB204F1100101EB031184F8443001A86A
:10CAA000FDF7FEFC019901953046FBF7A1FF01A8B7
:10CAB000FDF7B1FC012002B070BD90F84430012BAD
:10CAC000F8D800F1480629463046FBF791FFA068E8
:10CAD0000121FBF72DFF94F844300133D8E7012DF5
:10CAE00034D1022920D0032953D190F844000028E2
:10CAF000E1D004F1480600213046FBF779FFA06839
:10CB00000021FBF715FF94F84430013BDBB204F140
:10CB1000100101EB031184F8443001A8FDF7C0FCBB
:10CB2000002301990193BFE790F84430012BC1D84D
:10CB300000F1480600213046FBF75AFFA0680021AB
:10CB4000FBF7F6FE94F844300133DFE7062920D1E5
:10CB500090F84430012B9ABF0133DBB2002300F17F
:10CB6000480580F8443000212846FBF741FFA068C3
:10CB70000021FBF7DDFE94F8441004F1100303EBF1
:10CB8000011101A8FDF78CFC0023019901932846AF
:10CB90008BE700208FE708B58830FFF75FFF08BDFF
:10CBA00008B534F0A5FCBDE808402BF0D3BA13B5A6
:10CBB0000B4604460191102200212DF012F8019B32
:10CBC0002046112200212DF00CF8019B2046122254
:10CBD00000212DF006F8019B13220021204602B00F
:10CBE000BDE810402CF0FDBF10B504460D21806952
:10CBF00011F0BCFE606910F0E6FA206B18B12CF061
:10CC00004DFA0023236310BD2DE9FF4798460E9B84
:10CC100003620F9B4362012380F8283004461646C6
:10CC200089460C9FFFF7BCFF002139F0ABFA20606A
:10CC3000054634F05DFC34F061FC039034F058FCA0
:10CC400034F06CFC03990246284600252BF06BFF5C
:10CC50002B462922206829462CF0DDFF2068294632
:10CC6000FFF7A5FF20682B46142229462CF0B9FFB8
:10CC70002B463022206829462CF0B3FF2946206835
:10CC800039F080FA994B60601B88292229462CF0E4
:10CC9000C2FF60680A21FFF78AFF6068052314223B
:10CCA00029462CF09EFF2B466068302229462CF046
:10CCB00098FF3222294660682BF044FDD4F804A086
:10CCC00034F016FC34F01AFC039034F011FC34F00C
:10CCD00025FC323802B2039950462BF024FF6068DD
:10CCE000022139F0B1FA2B462A46606800952946A0
:10CCF00039F0BFFA294620683CF010FF42469DF803
:10CD000034307B4982463CF071FE102303220093AD
:10CD100029462B4650462BF058FD294620683CF00A
:10CD2000FDFE744B48F289021B88294680462CF090
:10CD300072FFB9F1000F2ED16F4940463CF07DFEE5
:10CD4000404604213CF094FE4046B4212BF034FFD1
:10CD50001023009300231946012240462BF035FD95
:10CD6000002160683CF0DAFE012180463CF080FE44
:10CD700034F0BEFB34F0C2FB143801B240462BF055
:10CD80001BFF042F1DD0314640463CF0BDFD204620
:10CD900004B0BDE8F087494640463CF0B5FD40464A
:10CDA0003CF0B6F80A2146F00BFA202528B100F82D
:10CDB000015B0A2146F004FAF8E740463CF0F6FA37
:10CDC000BEE760686C212BF0FEFE40464B493CF00C
:10CDD00034FE606800213CF0A1FE00252B460C22A9
:10CDE0008146414600952BF0F0FC012148463CF07D
:10CDF0003FFE34F07DFB34F081FB143801B248462D
:10CE00002BF0DAFE314648463CF07EFD294620688C
:10CE100037F0ECFEA0604464A06839492BF026FB93
:10CE20004C22A06811462BF07EFE2B463A46A068A5
:10CE3000009529462BF0C9FC2946A0683CF06EFEFF
:10CE4000304960613CF0F9FD2F4BA0681B88292216
:10CE500029462CF0E0FE2946206837F0C7FE206105
:10CE60004464206926492BF001FB4C2220691146BD
:10CE70002BF059FE2B4605222069009529462BF000
:10CE8000A4FC294620693CF049FE2049E0613CF0C1
:10CE9000D4FD4FF0F8032922206929462CF0BBFE6F
:10CEA0002946206837F0A2FEE0604464E068144937
:10CEB0002BF0DCFA4C22E06811462BF034FE2B46B6
:10CEC0000622E068009529462BF07FFC2946E068A1
:10CED0003CF024FE0E49A0613CF0AFFD0D4BE06834
:10CEE0001B88292229462CF096FE50E7107A05006F
:10CEF000C0790500127A0500C6790500D3790500CE
:10CF00007DCF0000E6790500147A0500EA79050076
:10CF1000EE790500167A05001FB50023CDE902124F
:10CF2000CDE90033034A04490446FFF76DFE20466D
:10CF300004B010BDF2790500C6790500062A38B59F
:10CF400004460D460BD1406A10F03DF9A3689D429E
:10CF500006D1206A0EF00BFC002384F8283038BD7F
:10CF600023699D4203D1206A0EF01CFCF4E7E368BC
:10CF70009D42F1D1206A0EF031FCEDE70A460146F0
:10CF8000406CFFF7DBBF10B50446FFF709FE2CF03D
:10CF9000A5F8204610BD38B50568044635B12846C9
:10CFA000FFF7F1FF2C21284645F099FA204638BDBD
:10CFB00010B50B4B03600446C06B35F049FC60694B
:10CFC00010F001F90D21A06911F0D0FCFFF7E8FD88
:10CFD0002CF084F804F12000FFF7DDFF204610BD9F
:10CFE000207A050010B50446FFF7E2FF20464021F5
:10CFF00045F075FA204610BDF0B589B004460E988C
:10D00000096806680F98126807781B7807912C202A
:10D010000692059345F074FA119B0393109B0799B0
:10D020000096CDE90173DDE905320546FFF7ECFD19
:10D030002046256009B0F0BD37B504462C20CDE967
:10D04000002145F05DFADDE900210546FFF764FFA8
:10D050002046256003B030BD10B50468016044B1BE
:10D060002046FFF790FF20462C21BDE8104045F0F8
:10D0700036BA10BD37B5044600212030FFF7ECFF6B
:10D08000A0680621FBF754FCFFF78AFD00212BF076
:10D09000A5FD054634F02CFA34F030FA019034F056
:10D0A00027FA34F03BFA0199024628462BF03BFD63
:10D0B00000210B46292228462CF0ADFD012384F8DF
:10D0C000393003B030BD10B5044690F82410C06864
:10D0D0000CF088FB206B18B12BF0E0FF00232363DA
:10D0E0002046BDE81040FFF7C5BF10B50B46002233
:10D0F00009681A600446FFF7AFFF204610BD000024
:10D100002DE9F04FA7B01E46514B0360319B836160
:10D11000C0E90212329B309DC3614FF4803100237D
:10D1200081624FF00108EF31C0E90B1391460362B1
:10D1300080F8253080F82630C0E90465044680F880
:10D140000480A0F8388010460CF065FB49460AA818
:10D150000CF036FA9DF895A004F1200B09AFBAF156
:10D16000000F60D09DF8943084F824300AA80CF0A9
:10D17000B0FB06900AA80CF098FBCDE907084846DA
:10D180000CF05CFB24AB07AA0990009306A908AB3E
:10D1900005A8CDE902650197FFF72EFF05A95846BE
:10D1A000FFF7A3FF05A8FFF7F6FE84F82580329B62
:10D1B000012B2DD131980E2111F0D8FB249B042B8B
:10D1C00040D128460FF0EEFFFFF7EAFC00213CF0CB
:10D1D00055FE03232063902200212CF002FD1D4BFD
:10D1E000206B1B88992200212CF015FD0123206B58
:10D1F000942200212CF0F5FC206B022204F128017E
:10D200003CF0D0FD29F040FD0023606384F8383005
:10D21000234603221421104835F0D4FAE063204657
:10D2200027B0BDE8F08F2A4631463846FFF704FFA5
:10D2300039465846FFF759FF3846FFF7ACFE84F8E9
:10D2400025A0B4E7232128460FF07EFFBCE700BFEE
:10D25000207A05000E7A05003D9200002DE9F0418C
:10D260000429DCB0044600F0848005292DD0032970
:10D2700040F0BA8090F82550E5B190F82420C168BC
:10D2800024A80CF048FA9DF8FD60E16894F8242089
:10D2900040A80CF021FA94F82410E06884F8266085
:10D2A0000CF0A0FA56B19DF8FC3084F824302046EA
:10D2B000FFF7E0FE28465CB0BDE8F0819DF86D31D7
:10D2C000002BF4D09DF86C31EFE700235A93ADF8B2
:10D2D0006C3190F82530C16873B190F8242004A80F
:10D2E0000CF019FA702204A940A845F097FB9DF8AC
:10D2F0006D512DB90125DDE704A80CF061F9F1E7C6
:10D300009DF86C1184F82410E0680CF0AFF904F17A
:10D310002007012384F82530064600213846FFF710
:10D320009BFE0221A068FBF703FB40A80CF0D1FA9A
:10D33000239040A80CF0B9FA01362290E0682196BB
:10D340000CF07CFA636903932369029320AB019389
:10D350005AAB2090009322AA21AB23A924A8FFF75F
:10D360004BFE24A93846FFF7C0FE24A8FFF713FEA2
:10D37000A0E700235A93ADF86C3190F82530C168CE
:10D3800073B190F8242004A80CF0A6F9702204A927
:10D3900040A845F043FB9DF86D512DB9257189E7F3
:10D3A00004A80CF00DF9F1E79DF86C1184F8241035
:10D3B000E0680CF05BF94FF0010804F12007064625
:10D3C0000021384684F82580FFF746FE4146A068D4
:10D3D000FBF7AEFA40A80CF07CFA239040A80CF0C2
:10D3E00064FA46442290A9E7002563E710B5C269B4
:10D3F00003460C4682B190F838203AB9012905D18C
:10D4000080F83810FFF7F0FB012010BD032C07D186
:10D410001846FFF758FEF7E7BDE81040FFF71EBFBC
:10D420000020F2E770B5C369012BC2B004463DD1BC
:10D43000036B43B329F028FC054634F059F834F067
:10D440005DF80646606B2D1A34F052F834F056F849
:10D450004FF4E053B3FBF0F0B5FBF0F5751B002D76
:10D4600009DC00232371236A93F8283003B1237960
:10D47000237142B070BD206BA585022204F1280102
:10D480003CF090FCEFE790F83920002AEBD0D0E98F
:10D490000412037126A8FFF7CFFD26A904F120008E
:10D4A000FFF723FE26A8FFF776FDDCE790F839307A
:10D4B000002BD8D0002380F8393090F82420C168A0
:10D4C00026A80CF0EDF89DF8053143B9E16804A8F1
:10D4D0000CF076F8702204A926A845F09FFA9DF872
:10D4E000043184F824309DF805310BB984F82530D7
:10D4F00004F1200600213046FFF7AEFD94F82630F7
:10D50000002B2ED00221A068FBF712FA94F82530E8
:10D510004BB394F82410E0680CF0A8F8054626A850
:10D520000CF0D7F9219026A80CF0BFF90135229014
:10D53000E06823950CF082F96369039323690293F1
:10D5400024AB019340AB2490009322AA23AB21A9E2
:10D5500025A8FFF751FD25A93046FFF7C6FD25A8F0
:10D56000A1E70121CFE7D4E9041225A8FFF764FD64
:10D57000F1E708B533F0BCFFBDE808402AF0EABD8A
:10D5800073B505460A4B45F8083B044600F11C06F6
:10D59000B54206D055F8043B019301A82EF009FDD1
:10D5A000F6E7FFF7E6FF2BF099FD204602B070BDCD
:10D5B000587A050010B50446FFF7E2FF2046A8217F
:10D5C00044F08DFF204610BDF8B5DDF818C002EB21
:10D5D00081050CEB830600EBC50500EBC606AC6AC3
:10D5E000B76ABC4216D1624501D1994212D095F872
:10D5F00024707FB96200AA62D0F8A43006491A44A8
:10D60000C0F8A420C0693CF0F1F90120B76285F8A8
:10D610002400F8BD0020FCE7387A050010B5002A88
:10D62000029C01DBA24203D100290FDB99420DD0FD
:10D6300004EB830400EBC40402EB810200EBC202A2
:10D64000A36A93620023A362012010BD0020FCE7BF
:10D650002DE9F347DFF88480DFF884900746002641
:10D6600007EBC60AC6F38F04DAF8283006F0030584
:10D67000C3B14A460721684645F04EFD6B46386AFD
:10D680002A4621463FF024F8DAF82830386A082B79
:10D690000AD8082B0ED8DFE803F00F0D1A0D1A0D6B
:10D6A0000D0D1C004346EAE7202B14D0402B12D06E
:10D6B000102B0ED0052300E001232A462146013617
:10D6C0003FF0B2F9102ECBD102B0BDE8F0870223B3
:10D6D000F3E70323F1E70423EFE700BF89BC05006C
:10D6E0004A7A050070B5002390B006461C4606EB4A
:10D6F000C302926A2AB910AA02EB8402013442F8EA
:10D70000403C0133102BF2D124B345F041FC0546D7
:10D7100045F03EFCB5FBF4F304FB135510AB03EBF3
:10D720008505642155F8403C90FBF1F403F00302B9
:10D7300023F00303134404FB1100592806EBC30331
:10D74000D4BF0222042230469A62FFF781FF0120F3
:10D7500010B070BD2046FBE72DE9F043564B574F04
:10D760000446012685B0802200210025067140F87C
:10D77000243B45F07BF9C4F8A450FFF7FAFE294694
:10D780003FF0A0F804F10805206247F2BD482846A2
:10D790002EF076FB2846424639212EF0ABFC284677
:10D7A000032230212EF062FC2846FF222C212EF08D
:10D7B000E5FC3A88284629212EF09CFC28461D22AB
:10D7C00010212EF053FC7A88284648F289012EF069
:10D7D00091FC2A46F1B2206A01362CF0DDF9062EC2
:10D7E00005F1040507F10407D1D1206A04213FF0B7
:10D7F00024F8206A04213EF01DFF0025A8461FFAE8
:10D8000085F9206A3C2249463FF0CAF804EBC50777
:10D810000026C7F82880B1B2206A039101234A4646
:10D820003FF002F901360399206A01234A463FF08E
:10D83000C8F8042E07F12007EBD10135042DDED105
:10D840000023012619460522206A00962AF0BDFF12
:10D850000021206A2BF04CFC2046FFF743FF2046B6
:10D86000FFF740FFFFF785FE00213CF057F9E0612C
:10D87000054633F03DFE33F041FE014628462BF0CD
:10D880009BF9E06907213BF030FB00231946324643
:10D89000E069CDF800802AF098FFE06931463CF05D
:10D8A00029F9E069D4F8A42005493CF09FF8204606
:10D8B00005B0BDE8F08300BF587A0500707A050016
:10D8C000387A050000232DE9F74F884604461946AB
:10D8D0001A1D04EBC2020133102B1171F8D1A8F10B
:10D8E0000203032B00F2E180DFE803F0023D71A7A1
:10D8F0000125002704F12808002605F1FF3A58F811
:10D900003530EBB152464FF0FF3958F8323023B979
:10D91000511E91460AB30A46F7E700953346314651
:10D920002046FFF751FE002818BF074600953346F2
:10D930004A4631462046FFF771FE002818BF0746C9
:10D940000136042E08F12008D9D10135042DD1D19A
:10D950002FB9012003B0BDE8F08F9946E6E72046D5
:10D96000FFF7C0FEF5E70225002704F1280900268D
:10D9700005F1010B59F83530FBB15A464FF0FF3A2B
:10D9800059F8323033B9032A02F1010392461CD010
:10D990001A46F5E70095334631462046FFF714FE58
:10D9A000002818BF074600953346524631462046A8
:10D9B000FFF734FE002818BF07460136042E09F190
:10D9C0002009D7D1013DD0D2C2E7C246EBE70125FD
:10D9D000002704F128084FEA451A002605F1FF3B0D
:10D9E00058F80A30F3B159464FF0FF394B0158F857
:10D9F000033023B94A1E8946E9B11146F6E700967D
:10DA00002B4632462046FFF7DFFD002818BF0746A9
:10DA100000962B46324649462046FFF7FFFD002878
:10DA200018BF07460136042E08F10808D8D1013581
:10DA3000042DCED18CE79946EAE70225002704F1B0
:10DA400028084FEA451A002605F1010B58F80A305C
:10DA500003B359464FF0FF394B0158F8033033B93F
:10DA6000032901F1010389461CD01946F4E7009609
:10DA70002B4632462046FFF7A7FD002818BF074671
:10DA800000962B46324649462046FFF7C7FD002840
:10DA900018BF07460136042E08F10808D6D1013D0B
:10DAA000CDD255E74FF00309EAE7002052E708B569
:10DAB00033F01EFDBDE808402AF04CBB10B5084B02
:10DAC00003600446406A34F0C3FEFFF7F0FF2BF01A
:10DAD00005FBE0680D2110F049FF204610BD00BF96
:10DAE000047B050010B50446FFF7E8FF2046282117
:10DAF00044F0F5FC204610BD37B583685D686A1EAA
