:10802000000001200D4302003543020037430200E7
:10803000394302003B4302003D43020000000000C0
:1080400000000000000000000000000009DD00004A
:10805000414302000000000029DD0000454302000A
:10806000914502006188000047430200018800003A
:10807000474302004743020051490200414E0200BB
:10808000474302004743020047430200798800004B
:10809000474302006D880000474302004743020047
:1080A0008588000089DD0000474302004743020045
:1080B0004743020047430200474302004743020090
:1080C0004743020047430200474302004743020080
:1080D0004743020047430200000000000000000088
:1080E0004743020047430200474302004743020060
:1080F00047430200474302004743020000000000DC
:10810000000000000000000000000000000000006F
:10811000000000000000000000000000000000005F
:10812000000000000000000000000000000000004F
:10813000000000000000000000000000000000003F
:10814000000000000000000000000000000000002F
:10815000000000000000000000000000000000001F
:10816000000000000000000000000000000000000F
:1081700000000000000000000000000000000000FF
:1081800000000000000000000000000000000000EF
:1081900000000000000000000000000000000000DF
:1081A00000000000000000000000000000000000CF
:1081B00000000000000000000000000000000000BF
:1081C00000000000000000000000000000000000AF
:1081D000000000000000000000000000000000009F
:1081E000000000000000000000000000000000008F
:1081F000000000000000000000000000000000007F
:10820000000000000000000000000000000000006E
:10821000000000000000000000000000000000005E
:1082200010B5054C237833B9044B13B10448AFF3B0
:1082300000800123237010BDF80100200000000021
:10824000F82C030008B5034B1BB103490348AFF3F7
:10825000008008BD00000000FC010020F82C030095
:10826000A3F5803A704700BF174B002B08BF134B94
:108270009D46FFF7F5FF00218B460F461348144A31
:10828000121A22F097FF0E4B002B00D098470D4B8F
:10829000002B00D098470020002104000D000D485D
:1082A000002802D00C48AFF3008022F003FE20002B
:1082B000290000F04DFB22F0E9FD00BF000008009E
:1082C000000000000000000000000120F801002074
:1082D0008CE70020000000000000000000F028B83B
:1082E00000F0A4B800F0C8B810B50F4B1A461B68D0
:1082F0008342FBD354681119884201BF416810467C
:108300000919516041684418A34208D1074C2468F8
:10831000A34204D05B680B44436013681B6803608E
:10832000904218BF106010BD24A20020140200204B
:108330002DE9F04104461EF0D3F83649364D0B685E
:108340000BBB364A364E50071FBFD01D20F007002A
:1083500002F520431B1A14BF02464FF42043134476
:10836000083B23F00703002070603260C3E900007F
:10837000981AC2E900300B602A4B18602A4B18602B
:108380004FF000432B602F68274207D01EF05EF9A4
:1083900000F0F2F900263046BDE8F081002CF5D05F
:1083A00004F1080362071CBF23F007030833002B06
:1083B000ECD0DFF87480D8F800509D42E6D3184A1C
:1083C00014686068984201D2206800BB0968A14225
:1083D000DCD02168166811606268D21A102A06F192
:1083E000080604D9E01842606360FFF77DFF0D497D
:1083F00062680868AD1A17430023854267602360EE
:10840000C8F8005038BF0D601EF020F9C3E72246BF
:108410000446D6E71402002018A20020180200200B
:1084200024A2002020A200201CA2002010B5044697
:10843000E0B10F4A50F8043C1268134216D050F8CD
:10844000081C99B923EA020340F8043C1EF048F8DE
:10845000084A54F8043C1168A4F108000B44136066
:10846000FFF742FFBDE810401EF0F0B810BD00BF9E
:1084700018A200201CA200202DE9F04105460C4660
:1084800001B308461DB9BDE8F041FFF751BF0E4BDF
:1084900055F8046CD3F8008016EA080FF3D0FFF704
:1084A00047FF074658B126EA0802083AA24228BF09
:1084B0002246294622F056FE2846FFF7B7FF3846E7
:1084C000BDE8F0810F46FAE718A20020014B98782A
:1084D000704700BF2CA20020014B5878704700BFA6
:1084E0002CA20020034B1868B0F5803F34BF002059
:1084F000012070472CA200201FB50A4B02461860CD
:10850000FFF7E4FF0390FFF7E7FFD2B2CDE90002E7
:10851000039B054A05480C2123F064F905B05DF87A
:1085200004FB00BF2CA2002010E102000400002088
:10853000009A41608260704713B500220446012111
:108540000A201CF043FF0023E0600093084909481B
:10855000019423464FF400721DF0F6FD012805D06A
:10856000042002B0BDE810401EF088BF02B010BD6C
:108570001CE10200E98600002DE9F0418CB00024E6
:1085800005460B460094104940F2A55205A806F096
:1085900083FA05F110064FF4F07801274FF4F072DA
:1085A000314605A806F082FAA2B2CDE901686868F2
:1085B0000097F0230021013400F03FFCF02CEDD1B6
:1085C0000CB0BDE8F08100BF27E102004FF6FF715B
:1085D000FFF7D2BF2DE9F04300F1100707EE901A24
:1085E00085B0064600F5F8713B46994202D003F883
:1085F000012BFAE7F8EE677A9FED137A27EE877A78
:10860000DFED127AB4EEE77AF1EE10FAD8BFF0EEB1
:10861000477AFCEEE77ADC2517EE903A9CB24FEAF7
:1086200044094FF001082A460135CDE90179706807
:10863000CDF8008023460021ADB200F0FEFBF02D06
:10864000F1D105B0BDE8F0839A991940000070435C
:108650001FB50446C822C0680DF10F011DF0CCF90A
:1086600028B19DF80F30032B26D00B2B30D0A368F8
:108670009A78FAB1DA68022A2DD0032A2FD0012A7B
:1086800018D1D3ED027A93ED017AF8EE676AB8EE6D
:10869000477A4FF6FF72C6EE877A9FED127A67EE41
:1086A000877AFCEEE77ACDED017A9DF8041020463A
:1086B000FFF790FF04B010BDA06801F0CDFF20B11E
:1086C000FF212046FFF758FFD1E74FF6FF71F8E78B
:1086D0004FF4FC61F5E74EF207026421E7E7FF2261
:1086E000FBE700BF0000C84210B50446FFF76EFF6D
:1086F0002046FFF7ADFFFBE71FB500238DF80710FD
:10870000C068039303AA0DF107011DF0C1F8039B94
:1087100043B1064B4FF080525A6040BFBFF34F8FBA
:10872000BFF36F8F05B05DF804FB00BF00ED00E004
:10873000704770477047704707B5002300931A468B
:1087400003211EF051FE0348122103B05DF804EB33
:1087500005F0BEBCC8AC002001480A2105F0B8BC39
:10876000C8AC002010B58368044613B1032201464B
:108770009847204610BD0000024A13680133136079
:10878000704700BF68A90020024A136801331360D4
:10879000704700BFC0AC002030B51C2885B005D1A3
:1087A000134805B0BDE8304005F0BDBF00241328D4
:1087B000039419D1032915D10E4B1D681DF09EFE9F
:1087C00003AB02460094062128461EF00DFE039BD3
:1087D00043B1094B4FF080525A6040BFBFF34F8FF7
:1087E000BFF36F8F05B030BD0D28FBD1034BE4E71D
:1087F000C8AC0020F0A2002000ED00E0F4A20020B0
:1088000010B5154CD4F80433580609D5D4F81831EE
:10881000012B05D100231148C4F8183100F05CFD8C
:10882000D4F80433190309D5D4F84C31012B05D100
:1088300000230A48C4F84C3100F036FD064BD3F84B
:108840000423920706D5D3F80421012A04BF00228D
:10885000C3F8042110BD00BF003000409CAC0020D4
:10886000014B1B68184700BF3CA20020014B1B684E
:10887000184700BF30A20020014B1B68184700BFFB
:1088800038A20020054B002282B0C3F80021D3F8A3
:1088900000310193019B02B0704700BF000001400E
:1088A0000B2808D00D2804D0012801D1034B1960F2
:1088B0007047034BFBE7034BF9E700BF3CA20020E6
:1088C00030A2002038A20020EFF3108072B600F032
:1088D0000100704700B962B6704700000048704759
:1088E00034A2002010B5044C4FF0FF31204606F0B2
:1088F00025FF43689847F7E734A2002008B5FFF743
:10890000F1FF000008B50022042120201CF05EFDCC
:108910000C4B186019F05EF907F094FA10F06CFF38
:108920000021052018F0E0FF4FF4004018F034FA61
:1089300011F04CFB11F006F8BDE80840024806F0C3
:10894000CFBE00BF34A20020FD88000011F0A4BA01
:1089500073B54FF080440123C4F878351BF016FD41
:1089600000201BF02FFD1BF0C1FDD4F81834DB03F1
:10897000FBD54FF0A04540F203632A4EC5F81C37E3
:108980008023C5F80835102446F00106D5F80435D3
:10899000DA4302F0800203F08003C5F808254FF4A3
:1089A000A070C5F80C35013CB04714F0FF04EDD1C0
:1089B0000223C5F81C371C4B0093224623460A218C
:1089C0001A481B4D1B4E1EF0C3FC1B4B18601B4B63
:1089D000009322462346C82119481EF0B9FC194BC2
:1089E0001860194BD3F84005FFF786FD2B68B3429A
:1089F0000FD1D5E90223154801F000FF144805F016
:108A00001FFBFFF77FFF1DF08BFC0F201EF036FDD4
:108A1000FBE71048104A2146121A22F0CBFB2E60C9
:108A2000ECE700BF00E7020059870000CCE6020037
:108A300090E700200000ADDEF4A20020398700009E
:108A4000DAE60200F0A2002000A00040A0A2002070
:108A5000C8AC002090E70020A0E70020034653F8B0
:108A6000082B9A4204D081681046013122F08FB958
:108A70007047000010B5044600F5F660FFF7EEFF02
:108A800004F5F360FFF7EAFF04F5F060FFF7E6FF97
:108A900004F5B860FFF7E2FF04F5B560FFF7DEFF0D
:108AA00004F5B260FFF7DAFF074BC4F87C3304F536
:108AB0006770FFF757FE054BC4F8E43204F53E70CB
:108AC000FFF750FE204610BDE8170300C41703004F
:108AD0002DE9F04F624B634C18689B8895B012AA41
:108AE000129000216048ADF84C3000F0EDFA5E497C
:108AF0005E48192200F05CFD1A235C495C48122292
:108B000000F00CF9052258495A4800F051FD594926
:108B1000594800F0A9F9072300934FF0C4620623D7
:108B20004FF04021554805F02EFE54495448152277
:108B300005F009F851495348182200F05FFE4F49EB
:108B40005148442200F0B4FD504801F085FC504BE0
:108B50004D49504800254FF480721A80C3E90155F1
:108B60004D4A9D70DD60DD6105F0DCFF42494B48F8
:108B700006F048FC49494A4804F0ECFE4849494897
:108B800001F0AAFD257060197022002104307035B3
:108B900022F010FBB5F50C7FF5D1424E424F434D0C
:108BA000DFF82881DFF828A1DFF8F0B04FF00009E6
:108BB000042331463846C4E98D3984F83C9204F0E8
:108BC0001DFF3B49C5F80C900123C5E901992B74A1
:108BD000CDE90871374907913749C8F80090A8F8DE
:108BE00008900691DFF8B0902D4834490590284848
:108BF0000090CDE90161CDE90A5BCDE90349234B42
:108C00001F4A1B495046FFF793FC224924480A900B
:108C1000CDE90CA11B490991264908911A491C4824
:108C20001A4B174A0290CDE9064124490193CDE938
:108C300004710092114B104A0B49CDF838B0CDF8B1
:108C40002C9003961E48CDE90F5805F0AEF91D4A49
:108C50001D491B4815B0BDE8F04F22F093B800BF86
:108C6000EEE6020024AA00209CAC002060A90020AF
:108C700054A90020E8A40020B8AC002034B800209B
:108C80002CB80020DCA900204CA9002060A2002004
:108C900070A20020BCA500203CA90020F0A4002068
:108CA00064AC0020A0A2002040A2002018B8002040
:108CB000100000206CA900201CAA00205CB8002035
:108CC000C8AC002000000020758A000090A200209F
:108CD000F8A20020012A02D1016000207047022A78
:108CE00004BF0B780370F8E7012A02D1016000206D
:108CF0007047022A04BF0B780370F8E7027801235B
:108D000093404FF0A042C2F80C357047027801231F
:108D100093404FF0A042C2F80835704710B5437138
:108D2000002301600271837110BD006800F050BC27
:108D30001FB503798DF80030064B0393064B029361
:108D40006B46FFF7F2FF6846FFF70CFD05B05DF8D4
:108D500004FB00BF0D8D0000E98C000007B5012267
:108D60008DF807100DF10701FFF7E2FF03B05DF882
:108D700004FB00001FB503798DF80030064B039308
:108D8000064B02936B46FFF7D0FF6846FFF7EAFCFD
:108D900005B05DF804FB00BFFD8C0000D58C000021
:108DA00007B501228DF807100DF10701FFF7E2FF6B
:108DB00003B05DF804FB2DE9F04104460F462A217B
:108DC00015461E46BDF81880FFF7EAFF390A20460F
:108DD000FFF7C4FFF9B22046FFF7C0FF310A204673
:108DE000FFF7BCFFF1B22046FFF7B8FF20462B216A
:108DF000FFF7D6FF290A2046FFF7B0FFE9B2204669
:108E0000FFF7ACFF4FEA18212046FFF7A7FF5FFAF4
:108E100088F12046BDE8F041FFF7A0BF37B50D4609
:108E20002C2104460192FFF7BBFF019A29462046F8
:108E300003B0BDE83040FFF77BBFF7B5BDF8204079
:108E4000013C1444013B0B44A4B2DDE909670094E2
:108E50009BB20546FFF7AFFF3A463146284603B0BE
:108E6000BDE8F040FFF7DABF0022016002714271F5
:108E7000827170477FB5B9238DF8073000230493C2
:108E8000006802AB01220DF1070100F0A1FB049B79
:108E90001BB102A903220846984707B05DF804FBFE
:108EA00010B586B09F238DF80F3003230093002464
:108EB00004AB01220DF10F0100688DF810408DF810
:108EC00011408DF8124000F08EFB049B2046DAB270
:108ED00062F30700C3F3072262F30F20C3F30743D3
:108EE00063F3174006B010BD10B50446FFF7D8FF76
:108EF000C0F307236371C0F307432071A37110BD52
:108F00001FB50D4B039300238DF80B300123009305
:108F100004460DF10B03042203A9006800F063FB73
:108F20002046FFF7BDFFC0F307232071C0F30740C1
:108F30006371A07104B010BDAB0102031FB5012223
:108F4000009205238DF80E300DF10E010DF10F0387
:108F5000006800F048FB9DF80F0005B05DF804FBC9
:108F600008B5FFF7EBFF00F0010008BD08B5FFF7FB
:108F7000E5FFC0F3400008BD1FB5032400938DF842
:108F80000C400C0C8DF80D408DF80F100C0A134698
:108F900003A9042200688DF80E4000F024FB04B001
:108FA00010BD1FB506238DF80F300023009301225A
:108FB0000DF10F01006800F016FB05B05DF804FB31
:108FC0001FB520238DF80C300B0C8DF80D300B0ADB
:108FD00004468DF80E308DF80F10FFF7E2FF2046A3
:108FE000FFF7C4FF18B901201DF0C6FBF7E7002307
:108FF00020680093042203A900F0F5FA2046FFF749
:10900000AFFF18B101201DF0B7FBF7E704B010BDAA
:109010001FB5012200922B238DF80E300DF10E01A9
:109020000DF10F03006800F0DEFA9DF80F0005B0A7
:109030005DF804FB08B5FFF7EBFFC0F3401008BD77
:1090400008B5FFF7E5FFC0F3801008BD2DE9F04338
:10905000074685B00D4690461E464FF0020986B37E
:1090600025F0FF04641B04F580742B0CB4428DF8CA
:109070000D3038464FEA152328BF34468DF80C9042
:109080008DF80E308DF80F50FFF78BFF3846FFF745
:109090006DFF18B901201DF06FFBF7E738680094E9
:1090A0004346042203A900F0AAFA3846FFF758FF06
:1090B00018B101201DF060FBF7E72544A044361BE2
:1090C000CDE705B0BDE8F083417111689288428117
:1090D0000022C260C0F806100261426170470000C1
:1090E00010B54169044621B9032201201CF06EF934
:1090F0006061617A4FF0A043012202FA01F1C3F8E6
:109100000815617A01F5E071032043F82100A17A86
:109110008A40C3F80C25A27A02F5E072002143F8D8
:109120002200E27A02F5E07243F8221063791BB163
:10913000012B23D000204FE02B4B23602368627A61
:10914000C3F808252368A27AC3F80C252368E27ABD
:10915000C3F81025237A002BECD123684FF000428E
:10916000C3F82425A3790BB1012BE3D1E1791A4689
:109170000329DFD8DFE801F0070531344FF0402341
:10918000DBE743F002022368C3F85425226800237A
:10919000C2F810312268C2F820312268C2F81831B2
:1091A00022684021C2F8041322680220C2F8040396
:1091B00022684FF40020C2F8040322680720C2F896
:1091C00000050A4A82F803130821116060691A46F3
:1091D00019461CF069F9012010BD43F00402D2E7E2
:1091E00043F00602CFE700BF0030004000E100E09E
:1091F00070B5D1F80855164C03F5A27644EA05245B
:10920000144D45F82640D4009B0004F1804404F539
:10921000F83403F1804303F5C243C4F8103501F17B
:109220001403C4F81435012303FA02F20A4BC3F8FD
:10923000042503680022C3F818214023C1F808332D
:109240000223C1F808334FF40023C1F8083370BD7E
:10925000010003000060004000F0014030B503F55C
:10926000A2730F4D002445F82340D30003F180433F
:1092700003F5F833C3F81045C3F81445094BC3F898
:1092800004250368C3F818414023C1F804330223BE
:10929000C1F804334FF40023C1F8043330BD00BFDC
:1092A0000060004000F0014070470368C3F84415B7
:1092B0000368C3F8482502680023C2F850350268E5
:1092C000C2F834350268C2F838350268C2F8403551
:1092D0000268C2F81831704737B5C3688BB10569A9
:1092E0008DB1FF2D28BFFF252A46C168FFF7DDFF9E
:1092F000C3682B44C36003695B1B036103680122DD
:109300001A6103B030BD0279012393404FF0A042AF
:1093100001A9C2F80835C560406901951CF03CFB05
:10932000019B002BEDD0054B4FF080525A6040BF9F
:10933000BFF34F8FBFF36F8FE3E700BF00ED00E097
:1093400010B504680023C4F844350468C4F84835EF
:109350000468C4F850350468C4F834150168C1F8CD
:1093600038250268C2F840350268C2F8183110BDCD
:109370002DE9F041069D044688461F461646002A00
:109380004ED04FF0FF3140691CF088FC0023012FC4
:10939000216884F804801A4620463ED1FFF728FF52
:1093A000AB6813B1EB6828469847237901254FF045
:1093B000A04205FA03F3C2F80C35E660276126697E
:1093C000E168FF2E28BFFF2632462046FFF76DFFDB
:1093D00023699B1B2361E3683344E3602368AF4246
:1093E0001D6118D12268D2F81831002BFBD02379E7
:1093F0004FF0A042012505FA03F3C2F80835002218
:109400002168E26013462046FFF728FF6069134693
:1094100011461CF049F8284603E0FFF71FFFBFE79D
:109420001046BDE8F0812DE9F04104460D46406943
:109430004FF0FF3116461F461CF030FC00231A4641
:10944000216825712046FFF709FF23684021C3F8F2
:10945000081323680221C3F8081323684FF400217E
:10946000C3F8081323794FF001084FF0A04108FA20
:1094700003F3C1F80C35E260314622613A46FFF74A
:1094800014FF2368C3F810802268D2F81831002B2B
:10949000FBD0DDE906122046FFF752FF23680122C8
:1094A0001A612268D2F81831002BFBD023790125EC
:1094B0004FF0A04205FA03F3C2F8083500236069B3
:1094C0001A4619461BF0F0FF2846BDE8F08100223D
:1094D0000368D3F8001511B1C3F80025F8E7427A04
:1094E0004FF0A04302F5E072022143F82210827A85
:1094F00002F5E07243F82210C27A02F5E07243F8F6
:1095000022107047FFF7ECBD2DE9F04104460D46EF
:1095100040694FF0FF3116461F461CF0BFFB002389
:109520001A46216825712046FFF798FE23684021DE
:10953000C3F8081323680221C3F8081323684FF403
:109540000021C3F8081323794FF001084FF0A04120
:1095500008FA03F3C1F80C35E260314622613A465D
:10956000FFF7A3FE2368C3F810802268D2F81831F1
:10957000002BFBD0DDE906122046FFF796FE23689C
:1095800001221A612268D2F81831002BFBD023790E
:1095900001254FF0A04205FA03F3C2F80835002375
:1095A00060691A4619461BF07FFF2846BDE8F08126
:1095B00010B5016002F5E0734FF0A0410324027181
:1095C00041F82340012303FA02F2C1F8082510BD37
:1095D00007B5009313460A4601790068FFF7C8FEF5
:1095E00003B05DF804FB13B5049CCDE900341346C9
:1095F0000A4601790068FFF716FF02B010BD13B5E7
:10960000049CCDE9003413460A4601790068FFF74F
:109610007BFF02B010BD000010B5C9031B4C134303
:109620000139C4F80C35C4F80415D4F808354FF0E6
:10963000804243F00103C4F80835D2F800344FF0FB
:10964000FF31C2F80014DA0711D49C0711D459076E
:1096500011D41A0711D4DC0311D4990311D45A037D
:1096600011D4C3F3C043C3F10803036010BD00234A
:10967000FBE70123F9E70223F7E70323F5E70423D8
:10968000F3E70523F1E70623EFE700BF0000014001
:10969000014B01221A60704700000140024B034A4F
:1096A000C3F80026704700BF000001403546526EE7
:1096B0000160027170471FB5012300938DF80F20E0
:1096C0000DF10F030A460179006805F0A9F905B00C
:1096D0005DF804FB1FB5012300930A460DF10F034B
:1096E0000179006805F06EF99DF80F0005B05DF88E
:1096F00004FB10B501210446FFF7ECFF60F07F008A
:10970000C2B201212046FFF7D6FF20462F22BDE836
:1097100010400C21FFF7CFBF10B501210446FFF721
:10972000D9FF012100F07F022046FFF7C4FF204649
:109730000022BDE810400C21FFF7BDBF38B54FF047
:10974000A0430025C3F878570446FFF7E5FF6420DF
:109750001DF012F8204650220121FFF7ACFF2046F1
:109760002F220C21FFF7A7FF204677221621FFF7B3
:10977000A2FF2A4620461721BDE83840FFF79BBFCD
:1097800070B509210546FFF7A5FF0A2106462846C0
:10979000FFF7A0FF0F2104462846FFF79BFF034673
:1097A00000F00F021B0342EA062003F440332401B9
:1097B0001843E4B2204370BD70B508210546FFF799
:1097C00089FF0D2106462846FFF784FF0E21044637
:1097D0002846FFF77FFFE40200F0070343EAC600D4
:1097E00004F4FC34204370BD20B1034B800143F0EE
:1097F00001031847704700BF10E702000271002202
:10980000828780F83E20012201600274054942757A
:10981000054A816202630549C1621022C0608283E9
:10982000704700BFC1980000E9970000EB98000066
:1098300038B590F83D300446A3B300F1080528463A
:1098400000F0C2FC70BB237A112B04D0132B2AD05A
:1098500084F83E0002E0012384F83E30284600F000
:10986000C9FCF8B92946012000F083FCD0B90121D8
:109870002A46084600F0E4FCA0B9294600F059FD4C
:1098800080B92946012000F04FFC58B920464FF41A
:10989000027340F8383F294600F0B2FA10B90123AC
:1098A00084F83C3038BD0223D6E707B50093134651
:1098B0000A460179006805F085F803B05DF804FBFD
:1098C00010B50446184613460A462146FFF7EDFF39
:1098D000002010BD07B5009313460A4601790068C1
:1098E00005F09EF803B05DF804FB10B50446184679
:1098F00013460A462146FFF7EDFF002010BD000089
:109900002DE9F04391F83C3087B004460D4633B959
:10991000C0E900338360204607B0BDE8F08301F161
:109920000808414604A800F0D1FA95F83B20BDF99B
:109930001060BDF91270BDF91450174B4FF00009BB
:10994000414602A833F91230CDF80890B602BF02A2
:1099500096FBF3F697FBF3F7AD0295FBF3F500F0FA
:1099600041FD4246012103A800F0FAFA41460DF1FB
:109970000700039B8DF807904FF47A7236B293FB81
:10998000F2F33FB203932DB200F048FD029B236037
:10999000A780E6802581BEE706E70200083000F0D8
:1099A000F7BC000010B50446083000F0FBFB50B9CE
:1099B000012384F83D30044BBDE810404FF47A4059
:1099C00043F00103184710BD10E7020090F83E0075
:1099D000704748B1036A3BB1436A2BB14068B0FAA3
:1099E00080F04009404270474FF0FF30704770B53B
:1099F000054618461C46FFF7ECFFB8B9B1B1237A0B
:109A00000BB905F07F052846666A6368B0470546CE
:109A1000607270B994F82E20A36A6168012A0CBFA5
:109A200002204FF4E1709847284670BD4FF0FF3593
:109A3000FAE76FF00105F7E72DE9F84F834600AF2D
:109A40001846884615461C46FFF7C3FF40BB39B38E
:109A5000E27A2A44D31D23F00703E946ADEB030D58
:109A6000237AEA460BB94BF0800B266A63685146AD
:109A70005846B047607288B16FF00100CD46BD46D0
:109A8000BDE8F88FE17A0AEB0206715C08F8021073
:109A90009AB2AA4203F10103F4D3EFE70346F7E7D2
:109AA0004FF0FF30EBE713B5002304468DF8063086
:109AB0008DF80730FFF78DFF48B9234601220DF1DD
:109AC00006015B20FFF7B8FF18B16FF0010002B08C
:109AD00010BD234601220DF107015C20FFF7ACFF0A
:109AE0000028F2D19DF806209DF8073002F00F0201
:109AF00042EA0312A38A02EB530202F00F03120997
:109B00008DF806308DF80720234601220DF106015D
:109B10005B20FFF76CFF0028D9D1234601220DF10D
:109B200007015C20FFF763FFD1E707B50190FFF75E
:109B300050FF019B80B903F1170101225B20FFF761
:109B400056FF019B40B9012203F118015C2003B0CC
:109B50005DF804EBFFF74BBF03B05DF804FB1FB5E6
:109B60000446002208468DF80F200191FFF731FFCF
:109B700078B974B10B4601220DF10F017C2000F081
:109B80000BF820B99DF80F3003F00103237004B0E7
:109B900010BD4FF0FF30FAE72DE9F3471D460746A9
:109BA000002328468DF80730FFF713FF0E461446B2
:109BB0008046002872D1002970D05E2F68D12946D6
:109BC0000DF10700FFF7CBFF9DF80730012B07468B
:109BD00009D12946404600F067F8AB6A6968074634
:109BE0004FF4E170984714F001095AD1AB7DA342BC
:109BF00057D3002F55D1AF8AA74242D2B4FBF7FA10
:109C00002846FFF792FF07FB1A47C84604465FFA4B
:109C100089F39A4520D847B1D4B92B463A4606EB8A
:109C200008015E20FFF708FF04468CB92846FFF7BD
:109C30007CFF044660B99DF80700012808D1294639
:109C400000F032F8AB6A696804464FF4E170984757
:109C5000204602B0BDE8F087AA8A2B4606EB080131
:109C60005E20FFF7E9FE044640B92846FFF71BFFD8
:109C7000044618B9AB8A98441FFA88F809F101091B
:109C8000C5E72B46224631465E20FFF7D5FED0E7DA
:109C90002B463846FFF7D0FE0446D9E74FF0FF3495
:109CA000D6E76FF00904D3E71FB504460022084643
:109CB0008DF80F200191FFF78CFE0B46B0B9012201
:109CC0000DF10F017C20FFF767FF019B70B99DF834
:109CD0000F2004F0010022F0010210438DF80F0064
:109CE00001220DF10F017C2000F002F804B010BD3C
:109CF0002DE9F74F1D460446002328460F46164619
:109D00008DF80730FFF765FE002873D1002971D068
:109D10005E2C69D129460DF10700FFF720FF9DF861
:109D20000730012B044609D140B92946FFF7BCFF93
:109D3000AB6A696804464FF4E170984716F0010A6F
:109D40005BD1AB7DB34258D3002C56D1B5F814B0DB
:109D5000B34542D22846FFF7E8FE044620BBB6FBD7
:109D6000FBF8D1465FFA8AF3984521D80BFB1862BD
:109D70003AB1CCB92B4607EB09015E20FFF737FE5D
:109D800004468CB92846FFF7D0FE044660B99DF81A
:109D90000700012808D12946FFF786FFAB6A6968EA
:109DA00004464FF4E1709847204603B0BDE8F08FB9
:109DB000AA8A2B4607EB09015E20FFF718FE04462E
:109DC00040B92846FFF76FFE044618B9AB8A99449C
:109DD0001FFA89F90AF1010AC4E72B4632463946CF
:109DE0005E20FFF704FED0E720462B46FFF7FFFD7D
:109DF0000446D9E74FF0FF34D6E76FF00904D3E704
:109E000030B585B0044600220846ADF80C2001911B
:109E1000FFF7DFFD68BB64B3A5786178019B012D76
:109E200024D1022928D82278501E0B2824D8ED01ED
:109E300045EA01152A43E1780193D2B28DF80C204E
:109E400001F00301D20983F82E208DF80D100122B4
:109E500003A94020FFF74CFF019B28B901220DF117
:109E60000D014120FFF744FF05B030BD25B907299A
:109E7000D8E74FF0FF30F7E76FF00700F4E713B5CE
:109E8000002304468DF806308DF80730FFF7A1FD5A
:109E90000246B0B9237ABBB90122E27223460DF122
:109EA0000701FFF779FE024658B9012223460DF15A
:109EB00006010020FFF770FE024610B99DF806303B
:109EC0002370104602B010BDE072EEE7F7B5002334
:109ED000064608460F460093ADF80430FFF779FDBB
:109EE00000283AD1002E38D00B46062269461220AF
:109EF000FFF752FEE0B9BDF90050BDF90240BDF9CF
:109F0000042035807480B2803B7B0C2B12D1002D55
:109F1000B8BF0F35002CB8BF0F34002A4FEA251503
:109F20004FEA2414B8BF0F32358074801211B2800A
:109F300003B0F0BD0E2BFBD1002DB8BF0335002CB4
:109F4000B8BF0334002A4FEAA5054FEAA404B8BFFE
:109F50000332358074809210E9E74FF0FF30E7E775
:109F60007FB513460546002218468DF80C20019354
:109F7000FFF72FFD0E46044648BB45B3019B012267
:109F800003A92220FFF708FE78B99DF80C304FF4A2
:109F90007A72534303F5B342022E02F1580206D0FF
:109FA000032E0ED02A6004B070BD2346F2E74FF4B2
:109FB0007A73B2FBF3F24FF4E1635A4302F5FA42CB
:109FC000F0E703F5902303F2D6432B60EBE74FF065
:109FD000FF30E8E7F7B50546294600208DF8040074
:109FE0008DF80500FFF760FEAB6A696804464FF420
:109FF000E17098474CB92B46012201A95920FFF77F
:10A0000077FE0446002800F08780204603B0F0BDAC
:10A0100073092F698DF806302846C6F34303374489
:10A020008DF80730FFF7D5FC002872D1002F70D0D3
:10A030002B4601220DF107015B20FFF759FE044674
:10A0400078B92B4601220DF106015C20FFF750FE86
:10A05000044630B9AA8A2B4639465E20FFF7C7FC72
:10A060000446AB8A1E44B6B2AB8DB342D0D8002CA6
:10A07000CBD101262B46324601A959208DF8046028
:10A08000FFF736FE04460028BFD1AB6A6968254851
:10A09000984732462B460DF105012A20FFF77CFD3B
:10A0A0009DF8056006F00F068DF80560044600284F
:10A0B000ABD1012E32D129463046FFF7F5FD0446DB
:10A0C0000028A2D18DF806008DF807002846FFF77A
:10A0D00080FC0446002898D12B4632460DF106013B
:10A0E0005B20FFF7A9FC044600288ED12B463246A0
:10A0F0000DF107015C20FFF79FFC0446002884D186
:10A100009DF8063003F00F03EB759DF807302B76B2
:10A110007BE74FF0FF34A4E70646A5E76FF00404A1
:10A1200073E700BFF04902001FB50446002208464D
:10A130008DF80F200191FFF74CFC0B46B8B90122B6
:10A140000DF10F017D20FFF727FD019B78B99DF8E8
:10A150000F20A40022F0040204F0040414430DF1C3
:10A160000F0101227D208DF80F40FFF7C1FD04B0E3
:10A1700010BD07B58DF8070008460091FFF729FCD0
:10A1800050B99DF80720012A09D80B4601220DF18C
:10A1900007015520FFF7ACFD03B05DF804FB6FF03D
:10A1A0000700F9E71FB5B62201908DF80F20FFF7E1
:10A1B00010FC019B28B901220DF10F017E20FFF751
:10A1C00097FD05B05DF804FB10B50446FFF757FE98
:10A1D00070B9237803F0FD03112B01BF0C23237307
:10A1E0004623A37506BF4FF4C053A3856FF0030049
:10A1F00010BD0000B8B1027802F0FD03112B15D19B
:10A20000838A991E442914D8D90744BF03F1FF3328
:10A210008382112A03D1084B0361FFF7DBBE132AA7
:10A22000FBD1064BF8E74FF0FF3070476FF00300AB
:10A2300070476FF00900704716E7020016FF020032
:10A2400030B595B0044601920D464222002103A884
:10A25000029120F0AFFF019B002B64D01A7802F02E
:10A26000FD02112A62D1462202A95E20FFF794FC6A
:10A27000A0BB012D04F0010204F0020504F004006B
:10A2800004F00801019B04F0100429D12AB19DF8C3
:10A29000432042F010028DF843202DB19DF8432059
:10A2A00042F020028DF8432028B19DF8482042F06A
:10A2B00001028DF8482029B19DF8442042F00102A6
:10A2C0008DF844202CB19DF8462042F001028DF813
:10A2D0004620462202A95E20FFF70AFD15B030BDD8
:10A2E0002AB19DF8432022F010028DF843202DB1B1
:10A2F0009DF8432022F020028DF8432028B19DF8DC
:10A30000482022F001028DF8482029B19DF8442010
:10A3100022F001028DF84420002CDAD09DF846206E
:10A3200022F00102D3E74FF0FF30D7E76FF00300D0
:10A33000D4E730B593B00D4604460021422201A86F
:10A34000009120F037FFEDB12B7803F0FD03112BC6
:10A350001BD12B46462269465E20FFF71DFC78B9CB
:10A360009DF83B20E40022F0080204F008041443A6
:10A370002B46462269465E208DF83B40FFF7B8FC2D
:10A3800013B030BD4FF0FF30FAE76FF00300F7E78E
:10A3900010B592B004460021422201A8009120F09D
:10A3A00009FFCCB1237803F0FD03112B17D123460D
:10A3B000462269465E20FFF7EFFB58B99DF83B3017
:10A3C00043F004038DF83B304622234669465E2065
:10A3D000FFF78EFC12B010BD4FF0FF30FAE76FF0C0
:10A3E0000300F7E713B500230446019381B10B780E
:10A3F00003F0FD03112B0ED104220B461E200DEBA2
:10A400000201FFF7C9FB08B9019B236002B010BD30
:10A410004FF0FF30FAE76FF00300F7E713B50023C2
:10A4200004468DF8073089B10B7803F0FD03112B3A
:10A430000FD10B4601220DF107012720FFF7ACFBDE
:10A4400010B99DF80730237002B010BD4FF0FF30F7
:10A45000FAE76FF00300F7E7012101814FF0A04315
:10A460000449002242804260C2600860C3F830277D
:10A47000704700BF64B800204FF0A043D3F8102508
:10A480006FEA123202F001028271D3F810356FEADE
:10A49000D34303F00103C3710BB10AB90123437124
:10A4A0007047000030B5114D114985B00446286849
:10A4B000009068461AF09AFD08B11CF0DFFF0D4AC3
:10A4C00068685168127A01AB03C301A900201A70B1
:10A4D0001AF0E0FD08B11CF0D1FF012120461AF06E
:10A4E000FDFE08B11CF0CAFF05B030BD1617030011
:10A4F00045A600001A17030008B5FFF7BDFF437A11
:10A500003BB901234372FFF7CDFFBDE808401AF0C5
:10A5100049BF08BDF0B5044647480378BFF35B8FD9
:10A52000DB0789B00D461DD420F033FCD0B1434B7E
:10A5300002AE03F1180C324618685968374603C753
:10A54000083363453E46F7D13D4E08AF134603CB73
:10A55000BB42306071601A4606F10806F6D13648F3
:10A5600020F023FC2B78002B35D1012120461AF056
:10A57000B5FE08B11CF082FF6B681B884FF4965241
:10A5800013FB02F3002BB8BF03F2FF336279991279
:10A59000C3F38F236380002A42D1294A108898424E
:10A5A0001BD39378A2798DF808309AB363228DF883
:10A5B00006200DF106021178994228BF02AA1378ED
:10A5C000E179227971B393422ED8227A62BB1AF0D4
:10A5D00013FE0023637209B0F0BD012032F8205051
:10A5E000AB4212D2461E02EB860332F826609B78FD
:10A5F00002EB800289B29278891BD21A5143AD1BBB
:10A6000091FBF5F10B44DBB2CCE701300628E5D134
:10A61000937DC7E764228DF807200DF10702CAE792
:10A620006423CDE79342D0D20022E06822722371E6
:10A63000162103F04DFDCAE760B80020241703007F
:10A6400068B80020024B01461868FFF763BF00BFDF
:10A6500064B80020C1607047007870470123037020
:10A6600070470023037070474078704701234370A0
:10A6700070470023437070470123837070470023A5
:10A6800083707047416070478160704710B50378F0
:10A690005A1C027081F86C30012381F86D30BFF3D1
:10A6A0005B8F80F83C320446BFF35B8FD0F83402F6
:10A6B00080B101387022C4F8340202FB004004303B
:10A6C00020F050FDD4F83832042B9CBF0133C4F87D
:10A6D000383210BD0420EDE730B500240025C0E974
:10A6E0000C45C0E90E454FF480740022A0F84040AC
:10A6F0000124C0E911218284826280F8424030BD89
:10A7000080F8241080F82520704700000000000029
:10A7100073B5836A8B428ABF01F18072CB1AD31A58
:10A720009A0AC3F3090399423CBF01F1FF1101F5F5
:10A730007F41CB1A04468362D0E90C012E4BE2FB29
:10A740000301D4E90E359B1845F10005C4E90E3527
:10A75000C4E90C0126A3D3E9002323F097FACDE93D
:10A760000001684620F0DCFB05460FCD26460FC6EB
:10A770000FCD0FC62B6833602579267AB5B994F8CA
:10A7800041303BB9606C012384F8413010B1102195
:10A7900003F09EFC94F84230F3B9606C012384F816
:10A7A000423058B1112103F093FC07E000231E2D25
:10A7B00084F84130EED0002384F842308EB994F80A
:10A7C00040303BB9606C012384F8403010B10F2158
:10A7D00003F07EFC02B070BD002DEFD01E2DEDD039
:10A7E000E9E7002384F84030F4E700BFAFF30080CE
:10A7F00000CA9A3B0000000000CA9A3BC0E90C2343
:10A80000816AFFF785BF000010B58AB004460020BA
:10A81000CDE907009DF8380001909DF834000290C2
:10A820009DF83000013ACDE90303A1F26C714FF0BD
:10A83000FF3301A805920993069120F09BFD084A79
:10A84000A0FB020302FB0131C4E90C01A16A20460E
:10A85000FFF75EFF606C032103F03AFC0AB010BD05
:10A8600000CA9A3B416470472DE9F843520147F60C
:10A87000FF794A45DFF87080A8BF4A464245B8BF15
:10A880004246054610B20F461E4604F027FF044616
:10A8900068014845A8BF48464045B8BF404600B299
:10A8A00004F01CFF002FA2B280B218DA002E0DDADD
:10A8B000801A00B2BDE8F8830244002D92B2BABFFC
:10A8C000C2F57F404C30C2F1B400F2E7024492B2CC
:10A8D000002DB4BF02F1B400A2F1B400E9E7002EEC
:10A8E000EADB101AE5E700BF0180FFFF2DE9F74F13
:10A8F0008C6BCE6C0F6EA31D04F10809019300232D
:10A9000004F1010B361BCA469E4698461A461D4660
:10A910009C463C1B0AF0070701EB47073F8DBC44F0
:10A9200006EB0A0707F0070701EB47070FFA8CFC55
:10A93000BF8F3D4404EB0A0707F0070701EB470709
:10A940000AF1FF3AB7F850703A440BF0070701EBF1
:10A9500047072DB23F8DB84406EB0B0707F00707FA
:10A9600001EB470712B2BF8FBE4404EB0B0707F0A1
:10A97000070701EB47070FFA88F8B7F850703B4418
:10A98000019F57450FFA8EFE1BB20BF1010BC1D18F
:10A9900003EBD3735B100CEBDC7C05EBD57502EBA2
:10A9A000D27208EBD8780EEBDE7E4FEA6E0E4CF3D7
:10A9B0004F0C45F34F0542F34F0A4FEA68084381B5
:10A9C0000023A0F808E0A0F800C04580A0F804A08B
:10A9D000A0F806801F469E4609F0070801EB4808CC
:10A9E000019AB8F92880A8EB0C0808FB08EE06EBE2
:10A9F000090808F0070801EB4808B8F93C80A8EB03
:10AA0000050808FB087704EB090808F0070801EBC4
:10AA1000480809F1FF39B8F950804A45A8EB0A08FF
:10AA200008FB0833D8D14FEA5E027F085B08C2609A
:10AA30000761436103B0BDE8F08F2DE9F04186B0B6
:10AA40001D460C9F0368BB4204468846164604D048
:10AA5000C06E10B1394602F004FFE06EF8B1A36B8E
:10AA600003F0070304EB4303B3F92830434511D146
:10AA7000E36C03F0070304EB4303B3F93C30B34248
:10AA800008D1236E03F0070304EB4303B3F95030FE
:10AA9000AB4204D02B463246414602F001FFE36848
:10AAA000A3601BF025FDA36BE060013303F00703F7
:10AAB000A36304EB43036846A3F82880E16C0131EB
:10AAC00001F00701E16404EB41018E87226E01323F
:10AAD00002F00702226604EB42022146A2F850501F
:10AAE0000646FFF703FF0FCE04F110050FC596E8E9
:10AAF000030085E8030023682760FB1A002BC2BF10
:10AB000062689B18636006B0BDE8F08110B504462A
:10AB1000B0F9100020F0A1F9B0F5C07F0CDC236A79
:10AB2000B3F5446F08D8B4F9120010F5357F05DA93
:10AB3000636AB3F5446F04D900200FE010F13F0FB2
:10AB4000FADAB4F91A30B4F91820B4F91410FFF78E
:10AB50008BFE10F12D0FACBF0020012010BD38B5C9
:10AB60000D46C16C026E836B044601F0070007318D
:10AB700001F0070104EB400004EB4101B0F93C0097
:10AB8000B1F93C10401A02F00701073202F0070247
:10AB900004EB410104EB4202B1F95010B2F950202C
:10ABA00000EBD0708A1A02EB600003F00702073353
:10ABB00003F0070304EB420204EB4303B2F928203D
:10ABC000B3F92830D31A48BF033300EBA30020F0B9
:10ABD00044F964235843D4E902239B1AB0FBF3F0F1
:10ABE000636E05229B0090FBF2F093FBF2F3184496
:10ABF000A8426066D4BF0020012038BD10B50446CD
:10AC0000B0F91000B0F55E7F2CDAB4F9100010F541
:10AC10005E7F09DCB4F91A30B4F91620B4F91410C7
:10AC2000FFF722FE1E3027DBB4F91200B0F5357FA6
:10AC300016DBB4F91A30B4F91820B4F91410FFF780
:10AC400013FE1D280CDD0322E36C134403F00703FD
:10AC500004EB43030132B3F93C30B3F5847F0DDCE0
:10AC6000002010BDB4F91A30B4F91620B4F914104C
:10AC7000FFF7FAFD1E28C8DD0120F2E7082AE3D11C
:10AC8000FAE7012904D0022902D000238366704725
:10AC900081667047704700002DE9F3471E460C9B04
:10ACA000DDF83CA0C0F810A00446C0E90263C0E98A
:10ACB000001214300D460A9F04F5237900F07EFE41
:10ACC00004F5E27000F09CFB3146484600F020FCA1
:10ACD00004F549783A46294604F52C7001F0D4FA77
:10ACE0003A462946404600F00BFD314604F55670C1
:10ACF00001F094FA214604F5717001F09BFB314696
:10AD000004F5B56001F016FE04F5D26002F072FBA6
:10AD10000B9904F2747001F02BFF3A46294604F2B5
:10AD2000E47002F09FFA0D9A214604F6580002F0F2
:10AD300085FC0E9A214604F6B40002F015FD524639
:10AD4000294604F62C1001F073FF694604F6AC2086
:10AD5000CDE9009802F0FBFA4FF6FF730021A4F84A
:10AD6000BA3A84F8BC1A102204F6BD2020F022FA68
:10AD7000084B04F6CD2203F1100153F8040B42F8FE
:10AD8000040B8B42F9D11B781370204602B0BDE84A
:10AD9000F08700BF5117030010B5B6B004460A2271
:10ADA000002103A820F006FA6022002106A820F066
:10ADB00001FA602200211EA820F0FCF940F20223D3
:10ADC000ADF80C3094F8BC3A0E2B3CD82022ADF8EC
:10ADD0000E2001332F22ADF8102084F8BC3A062350
:10ADE0008DF8183004F6CD230B93BDF830301A4897
:10ADF000259023F4FF7323F0010343F4807343F0A1
:10AE00000103ADF8303080238DF83A3020F06EFD2C
:10AE10009DF899308DF8980043F0010306A88DF84D
:10AE2000993008F0E7FA1EA808F0F5FA0B4B0093EA
:10AE300094F8B80A019403AB4FF4FA62002108F0C9
:10AE4000D3F936B010BD40F26463ADF80E3040F275
:10AE50007363ADF81030C2E73C170300DDB10000AA
:10AE600008B5002017F0F4FD024B1868BDE8084053
:10AE7000FFF792BF80B80020B0F8BA1A4FF6FF7300
:10AE8000994203D000F6AC2002F082BA7047B0F8C5
:10AE9000BA0A70470A46B0F8BA1A4FF6FF739942D9
:10AEA00003D000F2747001F0B1BE704710B50446D3
:10AEB0004068FFF7DBFB6068FFF7D3FB002384F8F3
:10AEC000BC3A2046BDE81040FFF766BF10B5044607
:10AED0004068FFF7CEFB6068FFF7BEFB48B1B4F8EF
:10AEE000BA0A132108F0DEFA6068BDE81040FFF7E7
:10AEF000B8BBBDE8104008F06BB900002DE9F04187
:10AF0000ADF5687D0E4604464FF42072002148A836
:10AF100020F050F92022002102A820F04BF9502205
:10AF200000210AA820F046F9D6F80B00B6F80F2049
:10AF3000737C02900AA902A8ADF80C208DF80E309F
:10AF40000CF06CFC04F6BD280546102241460AA808
:10AF500020F0F8F8002879D010220AA9404620F005
:10AF600001F92022002102A820F024F9502200211A
:10AF70001EA820F01FF9D6F80B00B6F80F20737C3E
:10AF800002901EA902A8ADF80C208DF80E300CF02E
:10AF90004EFC2D185AD12022294602A820F00AF989
:10AFA000D6F80B00B6F80F20737C029001A903209D
:10AFB000ADF80C208DF80E3001950CF053FD48AE25
:10AFC0003746019BAB4208DD394602A88DF81230A6
:10AFD00001350CF058FC5037F3E72068012103F0ED
:10AFE00077F80E21206803F073F80A201BF0C4FBE9
:10AFF000184A20694FF4817333A904F048FA0546D2
:10B0000000BB50230AAA33A9206904F049FA50234F
:10B010001EAA33A9206904F043FA2069012301AA7A
:10B0200033A904F03DFA019B2069AB4207DD3246AB
:10B03000102333A904F034FA01355036F3E733A96D
:10B0400004F028FA20680D2103F042F80DF5687D20
:10B05000BDE8F0814717030070B50B788CB004464B
:10B060000E46112B0ED8DFE803F01B3B0D0D0D0D26
:10B070000D0D0D095363AF0D830D0DA54068FFF74E
:10B08000F3FA08B9002508E06068FFF7E5FA05461D
:10B090000028F7D12046FFF77FFE28460CB070BD90
:10B0A0004D6895B100F5237000F03DFA04F5497044
:10B0B00000F066FB4FF6FF73A4F8BA3A606800250B
:10B0C000FFF7CFFA84F8BC5AE4E70B89A0F8BA3A44
:10B0D0004068FFF7C3FA2068062102F0F9FFDCE7B9
:10B0E0000B7A5A0702D50831FFF708FF04F52370E1
:10B0F00000F019FA04F5497000F042FB4FF6FF73B7
:10B100006068A4F8BA3AFFF7A7FA0028BAD0D5E7E2
:10B110004D68002DB6D1308901A907F073FE9DF866
:10B1200004305B07B9D501A92046FFF7E7FEB4E775
:10B130000D79032DA6D11422002101A820F03AF8A0
:10B140008DF80450234D0FF047F8A842FBD8224B4E
:10B15000B0FBF3F203FB120063680290D861206831
:10B16000132102F0B5FFB08901A906F06FFF89E74E
:10B170000B7A022B0AD1F18804F6580002F0E7FAA4
:10B18000F18804F6B40002F0C5FB7BE74B7A03F0CC
:10B190000303022B0AD1C98800F6580002F0CBFA4B
:10B1A000F18804F6B40002F09FFB6BE7012B7FF4FB
:10B1B00069AFE0E701A9B08807F024FE0DF10F00A8
:10B1C0000CF023FC012568E700F5497000F0AAFAAD
:10B1D00058E700BF7F3DF1FF40420F000B4601469C
:10B1E0001846FFF739BF000030B5C1B000238DF815
:10B1F0000730224A0446012300692BA904F047F9CD
:10B200000546002838D10146502202A81FF0D2FF7F
:10B21000502302AA2BA9206904F03FF902A80CF0E0
:10B2200002FB5022294602A81FF0C4FF502302AAA5
:10B230002BA9206904F031F902A80CF0FDFA20696D
:10B2400001230DF107022BA904F027F99DF807301F
:10B250002069AB4209DD102316AA2BA904F01DF9C1
:10B2600016A80CF015FB0135F0E72BA904F012F934
:10B270000249206904F01BF941B030BD47170300B3
:10B2800037B5044604F066FD18B90A201BF074FABD
:10B29000F8E73C4B3C4A1C603C4BDA603C4A1A6184
:10B2A0003C4A1A6217F090FB17F0B2FB04F5E2700B
:10B2B00000F074F804F5237000F034F904F55670CA
:10B2C00000F0FEFE04F5717001F074F804F5B5604D
:10B2D00001F07AFB04F5D26002F0FAF804F52C7064
:10B2E00000F0C6FF04F1140000F03BFB04F27470A0
:10B2F00001F066FC04F2E47001F0DEFF04F6580091
:10B3000002F0CEF904F6B40002F068FA04F62C104C
:10B3100001F0C4FC002017F09BFB04F6B8210020CC
:10B320000DF092F81C4817F033FB6D46C22017F061
:10B3300045FB294694F8B80A00220DF05EF895E81E
:10B34000030063681861998294F8B83A032B06D811
:10B35000DFE803F0020F1215636800229A6109F01A
:10B3600079F92046FFF740FF2046FFF715FD03B0AF
:10B3700030BD63680122F1E763680222EEE763688B
:10B380000322EBE780B8002095AC000028000020E5
:10B3900061AE0000757A01003C17030010B500F1A2
:10B3A000A804204609F0F2FB2046BDE8104009F051
:10B3B000C9BB000013B58B6818680C460CF00EFF73
:10B3C000A0F52850243880B2052811D8094B6468AC
:10B3D00053F820100191084620F088FA019982B2B2
:10B3E000204615F0A7FD002818BF112002B010BD9F
:10B3F0000E20FBE79C17030011461846FFF7DABF43
:10B4000010B5A822002104461FF0D4FE1A4A1B4999
:10B410001B4B2360C4E906121A492462C4E90C12CA
:10B420001949A463C4E9121218492465C4E9181221
:10B430001749A4660223C4E91E12C4E90124238229
:10B440002385A4F84030A4F85830A4F87030A4F84C
:10B450008830C4F880402022002104F1A8001FF0A9
:10B46000A9FE012384F8A8300A4BC4F8AC30C4F814
:10B47000B440204610BD00BFF9B300009017030090
:10B48000941703008C170300881703008417030028
:10B490008017030098170300F0B587B000230493CA
:10B4A000936804460F46164602AD3BB10222314670
:10B4B00028469847F3680593B368049395E803001A
:10B4C0006A4604F1140382E8030093E8030085E868
:10B4D000030092E8030083E80300049AE369216A09
:10B4E000E261059A0493059122621BB10322294669
:10B4F00028469847044A05492346384607B0BDE820
:10B50000F0400AF0C5BA00BFA9B50000B8170300A3
:10B51000034AC0E90021002202728273C2617047AF
:10B52000C41703007047002303728373704707B585
:10B530008268ADF806100AB91FF054FCC3680DF11B
:10B540000601984703B05DF804FB000073B505469B
:10B550001E460846ABB913880E2B03D000242046A4
:10B5600002B070BD2C7A34B10D4BAA89698900955F
:10B570000AF0B9FAF3E705F11400FFF7D8FF012448
:10B58000EDE70848191D0CF0CCFD04460028E5D174
:10B5900001232B7233886B817388AB81DFE700BF97
:10B5A00009B60000B817030010B504461846134644
:10B5B0000A462146FFF7CAFF10BD000038B5044611
:10B5C0001D46084683B913880E2B06D1A37B33B1E1
:10B5D0000B4A218A23460AF0C9FA002038BD04F13B
:10B5E0001400FFF7A4FFF8E7064803F108010CF088
:10B5F00098FD0028F1D10123A3736B882382ECE727
:10B6000073B60000B417030010B40446184613467E
:10B610000A4621465DF8044BFFF7D0BF30B50D4612
:10B620001188044689B01846D9B905AB0A2240688A
:10B6300015F005FD9DF815309DF814109DF81620A5
:10B64000606801EB03219DF81A3002939DF81930D0
:10B6500001939DF81830009389B29DF81730FFF7D9
:10B66000D3F804F114002946FFF761FF002009B068
:10B6700030BD10B40446184613460A4621465DF80C
:10B68000044BFFF7CBBF0000F0B587B00023049355
:10B69000936804460F46164602AD3BB1022231467E
:10B6A00028469847F3680593B368049395E8030028
:10B6B0006A4604F1200382E8030093E8030085E86A
:10B6C000030092E8030083E80300049AA36AE16A96
:10B6D000A262059A04930591E2621BB103222946F6
:10B6E00028469847044A05492346384607B0BDE82E
:10B6F000F0400AF0CDB900BFF1B70000DC1703003D
:10B7000010B5074C04600024C0E90144C0E90344BB
:10B71000C0E90612848284758462048610BD00BF6D
:10B72000E8170300F0B50A8983899A429DB005465F
:10B7300024D14868048A032C20D90134672C28BFFF
:10B740006724261F002732466B4603211A97ADF85F
:10B750006C7015F074FC04F16C030DEB0306E869E2
:10B7600006F8707C01236946033C8DF865401A9306
:10B77000FEF78CFFA869042102F0AAFC1DB0F0BD01
:10B780000023C0E90133C0E9033383828375038654
:10B790007047000073B505461E460846ABB91388CE
:10B7A0000E2B03D00024204602B070BDAC7D34B116
:10B7B0000D4BEA88A98800950AF095F9F3E705F1A1
:10B7C0002000FFF7B4FE0124EDE70848191D0CF036
:10B7D000A8FC04460028E5D13388AB807388EB8051
:10B7E0000123AB75DFE700BFC9B80000DC17030019
:10B7F00010B50446184613460A462146FFF7CAFF0D
:10B8000010BD000030B51D461388044685B00846BB
:10B81000002B3ED00E2B30D0014604F12000FFF764
:10B8200086FE002005B030BD6B886381F9E76B8828
:10B83000A3812B882382012384F83030F1E76B88C1
:10B840006382EEE71A4803910CF06BFC0028EBD002
:10B85000039918480CF065FC0028E8D003991648B5
:10B860000CF05FFC0028EAD0039914480CF059FC56
:10B870000028D6D16B88A382D3E765B994F830301D
:10B88000002BC9D00E4BE288A18900940AF04BF935
:10B89000C7E7002DC5D005F108010A4803910CF057
:10B8A00040FC03990028CDD16B882381B9E700BF04
:10B8B000D4170300D0170300CC170300C8170300E8
:10B8C0004DB90000D817030010B4044618461346BB
:10B8D0000A4621465DF8044BFFF794BF08B50146C0
:10B8E00003F12000FFF723FE002008BD7FB512887A
:10B8F000089E04460D46EAB982899A4217D111483A
:10B90000311D0CF00EFC90B1E38983B931888DF8BC
:10B910000D3001220C4B84F831208DF80C2000935F
:10B92000E1810194022303AA28460AF060F900206D
:10B9300004B070BD90F83130002BF8D12030FFF703
:10B94000F6FDF4E7D0170300DDB8000010B404469C
:10B950000198019313460A4621465DF8044BFFF710
:10B96000C5BF10B500F5B674204609F00FF92046A2
:10B97000BDE8104009F0E6B808B50B46022200F514
:10B980008471184615F0D6FA002818BF112008BD9A
:10B9900013B50022074BC0E90122044600934FF47F
:10B9A0007A71034604481BF0D3FC2060204602B0A5
:10B9B00010BD00BF19BB0000EC17030073B50025D4
:10B9C00083604FF4E8230446C0E90012C0E906355D
:10B9D000C0E9045505730562A0F8EC50F030FFF79C
:10B9E000D7FF04F586760823A4F80831294660229B
:10B9F00030461FF0DFFB214BC4F80C310422204BF2
:10BA0000A4F81C211F4AC4F82C41C4E94923182278
:10BA1000A4F834211C4AC4F84441C4E94F23C4E9C2
:10BA200044340223A4F84C3104F58473C4F8503133
:10BA30002946202204F5B6701FF0BCFB012384F8D0
:10BA40006C31124BC4F87031114B0093C4E9655549
:10BA5000C4E96755C4F87861A4F89251C4F8A451B8
:10BA6000A4F8A85123462A4642F2107109481BF057
:10BA70006FFCC4F8AC01204602B070BD3018030062
:10BA8000ADC000001F1803000E180300411803008A
:10BA90007DBB0000EC17030073B505460E46AC688D
:10BAA00010461946069AACB90A2A15D8AA60E88049
:10BAB000AE8005F10C001FF055FB2D681AF018FD43
:10BAC000009402462346012128461BF08DFC0120EC
:10BAD00002B070BD0020FBE72046F9E738B51846F4
:10BAE0000C46BDF81010154604F0D0FF294602465A
:10BAF0002046BDE838400AF091B8836813B5044683
:10BB000043B10093C288818800F10C03FFF7E6FF80
:10BB10000023A36002B010BD08B51BF0A3FCBDE874
:10BB20000840FFF7EABF07B50023C0E901330093DF
:10BB30001A46032100681BF057FC03B05DF804FBB4
:10BB400010B500230446A0F89231C0F8A431A0F843
:10BB5000A831C0E96533C0E96733F030FFF7E3FF90
:10BB60006068FEF78CFD20680821BDE8104002F0F7
:10BB7000AFBA43680322DA60FFF7E2BF08B51BF0F3
:10BB800071FCBDE80840FFF7F4BF000030B5094B79
:10BB900005460FCB85B06C4684E80F0029692868FC
:10BBA00001F57F311023224601F57C71FDF74EFA35
:10BBB00005B030BD5418030070B50379044615462E
:10BBC0008BB300F11C06406930441FF0CBFA636967
:10BBD0002B44C82B63610CD1A1692068324601F562
:10BBE0008021FDF733FAD4E905231344A361002330
:10BBF00063616369BBB1A169E2685818904212D1D0
:10BC00003246206801F58021FDF720FAD4E90523AA
:10BC10001344A361D4E903239A4204D22046BDE829
:10BC20007040FFF7B3BF70BD38B5054600242B69DF
:10BC3000A34207D904F580212868FDF7C1F904F56E
:10BC40008054F4E738BD9BB118880A44914212D061
:10BC500011F8013B40BA80B25840C0F3031358407A
:10BC600080EA0033580100F4FF509BB25840EDE7E2
:10BC70004FF6FF70E9E770472DE9F34100260546CE
:10BC8000ADF806604FF0010800F11C07EC68B44203
:10BC90001CD9A41BC82C28BFC824286823463A46B0
:10BCA00006F58021FDF768F9B8F1000F0BD00023ED
:10BCB000224639462846FFF7C6FF2644ADF806005F
:10BCC0004FF00008E2E70DF10603F1E7B5F8E400F4
:10BCD000BDF80630C31A5842584102B0BDE8F081A1
:10BCE00030B513681A78013A87B00446072A21D87C
:10BCF000DFE802F0042340558A20203C94F892515A
:10BD0000C5B95B78042B15D10223606884F89231A1
:10BD1000FEF7B2FC63680122DA6060684FF0FF3121
:10BD2000FEF7B0FC60682946FEF7AEFC20680721EC
:10BD300002F0CEF9002007B030BD94F89221012A1C
:10BD4000F8D15B78002BF5D010238DF81430022346
:10BD50008DF815308DF816200323B4F88E2100934A
:10BD600004F1F00005ABFFF797FEE3E75B7884F89A
:10BD70009331DFE794F89231012BDBD1D4F8A41191
:10BD800023730023C4E90733B4F8A821A4F8EC20F6
:10BD900014200323C4E9040184F89231CAE794F81B
:10BDA0009231042BC6D104F108000391FFF764FF20
:10BDB0000346039904F1F00093B1052384F892310E
:10BDC00063680222DA60144B1A889B788DF816306B
:10BDD0000323ADF814200093B4F88E2105ABC2E71D
:10BDE0000E4B03251A889B78ADF814208DF8163079
:10BDF000B4F88E21009505ABFFF74EFE6368DD6059
:10BE00002046FFF79DFE95E794F89231052B91D1DE
:10BE100063680222DA60F3E7FE17030002180300EA
:10BE20000246007920B1D06893691B1A58425841E4
:10BE3000704700002DE9F04184B090F89231022B58
:10BE400002AF04460E46154623D0032B7CD0012BAF
:10BE500075D11268517A137A03EB01239BB2590012
:10BE600007316E46C908A6EBC1018D460DF1080CDD
:10BE700002F10A0000218B4200F1020054DD10F8AB
:10BE800001EC10F8025C05EB0E252CF81150013185
:10BE9000F1E712685178137803EB01239178D27897
:10BEA00003EB014303EB0263C0F89C312A6851792C
:10BEB000137903EB01239179D27903EB014303EB6F
:10BEC0000263C0F8A0312A68517A137A03EB012388
:10BED000917A03EB0143D17A03EB0161C0F8A4111D
:10BEE0004068FEF7CFFB2368D3F8443BC3B1032B74
:10BEF00016D004F10800FFF797FE3A4B1A889B789A
:10BF0000BB7003233A803146B4F88E21009304F1CC
:10BF1000F0003B46FFF7E2FD012384F892310EE08A
:10BF200032201AF029FCDEE7053302EB430112F858
:10BF30001330497803EB0123A4F8A831B54600205B
:10BF40000837BD46BDE8F081D0F894310133C0F820
:10BF5000943100F10808D28829684046FFF72CFE8A
:10BF6000D4F89831E98860681944C4F89811FEF74C
:10BF70008BFB94F89321D4F89431B3FBF2F102FBDC
:10BF80001133C3B9D4F89831D4F8A421934212D014
:10BF900011223A701A0A7B70BA701A0C1B0E3B7190
:10BFA0000523FA703146B4F88E21009304F1F000B5
:10BFB0003B46FFF793FD4046FFF732FF0028BED017
:10BFC000094B1A889B78BB7003233A803146B4F83A
:10BFD0008E21009304F1F0003B46FFF77FFD042320
:10BFE0009BE700BF061803000A1803002DE9F34180
:10BFF0001D4643689B7804460F46164653B1D0F859
:10C00000AC811AF075FA00230246009301214046E4
:10C010001BF0EAF92149224804F5C673002208F012
:10C020007EFD20491E4804F5C773002208F077FD05
:10C0300004F5C8731C491A48002208F070FDB4F8D2
:10C040008C31B3420AD12B78012B23D16A6839464F
:10C05000204602B0BDE8F041FFF7ECBEB4F88E31E7
:10C06000B3420AD12B78012B14D16A683946204695
:10C0700002B0BDE8F041FFF733BEB4F89031B342EF
:10C0800008D12B7833B96968204602B0BDE8F04189
:10C09000FFF772BC002002B0BDE8F0813018030049
:10C0A000411803001F1803000E18030010B40446C3
:10C0B000184613460A4621465DF8044BFFF796BF23
:10C0C00010B500F14804204608F060FD2046BDE8A8
:10C0D000104008F037BD30B50C460978012989B009
:10C0E000054623D1606805AB0A22002114F0A7FFA2
:10C0F000002802DA0D2009B030BD9DF815309DF8FA
:10C1000014109DF81620A86E01EB03219DF81A303B
:10C1100002939DF8193001939DF81830009389B26D
:10C120009DF81730FEF770FB0020E4E70029FBD1F3
:10C13000826E6068536903F26C739BB28DF81430A1
:10C140001B0A8DF81530136901338DF81630D3684A
:10C150008DF8173093688DF8183053688DF81930C2
:10C1600013688DF81C100A2205A98DF81A3014F0F6
:10C17000E1FE002818BF1120BDE737B50B78012B71
:10C1800005460C4613D1606801AB0222002114F071
:10C1900056FF002802DA0D2003B030BD9DF90520BE
:10C1A0009DF90410A86EFEF7ABFA0020F4E7002B0F
:10C1B000FBD1836E606893F824208DF8042093F8F7
:10C1C00025308DF80530022201A914F0B3FE0028B5
:10C1D00018BF1120E0E738B58B68054618680C4693
:10C1E0000BF0FCFF42F60F23984209D042F62B23B6
:10C1F00098420BD121462846BDE83840FFF76BBF77
:10C2000021462846BDE83840FFF7B7BF4FF0FF3062
:10C2100038BD11461846FFF7DEBF000038B548228A
:10C2200004460D4600211EF0C5FF0D4A0D4B0E4978
:10C2300023600A23C4E90612C4E90124238223856A
:10C2400024622022002104F148001EF0B3FF0123E4
:10C2500084F84830054BE3646465A566204638BD24
:10C2600013C2000064180300681803006C18030070
:10C2700010B500F14804204608F088FC2046BDE8CF
:10C28000104008F05FBC000070B504460E4615462D
:10C29000002148221EF08EFF0F4B236008220F4B17
:10C2A00022820F4A2462C4E90623C4E90134102320
:10C2B000238504F17003E3622022002104F1480089
:10C2C0001EF078FF012384F84830064BE364C4E98C
:10C2D0001A656465204670BD821803006BC30000B8
:10C2E00070180300861803002DE9F04391F80090C0
:10C2F000B9F1010F9FB006460D4632D14868048A55
:10C30000032C2ED90134672C28BF6724271F4FF038
:10C3100000083A4602AB0321CDF87080ADF8748076
:10C3200014F08DFE0DF107034A464146686814F08B
:10C3300086FE04F174030DEB03079DF80730F06EE1
:10C3400007F8708C032B0CBF0423012302A9033CC4
:10C350008DF86D401C93FEF799F9B06E042101F041
:10C36000B7FE00201FB0BDE8F08311461846FFF766
:10C37000BBBF000008B50368002B02DA0C481EF0B2
:10C380002EFD8B420AD9B3EB410F4FEA410205D291
:10C39000002AB6BF6FF000430260036000680130FE
:10C3A00001D51EF016FDBDE808401EF001BD00BF1E
:10C3B0008A18030010B500F5A874204608F0E6FBC3
:10C3C0002046BDE8104008F0BDBB012A30B403D1BF
:10C3D0000B78037030BC7047002AFBD030BC1EF0D5
:10C3E000C1BE000000F1080373B5044603600D46AA
:10C3F000D1B108461FF07AFA0F280646019006D9F7
:10C40000002101A8FFF7B6FF019B2060A360206810
:10C4100032462946FFF7D9FF019B2268636000215D
:10C420002046D15402B070BD01481EF0D5FC00BFBB
:10C43000A21803002DE9F347002504460E46A0F894
:10C44000705101AA7449754FDFF808A200F5BA705F
:10C45000FFF7C8FF04F5CA73C4E9633501AA704940
:10C4600084F8945104F5D270FFF7BCFF4FF07E536F
:10C47000C4F8DC611826C4F8D43132462946C4E930
:10C480007055C4E9725584F8BC51C4F8D051A4F871
:10C49000D85120461EF08EFE624B23604FF01009EB
:10C4A00004F5B873636132462946C4E90174A4F8FF
:10C4B0001090A0191EF07EFE5B4B24624FF00A081C
:10C4C000C4E9063732462946A4F8288004F1300032
:10C4D0001EF070FE554BA463C4E90C373246294662
:10C4E000A4F8408004F148001EF064FE504B24651F
:10C4F000C4E9123732462946A4F8588004F1600096
:10C500001EF058FE4B4BA466C4E918373246294644
:10C51000A4F8708004F178001EF04CFE464BC4F87D
:10C520008040C4E91E3732462946A4F8888004F1C9
:10C5300090001EF03FFE32462946C4E924A7C4F805
:10C540009840A4F8A08004F1A8001EF033FE324603
:10C550002946C4E92AA7C4F8B040A4F8B88004F179
:10C56000C0001EF027FE354BC4F8C840C4E9303780
:10C5700032462946A4F8D08004F1D8001EF01AFEF5
:10C580002F4BC4F8E040C4E9363732462946A4F8B8
:10C59000E88004F1F0001EF00DFE2A4BC4F8F840CC
:10C5A000C4E93C3732462946A4F8008104F584707A
:10C5B0001EF000FE244BC4F81041C4E94237324655
:10C5C0002946A4F8188104F590701EF0F3FD1F4B66
:10C5D000C4F82841C4E9483732462946A4F83081D6
:10C5E00004F59C701EF0E6FD4A46294604F5A87045
:10C5F0001EF0E0FD012384F85031154BC4F854318E
:10C60000C4F85C414A46294604F5B0701EF0D2FDDC
:10C61000204602B0BDE8F087CC180300FDC800003A
:10C62000D8180300FD180300411903000E19030078
:10C630001F190300EC180300631903009619030087
:10C6400074190300A71903003019030052190300DD
:10C65000B819030085190300012A30B403D10B78FF
:10C66000037030BC7047002AFBD030BC1EF088BD80
:10C670002DE9F3410646B04608460D461FF036F94F
:10C6800058F8087B474514BFB1680F21884204461B
:10C690002AD8AF420BD871687A18AA4207D370B96A
:10C6A0003368746000221A5502B0BDE8F081002C96
:10C6B000F6D0224629463846FFF787FEF0E781424A
:10C6C00027D3224629463846FFF7C6FFE8E7A2EB04
:10C6D0000508424629463846FFF7BEFFA4EB08028C
:10C6E000391907EB0800E7E7019001A8FFF742FEC0
:10C6F00007461CB122462946FFF767FE3068804591
:10C7000003D0B16801311EF042FB019B3760B3607A
:10C71000C6E72B189A42D4D29542D8D3611A224642
:10C720002944C8E72DE9F0470B78012B00AF0446F8
:10C730000D462ED14868B0F810A0BAF1280FD146A6
:10C7400028BF4FF0280909F10803E846DB08A8EBE9
:10C75000C3039D464A46002114F071FCCA456E464B
:10C7600008D90DEB09032E2203F8012C03F8022C43
:10C7700003F8032C002306F80930AB685349186806
:10C780000BF0CFFC48B9314604F5BA70FFF770FFE3
:10C79000C5460020BD46BDE8F087AB684C49186827
:10C7A0000BF0BFFC18B9314604F5D270EEE7AB6868
:10C7B000484918680BF0B5FC18B9314604F5C67045
:10C7C000E4E7AB68444918680BF0ABFC18BB33785E
:10C7D000002B14BF0123002384F8BC3104D019F0CE
:10C7E00087FEC4F8D001D3E719F082FED4F8D03127
:10C7F00094ED757AC31A07EE903AFBEECB7AD4F833
:10C80000C03167EE877AFDEEE77A17EE902A13447F
:10C81000C4F8C031BCE7AB68304918680BF081FC44
:10C8200030B93378003B18BF012384F8D831AFE723
:10C83000AB682B4918680BF074FC30B93378003BB7
:10C8400018BF012384F8D931A2E7AB6825491868DD
:10C850000BF067FC20B933681BBAC4F8C031BEE7DF
:10C86000AB68214918680BF05CFC20B933681BBA2F
:10C87000C4F8C4318CE7AB681C4918680BF051FC54
:10C8800020B933681BBAC4F8C83181E7AB681849CE
:10C8900018680BF046FC20B933681BBAC4F8CC31D9
:10C8A00076E7AB68134918680BF03BFC00287FF46F
:10C8B0006FAF3368DFED106A1BBA07EE903AF8EEFF
:10C8C000E77A87EEA67A84ED757A61E71F1903008F
:10C8D0000E190300EC18030041190300301903007E
:10C8E0005219030063190300851903009619030008
:10C8F00074190300A71903000000C8421146184626
:10C90000FFF710BF43790179427801EB0321837966
:10C9100001EB0341C37901EB0361037803EB0223CD
:10C920008278C07803EB024303EB006001EBE07117
:10C9300070470000F8B5214B04460E46024603F14D
:10C94000100718685968154603C50833BB422A46C4
:10C95000F7D11B782B701A4B04F1110203F110016F
:10C96000174653F8040B42F8040B8B42F9D11B789D
:10C97000137004F124053022002128461EF01AFC11
:10C98000104B6762C4E90A340823A38604F17403D8
:10C99000A3632022002104F154001EF00BFC0123AC
:10C9A00084F854300023A4652566A4F87430A66783
:10C9B00084F8B03084F8E0302046F8BDC91903008F
:10C9C000DA19030069CB000010B500F154042046C9
:10C9D00008F0DCF82046BDE8104008F0B3B82DE9B7
:10C9E000F0474B681C68237896B006462BB1012BA4
:10C9F0005BD0002016B0BDE8F0876578002DF8D137
:10CA0000202204F1100101A81EF0ACFBA01C8DF83F
:10CA10002450FFF777FFE37A94F80AC0277BA27BC4
:10CA200094F830900CEB032C637B07EB0327E37B3C
:10CA300002EB032280468E460FFA8CFC3FB212B204
:10CA400001AB0DF137040DF1240A1D4603CD554508
:10CA5000206061602B4604F10804F6D12B78237026
:10CA600096F8B030ADF830C0CDE90A8E06F18004FA
:10CA7000ADF83270ADF834208DF836900AAD43B180
:10CA80000FCD0FC40FCD0FC495E80F0084E80F0041
:10CA9000AFE70FCD0FC40FCD0FC495E80F0084E8AA
:10CAA0000F00012386F8B030A3E794F80180B8F1B5
:10CAB000000F9ED1A01CFFF725FFA57A0DF1040EF3
:10CAC000052D84460F4628BF05250B344246734684
:10CAD000954204F105040EF1060E15DD14F8020C62
:10CAE00014F8031C14F8049C14F8018C0EF8028C42
:10CAF00001EB002114F8050C2EF8041C00EB0920B2
:10CB00002EF8060C0132E3E70DF132020DF11C0E96
:10CB10001C4603CC744510605160234602F10802A4
:10CB2000F6D120681060A388938096F8E0308DF8E5
:10CB30003050CDE90AC706F1B8040AAD43B10FCDB4
:10CB40000FC40FCD0FC495E8030084E8030050E73D
:10CB50000FCD0FC40FCD0FC495E80300012384E867
:10CB6000030086F8E03044E711461846FFF737BF68
:10CB700038B50546044645F8041B482200212846DE
:10CB80001EF018FB0B4B63600B4BC4E902341223FD
:10CB9000A38204F16C03A3612022002104F14C0064
:10CBA0001EF008FB012384F84C30044B2365A56577
:10CBB000204638BDEC19030007CC0000F019030033
:10CBC00010B500F14C04204607F0E0FF2046BDE818
:10CBD000104007F0B7BF07B51346B0F86C208A4283
:10CBE0000FD10268586812798DF807200DF10701FE
:10CBF000012214F09FF9002818BF112003B05DF83E
:10CC000004FB0020FAE71846FFF7E5BF37B50546F5
:10CC10000C460DF1070001218DF8072003F036FFC7
:10CC2000B5F86C100246204608F0F8FF03B030BD9E
:10CC300038B5042300F10C050446C0E90012038155
:10CC40004822002128461EF0B5FA0222A2830F4B8B
:10CC5000E36004F174020E4B22620E4AE462C4E9FE
:10CC60000923C4E904341A23A38604F17603A363D9
:10CC70002022002104F154001EF09CFA012384F8C4
:10CC80005430054BA3652566204638BD051A0300C0
:10CC90004FD20000F4190300161A030010B500F17A
:10CCA0005404204607F072FF2046BDE8104007F00C
:10CCB00049BF2DE9F047ECB0136800AF04460D46BC
:10CCC000006893F800801721164601F001FA0A2047
:10CCD00019F052FD2368D3F8443B002B00F081800B
:10CCE000032B7ED03422002107F120001EF062FACF
:10CCF0004FF48472002107F1A8001EF05BFA542261
:10CD00000021B8181EF056FAB8F1300F00F08881F3
:10CD100047D8B8F1200F00F043810CD8B8F1100FBC
:10CD200061D0B8F1120F00F0D9802068182101F00D
:10CD3000CFF900205FE0B8F1220FF6D1D6F80080DD
:10CD4000606821233B71D8F80430BB6004F179029C
:10CD500040F2031307F1540102F099FB0646B8B9FB
:10CD6000D8F80420606807F1540102F09CFB061E0D
:10CD700009DBD8F80830606808F10C0207F15401AB
:10CD800002F08EFB0646606807F1540102F082FB58
:10CD9000002E6068B8BF7E7102F0A1FBD8F80420B5
:10CDA0002EE1B8F1500F00F08681B8F1600F00F06D
:10CDB0000682B8F1400FB8D131684E8806F10803F9
:10CDC000E946DB08A9EBC3039D460022E8468DF83F
:10CDD00000200DEB0600984200F0558103F8012F6A
:10CDE000F9E7642074E73668B6F80280B8F5807F0A
:10CDF00006D94FF0FF3007F5D877BD46BDE8F0877C
:10CE000004F17909424606F10C014846A0441EF09F
:10CE1000A9F9002388F8793011233B7101237B7134
:10CE200073686068BB6007F1A802494602F054FBD2
:10CE3000023014D197F8A830022B10D0FE237B715A
:10CE400010210023381DC7E9033303F01FFE0646F7
:10CE50003246B4F87610284608F0E0FE65E7D7F8C9
:10CE6000AC30B2689A4294BF3A613B61FB604A467B
:10CE7000012307F15401606802F009FB72686068E1
:10CE800007F1540102F00FFB3B69DA1D22F00702A3
:10CE9000E846ADEB020D6A46002002F8010BE946B8
:10CEA000991E002903DB02F8010B0139F9E74A4614
:10CEB00007F15401606802F0F0FA10213861381D62
:10CEC00003F0E4FD3A8A4946064614F033F86068F8
:10CED00007F1540102F0DEFAC546B9E711233B71B0
:10CEE0003668606801237B7104F179087368BB6060
:10CEF00007F1A802414602F0EFFA02301DD197F87F
:10CF0000A830022B19D0FE237B710023C7E903331D
:10CF10003B69002B3ED0DA1D22F00702E946ADEB5B
:10CF2000020D6A46002002F8010BE846991E00290E
:10CF300019DB02F8010B0139F9E7D7F8AC30B26818
:10CF40009A4294BF3A613B61FB60424607F154014B
:10CF50006068012302F09BFA7268606807F154016F
:10CF600002F0A1FAD4E7424607F15401606802F0EA
:10CF700094FA10213861381D03F088FD3A8A414641
:10CF8000064613F0D7FFCD46606807F1540102F062
:10CF900081FA5DE71021381D03F078FD0646F3E7BE
:10CFA0003668B6F80280B8F5807F3FF622AF04F10C
:10CFB0007909424606F114014846A0441EF0D2F811
:10CFC000002388F879303269C4F87C2121223A7133
:10CFD000726860683B61C7E9022307F1540140F2BF
:10CFE00003134A4602F053FA30B9606807F154015E
:10CFF00002F050FA01237B71606802F070FA7268E7
:10D00000D4F87C3100039B1AC0F55310834294BFBF
:10D010007B6178611421381D03F038FD024618E762
:10D0200031684E8806F10803E946DB08A9EBC30323
:10D030009D460022E8468DF800200DEB0600834255
:10D0400002D003F8012FFAE73246043140461EF0C1
:10D0500089F8002308F806307B7141463123606867
:10D060003B7102F024FA002808BF012078710221E8
:10D07000381D03F00BFDB4F876100246284608F080
:10D08000CDFDCD4651E63246103140461EF06AF8DD
:10D09000002108F806101022381D1EF08BF84123DD
:10D0A000414660683B7102F011FA002808BF012078
:10D0B00078711021DCE731684A8802F10803E846FC
:10D0C000DB08A8EBC3039D4600236E468DF80030B5
:10D0D00068460DEB020C844502D000F8013FFAE7E8
:10D0E000B354043130461EF03DF81C220021381D97
:10D0F0001EF060F851233B716068012307F12002A4
:10D1000031467B7102F0D6F960B178711C21381D6F
:10D1100003F0BCFCB4F876100246284608F07EFD09
:10D12000C54602E6606807F1A80207F1200102F097
:10D13000C7F9064618B1FB680133FB60F2E7606887
:10D1400007F1200102F0BFF94FF00109606807F113
:10D15000A80207F1200102F0B3F900282ADD97F8B0
:10D16000A830012B1DD0022B20D007F1B0001EF0FB
:10D17000BDFB1C21F880381D03F088FCFA8882462C
:10D1800007F1B00113F0D6FEB4F8761052462846E7
:10D1900008F044FD642019F0EFFABB680133BB606E
:10D1A000D4E7D7F8AC303E61FB61DEE7C7F81090FA
:10D1B000FE61DAE70023FB61FB803B61A6E736688E
:10D1C0007188731800209871B38803F10802E8464B
:10D1D000D208A8EBC2029546E9468DF800006B44E0
:10D1E000934202D002F8010FFAE70731B2883144C6
:10D1F00048461DF0B7FFB2886068002309F8023086
:10D200007B71B11D61234A463B7102F062F943B262
:10D21000002B08BF01207871022178E738B5B0F8FB
:10D220007450954208D100F108010222586813F0A9
:10D2300081FE50B9002038BDB0F876409442F9D153
:10D240005A68BDE83840FFF734BD1120F3E710B449
:10D250000446184613460A4621465DF8044BFFF77C
:10D26000DDBF000038B500F108050446C0E9001232
:10D270004822002128461DF09DFF0C4BA3600C4B5B
:10D28000C4E903340423238304F17003E3612022FF
:10D29000002104F150001DF08DFF012384F850306F
:10D2A000044B6365E565204638BD00BF421A0300A4
:10D2B00035D30000461A030010B500F15004204693
:10D2C00007F064FC2046BDE8104007F03BBC0000BE
:10D2D00010B5B0F870308B429EB0044622D113785E
:10D2E000012B1FD153681B681B78022B96BF0F4A76
:10D2F0000F4952F823100191002308461C93ADF802
:10D3000074301EF0F3FA0199024602A81DF02AFFBC
:10D310006068012302A91C93FDF7B8F92068042175
:10D3200000F0D6FE00201EB010BD00BF4C1A030056
:10D33000091803001846FFF7CBBF012A02D101608C
:10D3400000207047022A04BF0B680360F8E7034619
:10D35000021D03C982E80300184670471FB5036821
:10D360001B681A681468084A0392084A00900292DF
:10D3700018466A46A047029B1BB16946032208462D
:10D38000984704B010BD00BFADD300003BD30000F0
:10D39000021D0260FFF7E2BF02680346043243F851
:10D3A0000C2B9A4201D0FFF7D9BF7047098800685B
:10D3B000FFF7F2BF08B50368002B02DA0C481DF036
:10D3C0000EFD8B420AD9B3EB410F4FEA410205D261
:10D3D000002AB6BF6FF000430260036000680130AE
:10D3E00001D51DF0F6FCBDE808401DF0E1BC00BF12
:10D3F0008A180300F8B500F1A0030025C0F89830A2
:10D4000000F1B803C0E92C3500F1D00304462A4FDF
:10D41000C0F89C50C0E93235294680F8A05080F809
:10D42000B85080F8D05018221DF0C4FE0A26234BB5
:10D43000236018222946A018C4E9017426821DF031
:10D44000B9FE1F4B2462C4E90637294626851822F7
:10D4500004F130001DF0AEFE1A4BA463C4E90C3792
:10D460002946A4F84060182204F148001DF0A2FEED
:10D47000154B2465C4E912372946A4F858601822D0
:10D4800004F160001DF096FE2946102204F1780098
:10D490001DF090FE012384F878300C4BE367C4F84C
:10D4A00084401022294604F188001DF083FEC4F850
:10D4B000E0502046F8BD00BF35D60000581A0300E2
:10D4C0008B1A0300691A03007A1A03009C1A0300DE
:10D4D00010B500F17804204607F058FB2046BDE85F
:10D4E000104007F02FBB2DE9F3410646B046084631
:10D4F0000D461EF0FBF958F8087B474514BFB1688C
:10D500000F21884204462AD8AF420BD871687A1896
:10D51000AA4207D370B93368746000221A5502B06A
:10D52000BDE8F081002CF6D0224629463846FEF7A9
:10D530004CFFF0E7814227D3224629463846FFF7C1
:10D540008BF8E8E7A2EB0508424629463846FFF784
:10D5500083F8A4EB0802391907EB0800E7E701900C
:10D5600001A8FFF727FF07461CB122462946FEF710
:10D570002CFF3068804503D0B16801311DF007FCF5
:10D58000019B3760B360C6E72B189A42D4D295420C
:10D59000D8D3611A22462944C8E70000F8B50B78B1
:10D5A000012B00AF05460C4619D14868028A02F1EA
:10D5B00008036E46DB08A6EBC3039D4600210DF869
:10D5C000021013F03CFDA368164918680AF0A9FD83
:10D5D00040B9694605F19800FFF785FFB546002080
:10D5E000BD46F8BDA368104918680AF09AFD18B93D
:10D5F000694605F1B000EFE7A3680C4918680AF026
:10D6000090FD18B9694605F1C800E5E7A368084927
:10D6100018680AF086FD0028E0D19DF80030C5F8B2
:10D62000E030DBE7581A03008B1A0300691A030085
:10D630007A1A030011461846FFF7B0BF70B500F123
:10D6400008060446C0E90012154600213022304683
:10D650001DF0B0FD0F4BA3600F4BC4E90334122340
:10D66000238304F15803E3612022002104F13800F0
:10D670001DF0A0FD012384F83830084BE36300233C
:10D680002846666484F85A30214601F049FA20465B
:10D6900070BD00BFAE1A0300EBD60000B21A030043
:10D6A00010B500F13804204607F070FA2046BDE8B6
:10D6B000104007F047BA13B5B0F858308B42144603
:10D6C0004FF000030FD142688DF804306068137A80
:10D6D0008DF80530022201A913F02CFC002818BF98
:10D6E000112002B010BD1846FBE71846FFF7E3BF54
:10D6F0001FB5BFF35B8F90F85A30BFF35B8F0446C2
:10D70000BBB100238DF80D1003A802218DF80C3059
:10D7100003F0BCF901902068FDF7B9FB431E9BB2F2
:10D720004FF6FD718B4204D8019AB4F8581008F0F6
:10D7300075FA04B010BDB0F858308B4206D1BFF373
:10D740005B8F012380F85A30BFF35B8F7047B0F8CE
:10D7500058308B4206D1BFF35B8F002380F85A30DC
:10D76000BFF35B8F7047000070B500F108060446F8
:10D77000C0E9001215460021482230461DF01AFD6E
:10D7800004F17001114B124AA360E16112231149A7
:10D790002383238604F17203C4E90812C4E9032435
:10D7A0006363A4622022002104F150001DF002FDF9
:10D7B000012384F85030084B6365002384F87430EB
:10D7C00084F87530E665EC66204670BDC71A030024
:10D7D0005DD80000D81A0300B61A030010B500F196
:10D7E0005004204607F0D2F92046BDE8104007F06B
:10D7F000A9B913B5B0F870308B4214460CD1436808
:10D800001B68009304226068694613F093FB0028AC
:10D8100018BF112002B010BDB0F872308B421BD17E
:10D820004368996B01F0070103EB41010A8DADF8E4
:10D830000020D96C01F0070103EB41018A8FADF89C
:10D8400002201A6E02F0070203EB42030622B3F82D
:10D850005030ADF80430D6E70020DBE71846FFF77C
:10D86000C8BF1FB5BFF35B8F90F87430BFF35B8FF9
:10D8700004469BB1039103A8042103F007F901902A
:10D880002068FDF704FB431E9BB24FF6FD718B42EF
:10D8900004D8019AB4F8701008F0C0F904B010BDB3
:10D8A0001FB50446BFF35B8F90F87500BFF35B8F25
:10D8B000C0B1ADF8081002A80621ADF80C30ADF8E3
:10D8C0000A2003F0E3F801902068FDF7E0FA431E18
:10D8D0009BB24FF6FD718B4204D8019AB4F87210D6
:10D8E00008F09CF904B010BDB0F870308B4207D13D
:10D8F000BFF35B8F012380F87430BFF35B8F7047F9
:10D90000B0F872308B42FAD1BFF35B8F012380F8FD
:10D910007530F2E7B0F870308B4207D1BFF35B8F00
:10D92000002380F87430BFF35B8F7047B0F872301B
:10D930008B42FAD1BFF35B8F002380F87530F2E79A
:10D94000BFF35B8F90F87500BFF35B8F003818BF93
:10D950000120704710B5016042F210720721C0E942
:10D96000011243F69824002209494161C0E90342AB
:10D970004FF4807196240183048501210224C0E9BB
:10D980000822C0E90B42017780F8341010BD00BFB7
:10D99000000B0B0370B5164E04460FCEA0B06D46BB
:10D9A0000FC50FCE0FC596E80700012385E80700D5
:10D9B000104A20680BA901F06AFDB8B92C230DEBC1
:10D9C00003016A46206801F068FD20680BA901F098
:10D9D00061FD009B072B09D16D460FCD04340FC4A8
:10D9E0000FCD0FC495E8070084E8070020B070BD94
:10D9F000F81A0300E91A0300FFF7CCBF30B5002284
:10DA00000160002407210025C0E90445C0E9062281
:10DA10004260818130BD000013B5064B4160044671
:10DA20000093002203460121034819F091FCA060F5
:10DA300002B010BD39DB0000241B03000000000011
:10DA4000F0B585B00023044600931A460321806890
:10DA500019F0CAFC2368D3E90C6531A3D3E900238C
:10DA6000C4E904653046294620F010F9CDE90201E9
:10DA700002A81DF055FA2368217B1A7A914204D33B
:10DA80000FD1627B1B799A420BD8C3680133C36004
:10DA900083690722013393FBF2F2C2EBC2029B1AA5
:10DAA0008361237B8360637B436000230360E369BE
:10DAB000022B04D1836963BBC3680133C3604FF099
:10DAC000FF3303621DF056FC174AA0FB020302FB62
:10DAD0000131C4E90401801B61EB050110A3D3E906
:10DAE000002320F0D3F800273B4682020421A068DF
:10DAF000009719F079FCA56818F0FAFC3B4602463D
